{
	"data": {
		"bytecode": {
			"linkReferences": {},
			"object": "608060405234801561001057600080fd5b50610a55806100206000396000f3fe6080604052600436106100345760003560e01c806373d4a13a14610039578063b0feeff614610064578063edcbe76c1461008d575b600080fd5b34801561004557600080fd5b5061004e6100a9565b60405161005b9190610458565b60405180910390f35b34801561007057600080fd5b5061008b600480360381019061008691906104dd565b610137565b005b6100a760048036038101906100a291906104dd565b61026a565b005b600080546100b690610539565b80601f01602080910402602001604051908101604052809291908181526020018280546100e290610539565b801561012f5780601f106101045761010080835404028352916020019161012f565b820191906000526020600020905b81548152906001019060200180831161011257829003601f168201915b505050505081565b60008173ffffffffffffffffffffffffffffffffffffffff166040516024016040516020818303038152906040527f5ec01e4d000000000000000000000000000000000000000000000000000000007bffffffffffffffffffffffffffffffffffffffffffffffffffffffff19166020820180517bffffffffffffffffffffffffffffffffffffffffffffffffffffffff83818316178352505050506040516101e091906105a6565b6000604051808303816000865af19150503d806000811461021d576040519150601f19603f3d011682016040523d82523d6000602084013e610222565b606091505b5050905080610266576040517f08c379a000000000000000000000000000000000000000000000000000000000815260040161025d9061061a565b60405180910390fd5b5050565b6000808273ffffffffffffffffffffffffffffffffffffffff166103e8607b60405160240161029991906106d8565b6040516020818303038152906040527f24ccab8f000000000000000000000000000000000000000000000000000000007bffffffffffffffffffffffffffffffffffffffffffffffffffffffff19166020820180517bffffffffffffffffffffffffffffffffffffffffffffffffffffffff838183161783525050505060405161032391906105a6565b60006040518083038185875af1925050503d8060008114610360576040519150601f19603f3d011682016040523d82523d6000602084013e610365565b606091505b5091509150816103aa576040517f08c379a00000000000000000000000000000000000000000000000000000000081526004016103a190610752565b60405180910390fd5b80600090816103b9919061094d565b50505050565b600081519050919050565b600082825260208201905092915050565b60005b838110156103f95780820151818401526020810190506103de565b83811115610408576000848401525b50505050565b6000601f19601f8301169050919050565b600061042a826103bf565b61043481856103ca565b93506104448185602086016103db565b61044d8161040e565b840191505092915050565b60006020820190508181036000830152610472818461041f565b905092915050565b600080fd5b600073ffffffffffffffffffffffffffffffffffffffff82169050919050565b60006104aa8261047f565b9050919050565b6104ba8161049f565b81146104c557600080fd5b50565b6000813590506104d7816104b1565b92915050565b6000602082840312156104f3576104f261047a565b5b6000610501848285016104c8565b91505092915050565b7f4e487b7100000000000000000000000000000000000000000000000000000000600052602260045260246000fd5b6000600282049050600182168061055157607f821691505b6020821081036105645761056361050a565b5b50919050565b600081905092915050565b6000610580826103bf565b61058a818561056a565b935061059a8185602086016103db565b80840191505092915050565b60006105b28284610575565b915081905092915050565b600082825260208201905092915050565b7f63616c6c20746f2072616e646f6d2829206661696c6564000000000000000000600082015250565b60006106046017836105bd565b915061060f826105ce565b602082019050919050565b60006020820190508181036000830152610633816105f7565b9050919050565b7f6d79206d65737361676500000000000000000000000000000000000000000000600082015250565b6000610670600a836105bd565b915061067b8261063a565b602082019050919050565b6000819050919050565b600060ff82169050919050565b6000819050919050565b60006106c26106bd6106b884610686565b61069d565b610690565b9050919050565b6106d2816106a7565b82525050565b600060408201905081810360008301526106f181610663565b905061070060208301846106c9565b92915050565b7f43616c6c20746f20666f6f206661696c65640000000000000000000000000000600082015250565b600061073c6012836105bd565b915061074782610706565b602082019050919050565b6000602082019050818103600083015261076b8161072f565b9050919050565b7f4e487b7100000000000000000000000000000000000000000000000000000000600052604160045260246000fd5b60008190508160005260206000209050919050565b60006020601f8301049050919050565b600082821b905092915050565b6000600883026108037fffffffffffffffffffffffffffffffffffffffffffffffffffffffffffffffff826107c6565b61080d86836107c6565b95508019841693508086168417925050509392505050565b6000819050919050565b600061084a61084561084084610825565b61069d565b610825565b9050919050565b6000819050919050565b6108648361082f565b61087861087082610851565b8484546107d3565b825550505050565b600090565b61088d610880565b61089881848461085b565b505050565b5b818110156108bc576108b1600082610885565b60018101905061089e565b5050565b601f821115610901576108d2816107a1565b6108db846107b6565b810160208510156108ea578190505b6108fe6108f6856107b6565b83018261089d565b50505b505050565b600082821c905092915050565b600061092460001984600802610906565b1980831691505092915050565b600061093d8383610913565b9150826002028217905092915050565b610956826103bf565b67ffffffffffffffff81111561096f5761096e610772565b5b6109798254610539565b6109848282856108c0565b600060209050601f8311600181146109b757600084156109a5578287015190505b6109af8582610931565b865550610a17565b601f1984166109c5866107a1565b60005b828110156109ed578489015182556001820191506020850194506020810190506109c8565b86831015610a0a5784890151610a06601f891682610913565b8355505b6001600288020188555050505b50505050505056fea2646970667358221220f3f90ad51e82c3583321be8758e9b0588796b4a1ebde835491dd317ae2802cec64736f6c634300080f0033",
			"opcodes": "PUSH1 0x80 PUSH1 0x40 MSTORE CALLVALUE DUP1 ISZERO PUSH2 0x10 JUMPI PUSH1 0x0 DUP1 REVERT JUMPDEST POP PUSH2 0xA55 DUP1 PUSH2 0x20 PUSH1 0x0 CODECOPY PUSH1 0x0 RETURN INVALID PUSH1 0x80 PUSH1 0x40 MSTORE PUSH1 0x4 CALLDATASIZE LT PUSH2 0x34 JUMPI PUSH1 0x0 CALLDATALOAD PUSH1 0xE0 SHR DUP1 PUSH4 0x73D4A13A EQ PUSH2 0x39 JUMPI DUP1 PUSH4 0xB0FEEFF6 EQ PUSH2 0x64 JUMPI DUP1 PUSH4 0xEDCBE76C EQ PUSH2 0x8D JUMPI JUMPDEST PUSH1 0x0 DUP1 REVERT JUMPDEST CALLVALUE DUP1 ISZERO PUSH2 0x45 JUMPI PUSH1 0x0 DUP1 REVERT JUMPDEST POP PUSH2 0x4E PUSH2 0xA9 JUMP JUMPDEST PUSH1 0x40 MLOAD PUSH2 0x5B SWAP2 SWAP1 PUSH2 0x458 JUMP JUMPDEST PUSH1 0x40 MLOAD DUP1 SWAP2 SUB SWAP1 RETURN JUMPDEST CALLVALUE DUP1 ISZERO PUSH2 0x70 JUMPI PUSH1 0x0 DUP1 REVERT JUMPDEST POP PUSH2 0x8B PUSH1 0x4 DUP1 CALLDATASIZE SUB DUP2 ADD SWAP1 PUSH2 0x86 SWAP2 SWAP1 PUSH2 0x4DD JUMP JUMPDEST PUSH2 0x137 JUMP JUMPDEST STOP JUMPDEST PUSH2 0xA7 PUSH1 0x4 DUP1 CALLDATASIZE SUB DUP2 ADD SWAP1 PUSH2 0xA2 SWAP2 SWAP1 PUSH2 0x4DD JUMP JUMPDEST PUSH2 0x26A JUMP JUMPDEST STOP JUMPDEST PUSH1 0x0 DUP1 SLOAD PUSH2 0xB6 SWAP1 PUSH2 0x539 JUMP JUMPDEST DUP1 PUSH1 0x1F ADD PUSH1 0x20 DUP1 SWAP2 DIV MUL PUSH1 0x20 ADD PUSH1 0x40 MLOAD SWAP1 DUP2 ADD PUSH1 0x40 MSTORE DUP1 SWAP3 SWAP2 SWAP1 DUP2 DUP2 MSTORE PUSH1 0x20 ADD DUP3 DUP1 SLOAD PUSH2 0xE2 SWAP1 PUSH2 0x539 JUMP JUMPDEST DUP1 ISZERO PUSH2 0x12F JUMPI DUP1 PUSH1 0x1F LT PUSH2 0x104 JUMPI PUSH2 0x100 DUP1 DUP4 SLOAD DIV MUL DUP4 MSTORE SWAP2 PUSH1 0x20 ADD SWAP2 PUSH2 0x12F JUMP JUMPDEST DUP3 ADD SWAP2 SWAP1 PUSH1 0x0 MSTORE PUSH1 0x20 PUSH1 0x0 KECCAK256 SWAP1 JUMPDEST DUP2 SLOAD DUP2 MSTORE SWAP1 PUSH1 0x1 ADD SWAP1 PUSH1 0x20 ADD DUP1 DUP4 GT PUSH2 0x112 JUMPI DUP3 SWAP1 SUB PUSH1 0x1F AND DUP3 ADD SWAP2 JUMPDEST POP POP POP POP POP DUP2 JUMP JUMPDEST PUSH1 0x0 DUP2 PUSH20 0xFFFFFFFFFFFFFFFFFFFFFFFFFFFFFFFFFFFFFFFF AND PUSH1 0x40 MLOAD PUSH1 0x24 ADD PUSH1 0x40 MLOAD PUSH1 0x20 DUP2 DUP4 SUB SUB DUP2 MSTORE SWAP1 PUSH1 0x40 MSTORE PUSH32 0x5EC01E4D00000000000000000000000000000000000000000000000000000000 PUSH28 0xFFFFFFFFFFFFFFFFFFFFFFFFFFFFFFFFFFFFFFFFFFFFFFFFFFFFFFFF NOT AND PUSH1 0x20 DUP3 ADD DUP1 MLOAD PUSH28 0xFFFFFFFFFFFFFFFFFFFFFFFFFFFFFFFFFFFFFFFFFFFFFFFFFFFFFFFF DUP4 DUP2 DUP4 AND OR DUP4 MSTORE POP POP POP POP PUSH1 0x40 MLOAD PUSH2 0x1E0 SWAP2 SWAP1 PUSH2 0x5A6 JUMP JUMPDEST PUSH1 0x0 PUSH1 0x40 MLOAD DUP1 DUP4 SUB DUP2 PUSH1 0x0 DUP7 GAS CALL SWAP2 POP POP RETURNDATASIZE DUP1 PUSH1 0x0 DUP2 EQ PUSH2 0x21D JUMPI PUSH1 0x40 MLOAD SWAP2 POP PUSH1 0x1F NOT PUSH1 0x3F RETURNDATASIZE ADD AND DUP3 ADD PUSH1 0x40 MSTORE RETURNDATASIZE DUP3 MSTORE RETURNDATASIZE PUSH1 0x0 PUSH1 0x20 DUP5 ADD RETURNDATACOPY PUSH2 0x222 JUMP JUMPDEST PUSH1 0x60 SWAP2 POP JUMPDEST POP POP SWAP1 POP DUP1 PUSH2 0x266 JUMPI PUSH1 0x40 MLOAD PUSH32 0x8C379A000000000000000000000000000000000000000000000000000000000 DUP2 MSTORE PUSH1 0x4 ADD PUSH2 0x25D SWAP1 PUSH2 0x61A JUMP JUMPDEST PUSH1 0x40 MLOAD DUP1 SWAP2 SUB SWAP1 REVERT JUMPDEST POP POP JUMP JUMPDEST PUSH1 0x0 DUP1 DUP3 PUSH20 0xFFFFFFFFFFFFFFFFFFFFFFFFFFFFFFFFFFFFFFFF AND PUSH2 0x3E8 PUSH1 0x7B PUSH1 0x40 MLOAD PUSH1 0x24 ADD PUSH2 0x299 SWAP2 SWAP1 PUSH2 0x6D8 JUMP JUMPDEST PUSH1 0x40 MLOAD PUSH1 0x20 DUP2 DUP4 SUB SUB DUP2 MSTORE SWAP1 PUSH1 0x40 MSTORE PUSH32 0x24CCAB8F00000000000000000000000000000000000000000000000000000000 PUSH28 0xFFFFFFFFFFFFFFFFFFFFFFFFFFFFFFFFFFFFFFFFFFFFFFFFFFFFFFFF NOT AND PUSH1 0x20 DUP3 ADD DUP1 MLOAD PUSH28 0xFFFFFFFFFFFFFFFFFFFFFFFFFFFFFFFFFFFFFFFFFFFFFFFFFFFFFFFF DUP4 DUP2 DUP4 AND OR DUP4 MSTORE POP POP POP POP PUSH1 0x40 MLOAD PUSH2 0x323 SWAP2 SWAP1 PUSH2 0x5A6 JUMP JUMPDEST PUSH1 0x0 PUSH1 0x40 MLOAD DUP1 DUP4 SUB DUP2 DUP6 DUP8 GAS CALL SWAP3 POP POP POP RETURNDATASIZE DUP1 PUSH1 0x0 DUP2 EQ PUSH2 0x360 JUMPI PUSH1 0x40 MLOAD SWAP2 POP PUSH1 0x1F NOT PUSH1 0x3F RETURNDATASIZE ADD AND DUP3 ADD PUSH1 0x40 MSTORE RETURNDATASIZE DUP3 MSTORE RETURNDATASIZE PUSH1 0x0 PUSH1 0x20 DUP5 ADD RETURNDATACOPY PUSH2 0x365 JUMP JUMPDEST PUSH1 0x60 SWAP2 POP JUMPDEST POP SWAP2 POP SWAP2 POP DUP2 PUSH2 0x3AA JUMPI PUSH1 0x40 MLOAD PUSH32 0x8C379A000000000000000000000000000000000000000000000000000000000 DUP2 MSTORE PUSH1 0x4 ADD PUSH2 0x3A1 SWAP1 PUSH2 0x752 JUMP JUMPDEST PUSH1 0x40 MLOAD DUP1 SWAP2 SUB SWAP1 REVERT JUMPDEST DUP1 PUSH1 0x0 SWAP1 DUP2 PUSH2 0x3B9 SWAP2 SWAP1 PUSH2 0x94D JUMP JUMPDEST POP POP POP POP JUMP JUMPDEST PUSH1 0x0 DUP2 MLOAD SWAP1 POP SWAP2 SWAP1 POP JUMP JUMPDEST PUSH1 0x0 DUP3 DUP3 MSTORE PUSH1 0x20 DUP3 ADD SWAP1 POP SWAP3 SWAP2 POP POP JUMP JUMPDEST PUSH1 0x0 JUMPDEST DUP4 DUP2 LT ISZERO PUSH2 0x3F9 JUMPI DUP1 DUP3 ADD MLOAD DUP2 DUP5 ADD MSTORE PUSH1 0x20 DUP2 ADD SWAP1 POP PUSH2 0x3DE JUMP JUMPDEST DUP4 DUP2 GT ISZERO PUSH2 0x408 JUMPI PUSH1 0x0 DUP5 DUP5 ADD MSTORE JUMPDEST POP POP POP POP JUMP JUMPDEST PUSH1 0x0 PUSH1 0x1F NOT PUSH1 0x1F DUP4 ADD AND SWAP1 POP SWAP2 SWAP1 POP JUMP JUMPDEST PUSH1 0x0 PUSH2 0x42A DUP3 PUSH2 0x3BF JUMP JUMPDEST PUSH2 0x434 DUP2 DUP6 PUSH2 0x3CA JUMP JUMPDEST SWAP4 POP PUSH2 0x444 DUP2 DUP6 PUSH1 0x20 DUP7 ADD PUSH2 0x3DB JUMP JUMPDEST PUSH2 0x44D DUP2 PUSH2 0x40E JUMP JUMPDEST DUP5 ADD SWAP2 POP POP SWAP3 SWAP2 POP POP JUMP JUMPDEST PUSH1 0x0 PUSH1 0x20 DUP3 ADD SWAP1 POP DUP2 DUP2 SUB PUSH1 0x0 DUP4 ADD MSTORE PUSH2 0x472 DUP2 DUP5 PUSH2 0x41F JUMP JUMPDEST SWAP1 POP SWAP3 SWAP2 POP POP JUMP JUMPDEST PUSH1 0x0 DUP1 REVERT JUMPDEST PUSH1 0x0 PUSH20 0xFFFFFFFFFFFFFFFFFFFFFFFFFFFFFFFFFFFFFFFF DUP3 AND SWAP1 POP SWAP2 SWAP1 POP JUMP JUMPDEST PUSH1 0x0 PUSH2 0x4AA DUP3 PUSH2 0x47F JUMP JUMPDEST SWAP1 POP SWAP2 SWAP1 POP JUMP JUMPDEST PUSH2 0x4BA DUP2 PUSH2 0x49F JUMP JUMPDEST DUP2 EQ PUSH2 0x4C5 JUMPI PUSH1 0x0 DUP1 REVERT JUMPDEST POP JUMP JUMPDEST PUSH1 0x0 DUP2 CALLDATALOAD SWAP1 POP PUSH2 0x4D7 DUP2 PUSH2 0x4B1 JUMP JUMPDEST SWAP3 SWAP2 POP POP JUMP JUMPDEST PUSH1 0x0 PUSH1 0x20 DUP3 DUP5 SUB SLT ISZERO PUSH2 0x4F3 JUMPI PUSH2 0x4F2 PUSH2 0x47A JUMP JUMPDEST JUMPDEST PUSH1 0x0 PUSH2 0x501 DUP5 DUP3 DUP6 ADD PUSH2 0x4C8 JUMP JUMPDEST SWAP2 POP POP SWAP3 SWAP2 POP POP JUMP JUMPDEST PUSH32 0x4E487B7100000000000000000000000000000000000000000000000000000000 PUSH1 0x0 MSTORE PUSH1 0x22 PUSH1 0x4 MSTORE PUSH1 0x24 PUSH1 0x0 REVERT JUMPDEST PUSH1 0x0 PUSH1 0x2 DUP3 DIV SWAP1 POP PUSH1 0x1 DUP3 AND DUP1 PUSH2 0x551 JUMPI PUSH1 0x7F DUP3 AND SWAP2 POP JUMPDEST PUSH1 0x20 DUP3 LT DUP2 SUB PUSH2 0x564 JUMPI PUSH2 0x563 PUSH2 0x50A JUMP JUMPDEST JUMPDEST POP SWAP2 SWAP1 POP JUMP JUMPDEST PUSH1 0x0 DUP2 SWAP1 POP SWAP3 SWAP2 POP POP JUMP JUMPDEST PUSH1 0x0 PUSH2 0x580 DUP3 PUSH2 0x3BF JUMP JUMPDEST PUSH2 0x58A DUP2 DUP6 PUSH2 0x56A JUMP JUMPDEST SWAP4 POP PUSH2 0x59A DUP2 DUP6 PUSH1 0x20 DUP7 ADD PUSH2 0x3DB JUMP JUMPDEST DUP1 DUP5 ADD SWAP2 POP POP SWAP3 SWAP2 POP POP JUMP JUMPDEST PUSH1 0x0 PUSH2 0x5B2 DUP3 DUP5 PUSH2 0x575 JUMP JUMPDEST SWAP2 POP DUP2 SWAP1 POP SWAP3 SWAP2 POP POP JUMP JUMPDEST PUSH1 0x0 DUP3 DUP3 MSTORE PUSH1 0x20 DUP3 ADD SWAP1 POP SWAP3 SWAP2 POP POP JUMP JUMPDEST PUSH32 0x63616C6C20746F2072616E646F6D2829206661696C6564000000000000000000 PUSH1 0x0 DUP3 ADD MSTORE POP JUMP JUMPDEST PUSH1 0x0 PUSH2 0x604 PUSH1 0x17 DUP4 PUSH2 0x5BD JUMP JUMPDEST SWAP2 POP PUSH2 0x60F DUP3 PUSH2 0x5CE JUMP JUMPDEST PUSH1 0x20 DUP3 ADD SWAP1 POP SWAP2 SWAP1 POP JUMP JUMPDEST PUSH1 0x0 PUSH1 0x20 DUP3 ADD SWAP1 POP DUP2 DUP2 SUB PUSH1 0x0 DUP4 ADD MSTORE PUSH2 0x633 DUP2 PUSH2 0x5F7 JUMP JUMPDEST SWAP1 POP SWAP2 SWAP1 POP JUMP JUMPDEST PUSH32 0x6D79206D65737361676500000000000000000000000000000000000000000000 PUSH1 0x0 DUP3 ADD MSTORE POP JUMP JUMPDEST PUSH1 0x0 PUSH2 0x670 PUSH1 0xA DUP4 PUSH2 0x5BD JUMP JUMPDEST SWAP2 POP PUSH2 0x67B DUP3 PUSH2 0x63A JUMP JUMPDEST PUSH1 0x20 DUP3 ADD SWAP1 POP SWAP2 SWAP1 POP JUMP JUMPDEST PUSH1 0x0 DUP2 SWAP1 POP SWAP2 SWAP1 POP JUMP JUMPDEST PUSH1 0x0 PUSH1 0xFF DUP3 AND SWAP1 POP SWAP2 SWAP1 POP JUMP JUMPDEST PUSH1 0x0 DUP2 SWAP1 POP SWAP2 SWAP1 POP JUMP JUMPDEST PUSH1 0x0 PUSH2 0x6C2 PUSH2 0x6BD PUSH2 0x6B8 DUP5 PUSH2 0x686 JUMP JUMPDEST PUSH2 0x69D JUMP JUMPDEST PUSH2 0x690 JUMP JUMPDEST SWAP1 POP SWAP2 SWAP1 POP JUMP JUMPDEST PUSH2 0x6D2 DUP2 PUSH2 0x6A7 JUMP JUMPDEST DUP3 MSTORE POP POP JUMP JUMPDEST PUSH1 0x0 PUSH1 0x40 DUP3 ADD SWAP1 POP DUP2 DUP2 SUB PUSH1 0x0 DUP4 ADD MSTORE PUSH2 0x6F1 DUP2 PUSH2 0x663 JUMP JUMPDEST SWAP1 POP PUSH2 0x700 PUSH1 0x20 DUP4 ADD DUP5 PUSH2 0x6C9 JUMP JUMPDEST SWAP3 SWAP2 POP POP JUMP JUMPDEST PUSH32 0x43616C6C20746F20666F6F206661696C65640000000000000000000000000000 PUSH1 0x0 DUP3 ADD MSTORE POP JUMP JUMPDEST PUSH1 0x0 PUSH2 0x73C PUSH1 0x12 DUP4 PUSH2 0x5BD JUMP JUMPDEST SWAP2 POP PUSH2 0x747 DUP3 PUSH2 0x706 JUMP JUMPDEST PUSH1 0x20 DUP3 ADD SWAP1 POP SWAP2 SWAP1 POP JUMP JUMPDEST PUSH1 0x0 PUSH1 0x20 DUP3 ADD SWAP1 POP DUP2 DUP2 SUB PUSH1 0x0 DUP4 ADD MSTORE PUSH2 0x76B DUP2 PUSH2 0x72F JUMP JUMPDEST SWAP1 POP SWAP2 SWAP1 POP JUMP JUMPDEST PUSH32 0x4E487B7100000000000000000000000000000000000000000000000000000000 PUSH1 0x0 MSTORE PUSH1 0x41 PUSH1 0x4 MSTORE PUSH1 0x24 PUSH1 0x0 REVERT JUMPDEST PUSH1 0x0 DUP2 SWAP1 POP DUP2 PUSH1 0x0 MSTORE PUSH1 0x20 PUSH1 0x0 KECCAK256 SWAP1 POP SWAP2 SWAP1 POP JUMP JUMPDEST PUSH1 0x0 PUSH1 0x20 PUSH1 0x1F DUP4 ADD DIV SWAP1 POP SWAP2 SWAP1 POP JUMP JUMPDEST PUSH1 0x0 DUP3 DUP3 SHL SWAP1 POP SWAP3 SWAP2 POP POP JUMP JUMPDEST PUSH1 0x0 PUSH1 0x8 DUP4 MUL PUSH2 0x803 PUSH32 0xFFFFFFFFFFFFFFFFFFFFFFFFFFFFFFFFFFFFFFFFFFFFFFFFFFFFFFFFFFFFFFFF DUP3 PUSH2 0x7C6 JUMP JUMPDEST PUSH2 0x80D DUP7 DUP4 PUSH2 0x7C6 JUMP JUMPDEST SWAP6 POP DUP1 NOT DUP5 AND SWAP4 POP DUP1 DUP7 AND DUP5 OR SWAP3 POP POP POP SWAP4 SWAP3 POP POP POP JUMP JUMPDEST PUSH1 0x0 DUP2 SWAP1 POP SWAP2 SWAP1 POP JUMP JUMPDEST PUSH1 0x0 PUSH2 0x84A PUSH2 0x845 PUSH2 0x840 DUP5 PUSH2 0x825 JUMP JUMPDEST PUSH2 0x69D JUMP JUMPDEST PUSH2 0x825 JUMP JUMPDEST SWAP1 POP SWAP2 SWAP1 POP JUMP JUMPDEST PUSH1 0x0 DUP2 SWAP1 POP SWAP2 SWAP1 POP JUMP JUMPDEST PUSH2 0x864 DUP4 PUSH2 0x82F JUMP JUMPDEST PUSH2 0x878 PUSH2 0x870 DUP3 PUSH2 0x851 JUMP JUMPDEST DUP5 DUP5 SLOAD PUSH2 0x7D3 JUMP JUMPDEST DUP3 SSTORE POP POP POP POP JUMP JUMPDEST PUSH1 0x0 SWAP1 JUMP JUMPDEST PUSH2 0x88D PUSH2 0x880 JUMP JUMPDEST PUSH2 0x898 DUP2 DUP5 DUP5 PUSH2 0x85B JUMP JUMPDEST POP POP POP JUMP JUMPDEST JUMPDEST DUP2 DUP2 LT ISZERO PUSH2 0x8BC JUMPI PUSH2 0x8B1 PUSH1 0x0 DUP3 PUSH2 0x885 JUMP JUMPDEST PUSH1 0x1 DUP2 ADD SWAP1 POP PUSH2 0x89E JUMP JUMPDEST POP POP JUMP JUMPDEST PUSH1 0x1F DUP3 GT ISZERO PUSH2 0x901 JUMPI PUSH2 0x8D2 DUP2 PUSH2 0x7A1 JUMP JUMPDEST PUSH2 0x8DB DUP5 PUSH2 0x7B6 JUMP JUMPDEST DUP2 ADD PUSH1 0x20 DUP6 LT ISZERO PUSH2 0x8EA JUMPI DUP2 SWAP1 POP JUMPDEST PUSH2 0x8FE PUSH2 0x8F6 DUP6 PUSH2 0x7B6 JUMP JUMPDEST DUP4 ADD DUP3 PUSH2 0x89D JUMP JUMPDEST POP POP JUMPDEST POP POP POP JUMP JUMPDEST PUSH1 0x0 DUP3 DUP3 SHR SWAP1 POP SWAP3 SWAP2 POP POP JUMP JUMPDEST PUSH1 0x0 PUSH2 0x924 PUSH1 0x0 NOT DUP5 PUSH1 0x8 MUL PUSH2 0x906 JUMP JUMPDEST NOT DUP1 DUP4 AND SWAP2 POP POP SWAP3 SWAP2 POP POP JUMP JUMPDEST PUSH1 0x0 PUSH2 0x93D DUP4 DUP4 PUSH2 0x913 JUMP JUMPDEST SWAP2 POP DUP3 PUSH1 0x2 MUL DUP3 OR SWAP1 POP SWAP3 SWAP2 POP POP JUMP JUMPDEST PUSH2 0x956 DUP3 PUSH2 0x3BF JUMP JUMPDEST PUSH8 0xFFFFFFFFFFFFFFFF DUP2 GT ISZERO PUSH2 0x96F JUMPI PUSH2 0x96E PUSH2 0x772 JUMP JUMPDEST JUMPDEST PUSH2 0x979 DUP3 SLOAD PUSH2 0x539 JUMP JUMPDEST PUSH2 0x984 DUP3 DUP3 DUP6 PUSH2 0x8C0 JUMP JUMPDEST PUSH1 0x0 PUSH1 0x20 SWAP1 POP PUSH1 0x1F DUP4 GT PUSH1 0x1 DUP2 EQ PUSH2 0x9B7 JUMPI PUSH1 0x0 DUP5 ISZERO PUSH2 0x9A5 JUMPI DUP3 DUP8 ADD MLOAD SWAP1 POP JUMPDEST PUSH2 0x9AF DUP6 DUP3 PUSH2 0x931 JUMP JUMPDEST DUP7 SSTORE POP PUSH2 0xA17 JUMP JUMPDEST PUSH1 0x1F NOT DUP5 AND PUSH2 0x9C5 DUP7 PUSH2 0x7A1 JUMP JUMPDEST PUSH1 0x0 JUMPDEST DUP3 DUP2 LT ISZERO PUSH2 0x9ED JUMPI DUP5 DUP10 ADD MLOAD DUP3 SSTORE PUSH1 0x1 DUP3 ADD SWAP2 POP PUSH1 0x20 DUP6 ADD SWAP5 POP PUSH1 0x20 DUP2 ADD SWAP1 POP PUSH2 0x9C8 JUMP JUMPDEST DUP7 DUP4 LT ISZERO PUSH2 0xA0A JUMPI DUP5 DUP10 ADD MLOAD PUSH2 0xA06 PUSH1 0x1F DUP10 AND DUP3 PUSH2 0x913 JUMP JUMPDEST DUP4 SSTORE POP JUMPDEST PUSH1 0x1 PUSH1 0x2 DUP9 MUL ADD DUP9 SSTORE POP POP POP JUMPDEST POP POP POP POP POP POP JUMP INVALID LOG2 PUSH5 0x6970667358 0x22 SLT KECCAK256 RETURN 0xF9 EXP 0xD5 0x1E DUP3 0xC3 PC CALLER 0x21 0xBE DUP8 PC 0xE9 0xB0 PC DUP8 SWAP7 0xB4 LOG1 0xEB 0xDE DUP4 SLOAD SWAP2 0xDD BALANCE PUSH27 0xE2802CEC64736F6C634300080F0033000000000000000000000000 "
		},
		"gasEstimates": {
			"creation": {
				"codeDepositCost": "529000",
				"executionCost": "562",
				"totalCost": "529562"
			},
			"external": {
				"callDoesNotExist(address)": "infinite",
				"callFoo(address)": "infinite",
				"data()": "infinite"
			}
		},
		"methodIdentifiers": {
			"callDoesNotExist(address)": "b0feeff6",
			"callFoo(address)": "edcbe76c",
			"data()": "73d4a13a"
		}
	},
	"abi": [
		{
			"inputs": [
				{
					"internalType": "address",
					"name": "_test",
					"type": "address"
				}
			],
			"name": "callDoesNotExist",
			"outputs": [],
			"stateMutability": "nonpayable",
			"type": "function"
		},
		{
			"inputs": [
				{
					"internalType": "address",
					"name": "_test",
					"type": "address"
				}
			],
			"name": "callFoo",
			"outputs": [],
			"stateMutability": "payable",
			"type": "function"
		},
		{
			"inputs": [],
			"name": "data",
			"outputs": [
				{
					"internalType": "bytes",
					"name": "",
					"type": "bytes"
				}
			],
			"stateMutability": "view",
			"type": "function"
		}
	]
}