{
	"data": {
		"bytecode": {
			"linkReferences": {},
			"object": "608060405234801561001057600080fd5b5061078c806100206000396000f3fe60806040526004361061002d5760003560e01c80630c55699c146100a057806324ccab8f146100cb57610069565b36610069577fcf34ef537ac33ee1ac626ca1587a0a7e8e51561e5514f8cb36afa1c5102b3bab60405161005f90610187565b60405180910390a1005b7fcf34ef537ac33ee1ac626ca1587a0a7e8e51561e5514f8cb36afa1c5102b3bab604051610096906101f3565b60405180910390a1005b3480156100ac57600080fd5b506100b56100fc565b6040516100c2919061022c565b60405180910390f35b6100e560048036038101906100e091906103cd565b610102565b6040516100f3929190610444565b60405180910390f35b60015481565b60008083600090816101149190610684565b5082600181905550600180915091509250929050565b600082825260208201905092915050565b7f72656365697665207761732063616c6c65640000000000000000000000000000600082015250565b600061017160128361012a565b915061017c8261013b565b602082019050919050565b600060208201905081810360008301526101a081610164565b9050919050565b7f66616c6c6261636b207761732063616c6c656400000000000000000000000000600082015250565b60006101dd60138361012a565b91506101e8826101a7565b602082019050919050565b6000602082019050818103600083015261020c816101d0565b9050919050565b6000819050919050565b61022681610213565b82525050565b6000602082019050610241600083018461021d565b92915050565b6000604051905090565b600080fd5b600080fd5b600080fd5b600080fd5b6000601f19601f8301169050919050565b7f4e487b7100000000000000000000000000000000000000000000000000000000600052604160045260246000fd5b6102ae82610265565b810181811067ffffffffffffffff821117156102cd576102cc610276565b5b80604052505050565b60006102e0610247565b90506102ec82826102a5565b919050565b600067ffffffffffffffff82111561030c5761030b610276565b5b61031582610265565b9050602081019050919050565b82818337600083830152505050565b600061034461033f846102f1565b6102d6565b9050828152602081018484840111156103605761035f610260565b5b61036b848285610322565b509392505050565b600082601f8301126103885761038761025b565b5b8135610398848260208601610331565b91505092915050565b6103aa81610213565b81146103b557600080fd5b50565b6000813590506103c7816103a1565b92915050565b600080604083850312156103e4576103e3610251565b5b600083013567ffffffffffffffff81111561040257610401610256565b5b61040e85828601610373565b925050602061041f858286016103b8565b9150509250929050565b60008115159050919050565b61043e81610429565b82525050565b60006040820190506104596000830185610435565b610466602083018461021d565b9392505050565b600081519050919050565b7f4e487b7100000000000000000000000000000000000000000000000000000000600052602260045260246000fd5b600060028204905060018216806104bf57607f821691505b6020821081036104d2576104d1610478565b5b50919050565b60008190508160005260206000209050919050565b60006020601f8301049050919050565b600082821b905092915050565b60006008830261053a7fffffffffffffffffffffffffffffffffffffffffffffffffffffffffffffffff826104fd565b61054486836104fd565b95508019841693508086168417925050509392505050565b6000819050919050565b600061058161057c61057784610213565b61055c565b610213565b9050919050565b6000819050919050565b61059b83610566565b6105af6105a782610588565b84845461050a565b825550505050565b600090565b6105c46105b7565b6105cf818484610592565b505050565b5b818110156105f3576105e86000826105bc565b6001810190506105d5565b5050565b601f82111561063857610609816104d8565b610612846104ed565b81016020851015610621578190505b61063561062d856104ed565b8301826105d4565b50505b505050565b600082821c905092915050565b600061065b6000198460080261063d565b1980831691505092915050565b6000610674838361064a565b9150826002028217905092915050565b61068d8261046d565b67ffffffffffffffff8111156106a6576106a5610276565b5b6106b082546104a7565b6106bb8282856105f7565b600060209050601f8311600181146106ee57600084156106dc578287015190505b6106e68582610668565b86555061074e565b601f1984166106fc866104d8565b60005b82811015610724578489015182556001820191506020850194506020810190506106ff565b86831015610741578489015161073d601f89168261064a565b8355505b6001600288020188555050505b50505050505056fea264697066735822122068ae273ee47b9fa28101e36e5358f63af59cce85762888fa5513cc469d6dad3064736f6c634300080f0033",
			"opcodes": "PUSH1 0x80 PUSH1 0x40 MSTORE CALLVALUE DUP1 ISZERO PUSH2 0x10 JUMPI PUSH1 0x0 DUP1 REVERT JUMPDEST POP PUSH2 0x78C DUP1 PUSH2 0x20 PUSH1 0x0 CODECOPY PUSH1 0x0 RETURN INVALID PUSH1 0x80 PUSH1 0x40 MSTORE PUSH1 0x4 CALLDATASIZE LT PUSH2 0x2D JUMPI PUSH1 0x0 CALLDATALOAD PUSH1 0xE0 SHR DUP1 PUSH4 0xC55699C EQ PUSH2 0xA0 JUMPI DUP1 PUSH4 0x24CCAB8F EQ PUSH2 0xCB JUMPI PUSH2 0x69 JUMP JUMPDEST CALLDATASIZE PUSH2 0x69 JUMPI PUSH32 0xCF34EF537AC33EE1AC626CA1587A0A7E8E51561E5514F8CB36AFA1C5102B3BAB PUSH1 0x40 MLOAD PUSH2 0x5F SWAP1 PUSH2 0x187 JUMP JUMPDEST PUSH1 0x40 MLOAD DUP1 SWAP2 SUB SWAP1 LOG1 STOP JUMPDEST PUSH32 0xCF34EF537AC33EE1AC626CA1587A0A7E8E51561E5514F8CB36AFA1C5102B3BAB PUSH1 0x40 MLOAD PUSH2 0x96 SWAP1 PUSH2 0x1F3 JUMP JUMPDEST PUSH1 0x40 MLOAD DUP1 SWAP2 SUB SWAP1 LOG1 STOP JUMPDEST CALLVALUE DUP1 ISZERO PUSH2 0xAC JUMPI PUSH1 0x0 DUP1 REVERT JUMPDEST POP PUSH2 0xB5 PUSH2 0xFC JUMP JUMPDEST PUSH1 0x40 MLOAD PUSH2 0xC2 SWAP2 SWAP1 PUSH2 0x22C JUMP JUMPDEST PUSH1 0x40 MLOAD DUP1 SWAP2 SUB SWAP1 RETURN JUMPDEST PUSH2 0xE5 PUSH1 0x4 DUP1 CALLDATASIZE SUB DUP2 ADD SWAP1 PUSH2 0xE0 SWAP2 SWAP1 PUSH2 0x3CD JUMP JUMPDEST PUSH2 0x102 JUMP JUMPDEST PUSH1 0x40 MLOAD PUSH2 0xF3 SWAP3 SWAP2 SWAP1 PUSH2 0x444 JUMP JUMPDEST PUSH1 0x40 MLOAD DUP1 SWAP2 SUB SWAP1 RETURN JUMPDEST PUSH1 0x1 SLOAD DUP2 JUMP JUMPDEST PUSH1 0x0 DUP1 DUP4 PUSH1 0x0 SWAP1 DUP2 PUSH2 0x114 SWAP2 SWAP1 PUSH2 0x684 JUMP JUMPDEST POP DUP3 PUSH1 0x1 DUP2 SWAP1 SSTORE POP PUSH1 0x1 DUP1 SWAP2 POP SWAP2 POP SWAP3 POP SWAP3 SWAP1 POP JUMP JUMPDEST PUSH1 0x0 DUP3 DUP3 MSTORE PUSH1 0x20 DUP3 ADD SWAP1 POP SWAP3 SWAP2 POP POP JUMP JUMPDEST PUSH32 0x72656365697665207761732063616C6C65640000000000000000000000000000 PUSH1 0x0 DUP3 ADD MSTORE POP JUMP JUMPDEST PUSH1 0x0 PUSH2 0x171 PUSH1 0x12 DUP4 PUSH2 0x12A JUMP JUMPDEST SWAP2 POP PUSH2 0x17C DUP3 PUSH2 0x13B JUMP JUMPDEST PUSH1 0x20 DUP3 ADD SWAP1 POP SWAP2 SWAP1 POP JUMP JUMPDEST PUSH1 0x0 PUSH1 0x20 DUP3 ADD SWAP1 POP DUP2 DUP2 SUB PUSH1 0x0 DUP4 ADD MSTORE PUSH2 0x1A0 DUP2 PUSH2 0x164 JUMP JUMPDEST SWAP1 POP SWAP2 SWAP1 POP JUMP JUMPDEST PUSH32 0x66616C6C6261636B207761732063616C6C656400000000000000000000000000 PUSH1 0x0 DUP3 ADD MSTORE POP JUMP JUMPDEST PUSH1 0x0 PUSH2 0x1DD PUSH1 0x13 DUP4 PUSH2 0x12A JUMP JUMPDEST SWAP2 POP PUSH2 0x1E8 DUP3 PUSH2 0x1A7 JUMP JUMPDEST PUSH1 0x20 DUP3 ADD SWAP1 POP SWAP2 SWAP1 POP JUMP JUMPDEST PUSH1 0x0 PUSH1 0x20 DUP3 ADD SWAP1 POP DUP2 DUP2 SUB PUSH1 0x0 DUP4 ADD MSTORE PUSH2 0x20C DUP2 PUSH2 0x1D0 JUMP JUMPDEST SWAP1 POP SWAP2 SWAP1 POP JUMP JUMPDEST PUSH1 0x0 DUP2 SWAP1 POP SWAP2 SWAP1 POP JUMP JUMPDEST PUSH2 0x226 DUP2 PUSH2 0x213 JUMP JUMPDEST DUP3 MSTORE POP POP JUMP JUMPDEST PUSH1 0x0 PUSH1 0x20 DUP3 ADD SWAP1 POP PUSH2 0x241 PUSH1 0x0 DUP4 ADD DUP5 PUSH2 0x21D JUMP JUMPDEST SWAP3 SWAP2 POP POP JUMP JUMPDEST PUSH1 0x0 PUSH1 0x40 MLOAD SWAP1 POP SWAP1 JUMP JUMPDEST PUSH1 0x0 DUP1 REVERT JUMPDEST PUSH1 0x0 DUP1 REVERT JUMPDEST PUSH1 0x0 DUP1 REVERT JUMPDEST PUSH1 0x0 DUP1 REVERT JUMPDEST PUSH1 0x0 PUSH1 0x1F NOT PUSH1 0x1F DUP4 ADD AND SWAP1 POP SWAP2 SWAP1 POP JUMP JUMPDEST PUSH32 0x4E487B7100000000000000000000000000000000000000000000000000000000 PUSH1 0x0 MSTORE PUSH1 0x41 PUSH1 0x4 MSTORE PUSH1 0x24 PUSH1 0x0 REVERT JUMPDEST PUSH2 0x2AE DUP3 PUSH2 0x265 JUMP JUMPDEST DUP2 ADD DUP2 DUP2 LT PUSH8 0xFFFFFFFFFFFFFFFF DUP3 GT OR ISZERO PUSH2 0x2CD JUMPI PUSH2 0x2CC PUSH2 0x276 JUMP JUMPDEST JUMPDEST DUP1 PUSH1 0x40 MSTORE POP POP POP JUMP JUMPDEST PUSH1 0x0 PUSH2 0x2E0 PUSH2 0x247 JUMP JUMPDEST SWAP1 POP PUSH2 0x2EC DUP3 DUP3 PUSH2 0x2A5 JUMP JUMPDEST SWAP2 SWAP1 POP JUMP JUMPDEST PUSH1 0x0 PUSH8 0xFFFFFFFFFFFFFFFF DUP3 GT ISZERO PUSH2 0x30C JUMPI PUSH2 0x30B PUSH2 0x276 JUMP JUMPDEST JUMPDEST PUSH2 0x315 DUP3 PUSH2 0x265 JUMP JUMPDEST SWAP1 POP PUSH1 0x20 DUP2 ADD SWAP1 POP SWAP2 SWAP1 POP JUMP JUMPDEST DUP3 DUP2 DUP4 CALLDATACOPY PUSH1 0x0 DUP4 DUP4 ADD MSTORE POP POP POP JUMP JUMPDEST PUSH1 0x0 PUSH2 0x344 PUSH2 0x33F DUP5 PUSH2 0x2F1 JUMP JUMPDEST PUSH2 0x2D6 JUMP JUMPDEST SWAP1 POP DUP3 DUP2 MSTORE PUSH1 0x20 DUP2 ADD DUP5 DUP5 DUP5 ADD GT ISZERO PUSH2 0x360 JUMPI PUSH2 0x35F PUSH2 0x260 JUMP JUMPDEST JUMPDEST PUSH2 0x36B DUP5 DUP3 DUP6 PUSH2 0x322 JUMP JUMPDEST POP SWAP4 SWAP3 POP POP POP JUMP JUMPDEST PUSH1 0x0 DUP3 PUSH1 0x1F DUP4 ADD SLT PUSH2 0x388 JUMPI PUSH2 0x387 PUSH2 0x25B JUMP JUMPDEST JUMPDEST DUP2 CALLDATALOAD PUSH2 0x398 DUP5 DUP3 PUSH1 0x20 DUP7 ADD PUSH2 0x331 JUMP JUMPDEST SWAP2 POP POP SWAP3 SWAP2 POP POP JUMP JUMPDEST PUSH2 0x3AA DUP2 PUSH2 0x213 JUMP JUMPDEST DUP2 EQ PUSH2 0x3B5 JUMPI PUSH1 0x0 DUP1 REVERT JUMPDEST POP JUMP JUMPDEST PUSH1 0x0 DUP2 CALLDATALOAD SWAP1 POP PUSH2 0x3C7 DUP2 PUSH2 0x3A1 JUMP JUMPDEST SWAP3 SWAP2 POP POP JUMP JUMPDEST PUSH1 0x0 DUP1 PUSH1 0x40 DUP4 DUP6 SUB SLT ISZERO PUSH2 0x3E4 JUMPI PUSH2 0x3E3 PUSH2 0x251 JUMP JUMPDEST JUMPDEST PUSH1 0x0 DUP4 ADD CALLDATALOAD PUSH8 0xFFFFFFFFFFFFFFFF DUP2 GT ISZERO PUSH2 0x402 JUMPI PUSH2 0x401 PUSH2 0x256 JUMP JUMPDEST JUMPDEST PUSH2 0x40E DUP6 DUP3 DUP7 ADD PUSH2 0x373 JUMP JUMPDEST SWAP3 POP POP PUSH1 0x20 PUSH2 0x41F DUP6 DUP3 DUP7 ADD PUSH2 0x3B8 JUMP JUMPDEST SWAP2 POP POP SWAP3 POP SWAP3 SWAP1 POP JUMP JUMPDEST PUSH1 0x0 DUP2 ISZERO ISZERO SWAP1 POP SWAP2 SWAP1 POP JUMP JUMPDEST PUSH2 0x43E DUP2 PUSH2 0x429 JUMP JUMPDEST DUP3 MSTORE POP POP JUMP JUMPDEST PUSH1 0x0 PUSH1 0x40 DUP3 ADD SWAP1 POP PUSH2 0x459 PUSH1 0x0 DUP4 ADD DUP6 PUSH2 0x435 JUMP JUMPDEST PUSH2 0x466 PUSH1 0x20 DUP4 ADD DUP5 PUSH2 0x21D JUMP JUMPDEST SWAP4 SWAP3 POP POP POP JUMP JUMPDEST PUSH1 0x0 DUP2 MLOAD SWAP1 POP SWAP2 SWAP1 POP JUMP JUMPDEST PUSH32 0x4E487B7100000000000000000000000000000000000000000000000000000000 PUSH1 0x0 MSTORE PUSH1 0x22 PUSH1 0x4 MSTORE PUSH1 0x24 PUSH1 0x0 REVERT JUMPDEST PUSH1 0x0 PUSH1 0x2 DUP3 DIV SWAP1 POP PUSH1 0x1 DUP3 AND DUP1 PUSH2 0x4BF JUMPI PUSH1 0x7F DUP3 AND SWAP2 POP JUMPDEST PUSH1 0x20 DUP3 LT DUP2 SUB PUSH2 0x4D2 JUMPI PUSH2 0x4D1 PUSH2 0x478 JUMP JUMPDEST JUMPDEST POP SWAP2 SWAP1 POP JUMP JUMPDEST PUSH1 0x0 DUP2 SWAP1 POP DUP2 PUSH1 0x0 MSTORE PUSH1 0x20 PUSH1 0x0 KECCAK256 SWAP1 POP SWAP2 SWAP1 POP JUMP JUMPDEST PUSH1 0x0 PUSH1 0x20 PUSH1 0x1F DUP4 ADD DIV SWAP1 POP SWAP2 SWAP1 POP JUMP JUMPDEST PUSH1 0x0 DUP3 DUP3 SHL SWAP1 POP SWAP3 SWAP2 POP POP JUMP JUMPDEST PUSH1 0x0 PUSH1 0x8 DUP4 MUL PUSH2 0x53A PUSH32 0xFFFFFFFFFFFFFFFFFFFFFFFFFFFFFFFFFFFFFFFFFFFFFFFFFFFFFFFFFFFFFFFF DUP3 PUSH2 0x4FD JUMP JUMPDEST PUSH2 0x544 DUP7 DUP4 PUSH2 0x4FD JUMP JUMPDEST SWAP6 POP DUP1 NOT DUP5 AND SWAP4 POP DUP1 DUP7 AND DUP5 OR SWAP3 POP POP POP SWAP4 SWAP3 POP POP POP JUMP JUMPDEST PUSH1 0x0 DUP2 SWAP1 POP SWAP2 SWAP1 POP JUMP JUMPDEST PUSH1 0x0 PUSH2 0x581 PUSH2 0x57C PUSH2 0x577 DUP5 PUSH2 0x213 JUMP JUMPDEST PUSH2 0x55C JUMP JUMPDEST PUSH2 0x213 JUMP JUMPDEST SWAP1 POP SWAP2 SWAP1 POP JUMP JUMPDEST PUSH1 0x0 DUP2 SWAP1 POP SWAP2 SWAP1 POP JUMP JUMPDEST PUSH2 0x59B DUP4 PUSH2 0x566 JUMP JUMPDEST PUSH2 0x5AF PUSH2 0x5A7 DUP3 PUSH2 0x588 JUMP JUMPDEST DUP5 DUP5 SLOAD PUSH2 0x50A JUMP JUMPDEST DUP3 SSTORE POP POP POP POP JUMP JUMPDEST PUSH1 0x0 SWAP1 JUMP JUMPDEST PUSH2 0x5C4 PUSH2 0x5B7 JUMP JUMPDEST PUSH2 0x5CF DUP2 DUP5 DUP5 PUSH2 0x592 JUMP JUMPDEST POP POP POP JUMP JUMPDEST JUMPDEST DUP2 DUP2 LT ISZERO PUSH2 0x5F3 JUMPI PUSH2 0x5E8 PUSH1 0x0 DUP3 PUSH2 0x5BC JUMP JUMPDEST PUSH1 0x1 DUP2 ADD SWAP1 POP PUSH2 0x5D5 JUMP JUMPDEST POP POP JUMP JUMPDEST PUSH1 0x1F DUP3 GT ISZERO PUSH2 0x638 JUMPI PUSH2 0x609 DUP2 PUSH2 0x4D8 JUMP JUMPDEST PUSH2 0x612 DUP5 PUSH2 0x4ED JUMP JUMPDEST DUP2 ADD PUSH1 0x20 DUP6 LT ISZERO PUSH2 0x621 JUMPI DUP2 SWAP1 POP JUMPDEST PUSH2 0x635 PUSH2 0x62D DUP6 PUSH2 0x4ED JUMP JUMPDEST DUP4 ADD DUP3 PUSH2 0x5D4 JUMP JUMPDEST POP POP JUMPDEST POP POP POP JUMP JUMPDEST PUSH1 0x0 DUP3 DUP3 SHR SWAP1 POP SWAP3 SWAP2 POP POP JUMP JUMPDEST PUSH1 0x0 PUSH2 0x65B PUSH1 0x0 NOT DUP5 PUSH1 0x8 MUL PUSH2 0x63D JUMP JUMPDEST NOT DUP1 DUP4 AND SWAP2 POP POP SWAP3 SWAP2 POP POP JUMP JUMPDEST PUSH1 0x0 PUSH2 0x674 DUP4 DUP4 PUSH2 0x64A JUMP JUMPDEST SWAP2 POP DUP3 PUSH1 0x2 MUL DUP3 OR SWAP1 POP SWAP3 SWAP2 POP POP JUMP JUMPDEST PUSH2 0x68D DUP3 PUSH2 0x46D JUMP JUMPDEST PUSH8 0xFFFFFFFFFFFFFFFF DUP2 GT ISZERO PUSH2 0x6A6 JUMPI PUSH2 0x6A5 PUSH2 0x276 JUMP JUMPDEST JUMPDEST PUSH2 0x6B0 DUP3 SLOAD PUSH2 0x4A7 JUMP JUMPDEST PUSH2 0x6BB DUP3 DUP3 DUP6 PUSH2 0x5F7 JUMP JUMPDEST PUSH1 0x0 PUSH1 0x20 SWAP1 POP PUSH1 0x1F DUP4 GT PUSH1 0x1 DUP2 EQ PUSH2 0x6EE JUMPI PUSH1 0x0 DUP5 ISZERO PUSH2 0x6DC JUMPI DUP3 DUP8 ADD MLOAD SWAP1 POP JUMPDEST PUSH2 0x6E6 DUP6 DUP3 PUSH2 0x668 JUMP JUMPDEST DUP7 SSTORE POP PUSH2 0x74E JUMP JUMPDEST PUSH1 0x1F NOT DUP5 AND PUSH2 0x6FC DUP7 PUSH2 0x4D8 JUMP JUMPDEST PUSH1 0x0 JUMPDEST DUP3 DUP2 LT ISZERO PUSH2 0x724 JUMPI DUP5 DUP10 ADD MLOAD DUP3 SSTORE PUSH1 0x1 DUP3 ADD SWAP2 POP PUSH1 0x20 DUP6 ADD SWAP5 POP PUSH1 0x20 DUP2 ADD SWAP1 POP PUSH2 0x6FF JUMP JUMPDEST DUP7 DUP4 LT ISZERO PUSH2 0x741 JUMPI DUP5 DUP10 ADD MLOAD PUSH2 0x73D PUSH1 0x1F DUP10 AND DUP3 PUSH2 0x64A JUMP JUMPDEST DUP4 SSTORE POP JUMPDEST PUSH1 0x1 PUSH1 0x2 DUP9 MUL ADD DUP9 SSTORE POP POP POP JUMPDEST POP POP POP POP POP POP JUMP INVALID LOG2 PUSH5 0x6970667358 0x22 SLT KECCAK256 PUSH9 0xAE273EE47B9FA28101 0xE3 PUSH15 0x5358F63AF59CCE85762888FA5513CC CHAINID SWAP14 PUSH14 0xAD3064736F6C634300080F003300 "
		},
		"gasEstimates": {
			"creation": {
				"codeDepositCost": "386400",
				"executionCost": "424",
				"totalCost": "386824"
			},
			"external": {
				"": "1909",
				"foo(string,uint256)": "infinite",
				"x()": "2407"
			}
		},
		"methodIdentifiers": {
			"foo(string,uint256)": "24ccab8f",
			"x()": "0c55699c"
		}
	},
	"abi": [
		{
			"anonymous": false,
			"inputs": [
				{
					"indexed": false,
					"internalType": "string",
					"name": "message",
					"type": "string"
				}
			],
			"name": "Log",
			"type": "event"
		},
		{
			"stateMutability": "payable",
			"type": "fallback"
		},
		{
			"inputs": [
				{
					"internalType": "string",
					"name": "_message",
					"type": "string"
				},
				{
					"internalType": "uint256",
					"name": "_x",
					"type": "uint256"
				}
			],
			"name": "foo",
			"outputs": [
				{
					"internalType": "bool",
					"name": "",
					"type": "bool"
				},
				{
					"internalType": "uint256",
					"name": "",
					"type": "uint256"
				}
			],
			"stateMutability": "payable",
			"type": "function"
		},
		{
			"inputs": [],
			"name": "x",
			"outputs": [
				{
					"internalType": "uint256",
					"name": "",
					"type": "uint256"
				}
			],
			"stateMutability": "view",
			"type": "function"
		},
		{
			"stateMutability": "payable",
			"type": "receive"
		}
	]
}