{
	"contracts/TestCall.sol": {
		"Callee": {
			"abi": [
				{
					"anonymous": false,
					"inputs": [
						{
							"indexed": false,
							"internalType": "string",
							"name": "message",
							"type": "string"
						}
					],
					"name": "Log",
					"type": "event"
				},
				{
					"stateMutability": "payable",
					"type": "fallback"
				},
				{
					"inputs": [
						{
							"internalType": "string",
							"name": "_message",
							"type": "string"
						},
						{
							"internalType": "uint256",
							"name": "_x",
							"type": "uint256"
						}
					],
					"name": "foo",
					"outputs": [
						{
							"internalType": "bool",
							"name": "",
							"type": "bool"
						},
						{
							"internalType": "uint256",
							"name": "",
							"type": "uint256"
						}
					],
					"stateMutability": "payable",
					"type": "function"
				},
				{
					"inputs": [],
					"name": "x",
					"outputs": [
						{
							"internalType": "uint256",
							"name": "",
							"type": "uint256"
						}
					],
					"stateMutability": "view",
					"type": "function"
				}
			],
			"devdoc": {
				"kind": "dev",
				"methods": {},
				"version": 1
			},
			"evm": {
				"assembly": "    /* \"contracts/TestCall.sol\":65:448  contract Callee {... */\n  mstore(0x40, 0x80)\n  callvalue\n  dup1\n  iszero\n  tag_1\n  jumpi\n  0x00\n  dup1\n  revert\ntag_1:\n  pop\n  dataSize(sub_0)\n  dup1\n  dataOffset(sub_0)\n  0x00\n  codecopy\n  0x00\n  return\nstop\n\nsub_0: assembly {\n        /* \"contracts/TestCall.sol\":65:448  contract Callee {... */\n      mstore(0x40, 0x80)\n      jumpi(tag_1, lt(calldatasize, 0x04))\n      shr(0xe0, calldataload(0x00))\n      dup1\n      0x0c55699c\n      eq\n      tag_3\n      jumpi\n      dup1\n      0x24ccab8f\n      eq\n      tag_4\n      jumpi\n      jump(tag_2)\n    tag_1:\n    tag_2:\n        /* \"contracts/TestCall.sol\":212:238  Log(\"fallback was called\") */\n      0xcf34ef537ac33ee1ac626ca1587a0a7e8e51561e5514f8cb36afa1c5102b3bab\n      mload(0x40)\n      tag_7\n      swap1\n      tag_8\n      jump\t// in\n    tag_7:\n      mload(0x40)\n      dup1\n      swap2\n      sub\n      swap1\n      log1\n        /* \"contracts/TestCall.sol\":65:448  contract Callee {... */\n      stop\n        /* \"contracts/TestCall.sol\":115:131  uint256 public x */\n    tag_3:\n      callvalue\n      dup1\n      iszero\n      tag_9\n      jumpi\n      0x00\n      dup1\n      revert\n    tag_9:\n      pop\n      tag_10\n      tag_11\n      jump\t// in\n    tag_10:\n      mload(0x40)\n      tag_12\n      swap2\n      swap1\n      tag_13\n      jump\t// in\n    tag_12:\n      mload(0x40)\n      dup1\n      swap2\n      sub\n      swap1\n      return\n        /* \"contracts/TestCall.sol\":251:446  function foo(string memory _message, uint256 _x)... */\n    tag_4:\n      tag_14\n      0x04\n      dup1\n      calldatasize\n      sub\n      dup2\n      add\n      swap1\n      tag_15\n      swap2\n      swap1\n      tag_16\n      jump\t// in\n    tag_15:\n      tag_17\n      jump\t// in\n    tag_14:\n      mload(0x40)\n      tag_18\n      swap3\n      swap2\n      swap1\n      tag_19\n      jump\t// in\n    tag_18:\n      mload(0x40)\n      dup1\n      swap2\n      sub\n      swap1\n      return\n        /* \"contracts/TestCall.sol\":115:131  uint256 public x */\n    tag_11:\n      sload(0x01)\n      dup2\n      jump\t// out\n        /* \"contracts/TestCall.sol\":251:446  function foo(string memory _message, uint256 _x)... */\n    tag_17:\n        /* \"contracts/TestCall.sol\":350:354  bool */\n      0x00\n        /* \"contracts/TestCall.sol\":356:363  uint256 */\n      dup1\n        /* \"contracts/TestCall.sol\":389:397  _message */\n      dup4\n        /* \"contracts/TestCall.sol\":379:386  message */\n      0x00\n        /* \"contracts/TestCall.sol\":379:397  message = _message */\n      swap1\n      dup2\n      tag_21\n      swap2\n      swap1\n      tag_22\n      jump\t// in\n    tag_21:\n      pop\n        /* \"contracts/TestCall.sol\":411:413  _x */\n      dup3\n        /* \"contracts/TestCall.sol\":407:408  x */\n      0x01\n        /* \"contracts/TestCall.sol\":407:413  x = _x */\n      dup2\n      swap1\n      sstore\n      pop\n        /* \"contracts/TestCall.sol\":431:435  true */\n      0x01\n        /* \"contracts/TestCall.sol\":437:438  1 */\n      dup1\n        /* \"contracts/TestCall.sol\":423:439  return (true, 1) */\n      swap2\n      pop\n      swap2\n      pop\n        /* \"contracts/TestCall.sol\":251:446  function foo(string memory _message, uint256 _x)... */\n      swap3\n      pop\n      swap3\n      swap1\n      pop\n      jump\t// out\n        /* \"#utility.yul\":7:176   */\n    tag_23:\n        /* \"#utility.yul\":91:102   */\n      0x00\n        /* \"#utility.yul\":125:131   */\n      dup3\n        /* \"#utility.yul\":120:123   */\n      dup3\n        /* \"#utility.yul\":113:132   */\n      mstore\n        /* \"#utility.yul\":165:169   */\n      0x20\n        /* \"#utility.yul\":160:163   */\n      dup3\n        /* \"#utility.yul\":156:170   */\n      add\n        /* \"#utility.yul\":141:170   */\n      swap1\n      pop\n        /* \"#utility.yul\":7:176   */\n      swap3\n      swap2\n      pop\n      pop\n      jump\t// out\n        /* \"#utility.yul\":182:351   */\n    tag_24:\n        /* \"#utility.yul\":322:343   */\n      0x66616c6c6261636b207761732063616c6c656400000000000000000000000000\n        /* \"#utility.yul\":318:319   */\n      0x00\n        /* \"#utility.yul\":310:316   */\n      dup3\n        /* \"#utility.yul\":306:320   */\n      add\n        /* \"#utility.yul\":299:344   */\n      mstore\n        /* \"#utility.yul\":182:351   */\n      pop\n      jump\t// out\n        /* \"#utility.yul\":357:723   */\n    tag_25:\n        /* \"#utility.yul\":499:502   */\n      0x00\n        /* \"#utility.yul\":520:587   */\n      tag_67\n        /* \"#utility.yul\":584:586   */\n      0x13\n        /* \"#utility.yul\":579:582   */\n      dup4\n        /* \"#utility.yul\":520:587   */\n      tag_23\n      jump\t// in\n    tag_67:\n        /* \"#utility.yul\":513:587   */\n      swap2\n      pop\n        /* \"#utility.yul\":596:689   */\n      tag_68\n        /* \"#utility.yul\":685:688   */\n      dup3\n        /* \"#utility.yul\":596:689   */\n      tag_24\n      jump\t// in\n    tag_68:\n        /* \"#utility.yul\":714:716   */\n      0x20\n        /* \"#utility.yul\":709:712   */\n      dup3\n        /* \"#utility.yul\":705:717   */\n      add\n        /* \"#utility.yul\":698:717   */\n      swap1\n      pop\n        /* \"#utility.yul\":357:723   */\n      swap2\n      swap1\n      pop\n      jump\t// out\n        /* \"#utility.yul\":729:1148   */\n    tag_8:\n        /* \"#utility.yul\":895:899   */\n      0x00\n        /* \"#utility.yul\":933:935   */\n      0x20\n        /* \"#utility.yul\":922:931   */\n      dup3\n        /* \"#utility.yul\":918:936   */\n      add\n        /* \"#utility.yul\":910:936   */\n      swap1\n      pop\n        /* \"#utility.yul\":982:991   */\n      dup2\n        /* \"#utility.yul\":976:980   */\n      dup2\n        /* \"#utility.yul\":972:992   */\n      sub\n        /* \"#utility.yul\":968:969   */\n      0x00\n        /* \"#utility.yul\":957:966   */\n      dup4\n        /* \"#utility.yul\":953:970   */\n      add\n        /* \"#utility.yul\":946:993   */\n      mstore\n        /* \"#utility.yul\":1010:1141   */\n      tag_70\n        /* \"#utility.yul\":1136:1140   */\n      dup2\n        /* \"#utility.yul\":1010:1141   */\n      tag_25\n      jump\t// in\n    tag_70:\n        /* \"#utility.yul\":1002:1141   */\n      swap1\n      pop\n        /* \"#utility.yul\":729:1148   */\n      swap2\n      swap1\n      pop\n      jump\t// out\n        /* \"#utility.yul\":1154:1231   */\n    tag_26:\n        /* \"#utility.yul\":1191:1198   */\n      0x00\n        /* \"#utility.yul\":1220:1225   */\n      dup2\n        /* \"#utility.yul\":1209:1225   */\n      swap1\n      pop\n        /* \"#utility.yul\":1154:1231   */\n      swap2\n      swap1\n      pop\n      jump\t// out\n        /* \"#utility.yul\":1237:1355   */\n    tag_27:\n        /* \"#utility.yul\":1324:1348   */\n      tag_73\n        /* \"#utility.yul\":1342:1347   */\n      dup2\n        /* \"#utility.yul\":1324:1348   */\n      tag_26\n      jump\t// in\n    tag_73:\n        /* \"#utility.yul\":1319:1322   */\n      dup3\n        /* \"#utility.yul\":1312:1349   */\n      mstore\n        /* \"#utility.yul\":1237:1355   */\n      pop\n      pop\n      jump\t// out\n        /* \"#utility.yul\":1361:1583   */\n    tag_13:\n        /* \"#utility.yul\":1454:1458   */\n      0x00\n        /* \"#utility.yul\":1492:1494   */\n      0x20\n        /* \"#utility.yul\":1481:1490   */\n      dup3\n        /* \"#utility.yul\":1477:1495   */\n      add\n        /* \"#utility.yul\":1469:1495   */\n      swap1\n      pop\n        /* \"#utility.yul\":1505:1576   */\n      tag_75\n        /* \"#utility.yul\":1573:1574   */\n      0x00\n        /* \"#utility.yul\":1562:1571   */\n      dup4\n        /* \"#utility.yul\":1558:1575   */\n      add\n        /* \"#utility.yul\":1549:1555   */\n      dup5\n        /* \"#utility.yul\":1505:1576   */\n      tag_27\n      jump\t// in\n    tag_75:\n        /* \"#utility.yul\":1361:1583   */\n      swap3\n      swap2\n      pop\n      pop\n      jump\t// out\n        /* \"#utility.yul\":1589:1664   */\n    tag_28:\n        /* \"#utility.yul\":1622:1628   */\n      0x00\n        /* \"#utility.yul\":1655:1657   */\n      0x40\n        /* \"#utility.yul\":1649:1658   */\n      mload\n        /* \"#utility.yul\":1639:1658   */\n      swap1\n      pop\n        /* \"#utility.yul\":1589:1664   */\n      swap1\n      jump\t// out\n        /* \"#utility.yul\":1670:1787   */\n    tag_29:\n        /* \"#utility.yul\":1779:1780   */\n      0x00\n        /* \"#utility.yul\":1776:1777   */\n      dup1\n        /* \"#utility.yul\":1769:1781   */\n      revert\n        /* \"#utility.yul\":1793:1910   */\n    tag_30:\n        /* \"#utility.yul\":1902:1903   */\n      0x00\n        /* \"#utility.yul\":1899:1900   */\n      dup1\n        /* \"#utility.yul\":1892:1904   */\n      revert\n        /* \"#utility.yul\":1916:2033   */\n    tag_31:\n        /* \"#utility.yul\":2025:2026   */\n      0x00\n        /* \"#utility.yul\":2022:2023   */\n      dup1\n        /* \"#utility.yul\":2015:2027   */\n      revert\n        /* \"#utility.yul\":2039:2156   */\n    tag_32:\n        /* \"#utility.yul\":2148:2149   */\n      0x00\n        /* \"#utility.yul\":2145:2146   */\n      dup1\n        /* \"#utility.yul\":2138:2150   */\n      revert\n        /* \"#utility.yul\":2162:2264   */\n    tag_33:\n        /* \"#utility.yul\":2203:2209   */\n      0x00\n        /* \"#utility.yul\":2254:2256   */\n      0x1f\n        /* \"#utility.yul\":2250:2257   */\n      not\n        /* \"#utility.yul\":2245:2247   */\n      0x1f\n        /* \"#utility.yul\":2238:2243   */\n      dup4\n        /* \"#utility.yul\":2234:2248   */\n      add\n        /* \"#utility.yul\":2230:2258   */\n      and\n        /* \"#utility.yul\":2220:2258   */\n      swap1\n      pop\n        /* \"#utility.yul\":2162:2264   */\n      swap2\n      swap1\n      pop\n      jump\t// out\n        /* \"#utility.yul\":2270:2450   */\n    tag_34:\n        /* \"#utility.yul\":2318:2395   */\n      0x4e487b7100000000000000000000000000000000000000000000000000000000\n        /* \"#utility.yul\":2315:2316   */\n      0x00\n        /* \"#utility.yul\":2308:2396   */\n      mstore\n        /* \"#utility.yul\":2415:2419   */\n      0x41\n        /* \"#utility.yul\":2412:2413   */\n      0x04\n        /* \"#utility.yul\":2405:2420   */\n      mstore\n        /* \"#utility.yul\":2439:2443   */\n      0x24\n        /* \"#utility.yul\":2436:2437   */\n      0x00\n        /* \"#utility.yul\":2429:2444   */\n      revert\n        /* \"#utility.yul\":2456:2737   */\n    tag_35:\n        /* \"#utility.yul\":2539:2566   */\n      tag_84\n        /* \"#utility.yul\":2561:2565   */\n      dup3\n        /* \"#utility.yul\":2539:2566   */\n      tag_33\n      jump\t// in\n    tag_84:\n        /* \"#utility.yul\":2531:2537   */\n      dup2\n        /* \"#utility.yul\":2527:2567   */\n      add\n        /* \"#utility.yul\":2669:2675   */\n      dup2\n        /* \"#utility.yul\":2657:2667   */\n      dup2\n        /* \"#utility.yul\":2654:2676   */\n      lt\n        /* \"#utility.yul\":2633:2651   */\n      0xffffffffffffffff\n        /* \"#utility.yul\":2621:2631   */\n      dup3\n        /* \"#utility.yul\":2618:2652   */\n      gt\n        /* \"#utility.yul\":2615:2677   */\n      or\n        /* \"#utility.yul\":2612:2700   */\n      iszero\n      tag_85\n      jumpi\n        /* \"#utility.yul\":2680:2698   */\n      tag_86\n      tag_34\n      jump\t// in\n    tag_86:\n        /* \"#utility.yul\":2612:2700   */\n    tag_85:\n        /* \"#utility.yul\":2720:2730   */\n      dup1\n        /* \"#utility.yul\":2716:2718   */\n      0x40\n        /* \"#utility.yul\":2709:2731   */\n      mstore\n        /* \"#utility.yul\":2499:2737   */\n      pop\n        /* \"#utility.yul\":2456:2737   */\n      pop\n      pop\n      jump\t// out\n        /* \"#utility.yul\":2743:2872   */\n    tag_36:\n        /* \"#utility.yul\":2777:2783   */\n      0x00\n        /* \"#utility.yul\":2804:2824   */\n      tag_88\n      tag_28\n      jump\t// in\n    tag_88:\n        /* \"#utility.yul\":2794:2824   */\n      swap1\n      pop\n        /* \"#utility.yul\":2833:2866   */\n      tag_89\n        /* \"#utility.yul\":2861:2865   */\n      dup3\n        /* \"#utility.yul\":2853:2859   */\n      dup3\n        /* \"#utility.yul\":2833:2866   */\n      tag_35\n      jump\t// in\n    tag_89:\n        /* \"#utility.yul\":2743:2872   */\n      swap2\n      swap1\n      pop\n      jump\t// out\n        /* \"#utility.yul\":2878:3186   */\n    tag_37:\n        /* \"#utility.yul\":2940:2944   */\n      0x00\n        /* \"#utility.yul\":3030:3048   */\n      0xffffffffffffffff\n        /* \"#utility.yul\":3022:3028   */\n      dup3\n        /* \"#utility.yul\":3019:3049   */\n      gt\n        /* \"#utility.yul\":3016:3072   */\n      iszero\n      tag_91\n      jumpi\n        /* \"#utility.yul\":3052:3070   */\n      tag_92\n      tag_34\n      jump\t// in\n    tag_92:\n        /* \"#utility.yul\":3016:3072   */\n    tag_91:\n        /* \"#utility.yul\":3090:3119   */\n      tag_93\n        /* \"#utility.yul\":3112:3118   */\n      dup3\n        /* \"#utility.yul\":3090:3119   */\n      tag_33\n      jump\t// in\n    tag_93:\n        /* \"#utility.yul\":3082:3119   */\n      swap1\n      pop\n        /* \"#utility.yul\":3174:3178   */\n      0x20\n        /* \"#utility.yul\":3168:3172   */\n      dup2\n        /* \"#utility.yul\":3164:3179   */\n      add\n        /* \"#utility.yul\":3156:3179   */\n      swap1\n      pop\n        /* \"#utility.yul\":2878:3186   */\n      swap2\n      swap1\n      pop\n      jump\t// out\n        /* \"#utility.yul\":3192:3346   */\n    tag_38:\n        /* \"#utility.yul\":3276:3282   */\n      dup3\n        /* \"#utility.yul\":3271:3274   */\n      dup2\n        /* \"#utility.yul\":3266:3269   */\n      dup4\n        /* \"#utility.yul\":3253:3283   */\n      calldatacopy\n        /* \"#utility.yul\":3338:3339   */\n      0x00\n        /* \"#utility.yul\":3329:3335   */\n      dup4\n        /* \"#utility.yul\":3324:3327   */\n      dup4\n        /* \"#utility.yul\":3320:3336   */\n      add\n        /* \"#utility.yul\":3313:3340   */\n      mstore\n        /* \"#utility.yul\":3192:3346   */\n      pop\n      pop\n      pop\n      jump\t// out\n        /* \"#utility.yul\":3352:3764   */\n    tag_39:\n        /* \"#utility.yul\":3430:3435   */\n      0x00\n        /* \"#utility.yul\":3455:3521   */\n      tag_96\n        /* \"#utility.yul\":3471:3520   */\n      tag_97\n        /* \"#utility.yul\":3513:3519   */\n      dup5\n        /* \"#utility.yul\":3471:3520   */\n      tag_37\n      jump\t// in\n    tag_97:\n        /* \"#utility.yul\":3455:3521   */\n      tag_36\n      jump\t// in\n    tag_96:\n        /* \"#utility.yul\":3446:3521   */\n      swap1\n      pop\n        /* \"#utility.yul\":3544:3550   */\n      dup3\n        /* \"#utility.yul\":3537:3542   */\n      dup2\n        /* \"#utility.yul\":3530:3551   */\n      mstore\n        /* \"#utility.yul\":3582:3586   */\n      0x20\n        /* \"#utility.yul\":3575:3580   */\n      dup2\n        /* \"#utility.yul\":3571:3587   */\n      add\n        /* \"#utility.yul\":3620:3623   */\n      dup5\n        /* \"#utility.yul\":3611:3617   */\n      dup5\n        /* \"#utility.yul\":3606:3609   */\n      dup5\n        /* \"#utility.yul\":3602:3618   */\n      add\n        /* \"#utility.yul\":3599:3624   */\n      gt\n        /* \"#utility.yul\":3596:3708   */\n      iszero\n      tag_98\n      jumpi\n        /* \"#utility.yul\":3627:3706   */\n      tag_99\n      tag_32\n      jump\t// in\n    tag_99:\n        /* \"#utility.yul\":3596:3708   */\n    tag_98:\n        /* \"#utility.yul\":3717:3758   */\n      tag_100\n        /* \"#utility.yul\":3751:3757   */\n      dup5\n        /* \"#utility.yul\":3746:3749   */\n      dup3\n        /* \"#utility.yul\":3741:3744   */\n      dup6\n        /* \"#utility.yul\":3717:3758   */\n      tag_38\n      jump\t// in\n    tag_100:\n        /* \"#utility.yul\":3436:3764   */\n      pop\n        /* \"#utility.yul\":3352:3764   */\n      swap4\n      swap3\n      pop\n      pop\n      pop\n      jump\t// out\n        /* \"#utility.yul\":3784:4124   */\n    tag_40:\n        /* \"#utility.yul\":3840:3845   */\n      0x00\n        /* \"#utility.yul\":3889:3892   */\n      dup3\n        /* \"#utility.yul\":3882:3886   */\n      0x1f\n        /* \"#utility.yul\":3874:3880   */\n      dup4\n        /* \"#utility.yul\":3870:3887   */\n      add\n        /* \"#utility.yul\":3866:3893   */\n      slt\n        /* \"#utility.yul\":3856:3978   */\n      tag_102\n      jumpi\n        /* \"#utility.yul\":3897:3976   */\n      tag_103\n      tag_31\n      jump\t// in\n    tag_103:\n        /* \"#utility.yul\":3856:3978   */\n    tag_102:\n        /* \"#utility.yul\":4014:4020   */\n      dup2\n        /* \"#utility.yul\":4001:4021   */\n      calldataload\n        /* \"#utility.yul\":4039:4118   */\n      tag_104\n        /* \"#utility.yul\":4114:4117   */\n      dup5\n        /* \"#utility.yul\":4106:4112   */\n      dup3\n        /* \"#utility.yul\":4099:4103   */\n      0x20\n        /* \"#utility.yul\":4091:4097   */\n      dup7\n        /* \"#utility.yul\":4087:4104   */\n      add\n        /* \"#utility.yul\":4039:4118   */\n      tag_39\n      jump\t// in\n    tag_104:\n        /* \"#utility.yul\":4030:4118   */\n      swap2\n      pop\n        /* \"#utility.yul\":3846:4124   */\n      pop\n        /* \"#utility.yul\":3784:4124   */\n      swap3\n      swap2\n      pop\n      pop\n      jump\t// out\n        /* \"#utility.yul\":4130:4252   */\n    tag_41:\n        /* \"#utility.yul\":4203:4227   */\n      tag_106\n        /* \"#utility.yul\":4221:4226   */\n      dup2\n        /* \"#utility.yul\":4203:4227   */\n      tag_26\n      jump\t// in\n    tag_106:\n        /* \"#utility.yul\":4196:4201   */\n      dup2\n        /* \"#utility.yul\":4193:4228   */\n      eq\n        /* \"#utility.yul\":4183:4246   */\n      tag_107\n      jumpi\n        /* \"#utility.yul\":4242:4243   */\n      0x00\n        /* \"#utility.yul\":4239:4240   */\n      dup1\n        /* \"#utility.yul\":4232:4244   */\n      revert\n        /* \"#utility.yul\":4183:4246   */\n    tag_107:\n        /* \"#utility.yul\":4130:4252   */\n      pop\n      jump\t// out\n        /* \"#utility.yul\":4258:4397   */\n    tag_42:\n        /* \"#utility.yul\":4304:4309   */\n      0x00\n        /* \"#utility.yul\":4342:4348   */\n      dup2\n        /* \"#utility.yul\":4329:4349   */\n      calldataload\n        /* \"#utility.yul\":4320:4349   */\n      swap1\n      pop\n        /* \"#utility.yul\":4358:4391   */\n      tag_109\n        /* \"#utility.yul\":4385:4390   */\n      dup2\n        /* \"#utility.yul\":4358:4391   */\n      tag_41\n      jump\t// in\n    tag_109:\n        /* \"#utility.yul\":4258:4397   */\n      swap3\n      swap2\n      pop\n      pop\n      jump\t// out\n        /* \"#utility.yul\":4403:5057   */\n    tag_16:\n        /* \"#utility.yul\":4481:4487   */\n      0x00\n        /* \"#utility.yul\":4489:4495   */\n      dup1\n        /* \"#utility.yul\":4538:4540   */\n      0x40\n        /* \"#utility.yul\":4526:4535   */\n      dup4\n        /* \"#utility.yul\":4517:4524   */\n      dup6\n        /* \"#utility.yul\":4513:4536   */\n      sub\n        /* \"#utility.yul\":4509:4541   */\n      slt\n        /* \"#utility.yul\":4506:4625   */\n      iszero\n      tag_111\n      jumpi\n        /* \"#utility.yul\":4544:4623   */\n      tag_112\n      tag_29\n      jump\t// in\n    tag_112:\n        /* \"#utility.yul\":4506:4625   */\n    tag_111:\n        /* \"#utility.yul\":4692:4693   */\n      0x00\n        /* \"#utility.yul\":4681:4690   */\n      dup4\n        /* \"#utility.yul\":4677:4694   */\n      add\n        /* \"#utility.yul\":4664:4695   */\n      calldataload\n        /* \"#utility.yul\":4722:4740   */\n      0xffffffffffffffff\n        /* \"#utility.yul\":4714:4720   */\n      dup2\n        /* \"#utility.yul\":4711:4741   */\n      gt\n        /* \"#utility.yul\":4708:4825   */\n      iszero\n      tag_113\n      jumpi\n        /* \"#utility.yul\":4744:4823   */\n      tag_114\n      tag_30\n      jump\t// in\n    tag_114:\n        /* \"#utility.yul\":4708:4825   */\n    tag_113:\n        /* \"#utility.yul\":4849:4912   */\n      tag_115\n        /* \"#utility.yul\":4904:4911   */\n      dup6\n        /* \"#utility.yul\":4895:4901   */\n      dup3\n        /* \"#utility.yul\":4884:4893   */\n      dup7\n        /* \"#utility.yul\":4880:4902   */\n      add\n        /* \"#utility.yul\":4849:4912   */\n      tag_40\n      jump\t// in\n    tag_115:\n        /* \"#utility.yul\":4839:4912   */\n      swap3\n      pop\n        /* \"#utility.yul\":4635:4922   */\n      pop\n        /* \"#utility.yul\":4961:4963   */\n      0x20\n        /* \"#utility.yul\":4987:5040   */\n      tag_116\n        /* \"#utility.yul\":5032:5039   */\n      dup6\n        /* \"#utility.yul\":5023:5029   */\n      dup3\n        /* \"#utility.yul\":5012:5021   */\n      dup7\n        /* \"#utility.yul\":5008:5030   */\n      add\n        /* \"#utility.yul\":4987:5040   */\n      tag_42\n      jump\t// in\n    tag_116:\n        /* \"#utility.yul\":4977:5040   */\n      swap2\n      pop\n        /* \"#utility.yul\":4932:5050   */\n      pop\n        /* \"#utility.yul\":4403:5057   */\n      swap3\n      pop\n      swap3\n      swap1\n      pop\n      jump\t// out\n        /* \"#utility.yul\":5063:5153   */\n    tag_43:\n        /* \"#utility.yul\":5097:5104   */\n      0x00\n        /* \"#utility.yul\":5140:5145   */\n      dup2\n        /* \"#utility.yul\":5133:5146   */\n      iszero\n        /* \"#utility.yul\":5126:5147   */\n      iszero\n        /* \"#utility.yul\":5115:5147   */\n      swap1\n      pop\n        /* \"#utility.yul\":5063:5153   */\n      swap2\n      swap1\n      pop\n      jump\t// out\n        /* \"#utility.yul\":5159:5268   */\n    tag_44:\n        /* \"#utility.yul\":5240:5261   */\n      tag_119\n        /* \"#utility.yul\":5255:5260   */\n      dup2\n        /* \"#utility.yul\":5240:5261   */\n      tag_43\n      jump\t// in\n    tag_119:\n        /* \"#utility.yul\":5235:5238   */\n      dup3\n        /* \"#utility.yul\":5228:5262   */\n      mstore\n        /* \"#utility.yul\":5159:5268   */\n      pop\n      pop\n      jump\t// out\n        /* \"#utility.yul\":5274:5594   */\n    tag_19:\n        /* \"#utility.yul\":5389:5393   */\n      0x00\n        /* \"#utility.yul\":5427:5429   */\n      0x40\n        /* \"#utility.yul\":5416:5425   */\n      dup3\n        /* \"#utility.yul\":5412:5430   */\n      add\n        /* \"#utility.yul\":5404:5430   */\n      swap1\n      pop\n        /* \"#utility.yul\":5440:5505   */\n      tag_121\n        /* \"#utility.yul\":5502:5503   */\n      0x00\n        /* \"#utility.yul\":5491:5500   */\n      dup4\n        /* \"#utility.yul\":5487:5504   */\n      add\n        /* \"#utility.yul\":5478:5484   */\n      dup6\n        /* \"#utility.yul\":5440:5505   */\n      tag_44\n      jump\t// in\n    tag_121:\n        /* \"#utility.yul\":5515:5587   */\n      tag_122\n        /* \"#utility.yul\":5583:5585   */\n      0x20\n        /* \"#utility.yul\":5572:5581   */\n      dup4\n        /* \"#utility.yul\":5568:5586   */\n      add\n        /* \"#utility.yul\":5559:5565   */\n      dup5\n        /* \"#utility.yul\":5515:5587   */\n      tag_27\n      jump\t// in\n    tag_122:\n        /* \"#utility.yul\":5274:5594   */\n      swap4\n      swap3\n      pop\n      pop\n      pop\n      jump\t// out\n        /* \"#utility.yul\":5600:5699   */\n    tag_45:\n        /* \"#utility.yul\":5652:5658   */\n      0x00\n        /* \"#utility.yul\":5686:5691   */\n      dup2\n        /* \"#utility.yul\":5680:5692   */\n      mload\n        /* \"#utility.yul\":5670:5692   */\n      swap1\n      pop\n        /* \"#utility.yul\":5600:5699   */\n      swap2\n      swap1\n      pop\n      jump\t// out\n        /* \"#utility.yul\":5705:5885   */\n    tag_46:\n        /* \"#utility.yul\":5753:5830   */\n      0x4e487b7100000000000000000000000000000000000000000000000000000000\n        /* \"#utility.yul\":5750:5751   */\n      0x00\n        /* \"#utility.yul\":5743:5831   */\n      mstore\n        /* \"#utility.yul\":5850:5854   */\n      0x22\n        /* \"#utility.yul\":5847:5848   */\n      0x04\n        /* \"#utility.yul\":5840:5855   */\n      mstore\n        /* \"#utility.yul\":5874:5878   */\n      0x24\n        /* \"#utility.yul\":5871:5872   */\n      0x00\n        /* \"#utility.yul\":5864:5879   */\n      revert\n        /* \"#utility.yul\":5891:6211   */\n    tag_47:\n        /* \"#utility.yul\":5935:5941   */\n      0x00\n        /* \"#utility.yul\":5972:5973   */\n      0x02\n        /* \"#utility.yul\":5966:5970   */\n      dup3\n        /* \"#utility.yul\":5962:5974   */\n      div\n        /* \"#utility.yul\":5952:5974   */\n      swap1\n      pop\n        /* \"#utility.yul\":6019:6020   */\n      0x01\n        /* \"#utility.yul\":6013:6017   */\n      dup3\n        /* \"#utility.yul\":6009:6021   */\n      and\n        /* \"#utility.yul\":6040:6058   */\n      dup1\n        /* \"#utility.yul\":6030:6111   */\n      tag_126\n      jumpi\n        /* \"#utility.yul\":6096:6100   */\n      0x7f\n        /* \"#utility.yul\":6088:6094   */\n      dup3\n        /* \"#utility.yul\":6084:6101   */\n      and\n        /* \"#utility.yul\":6074:6101   */\n      swap2\n      pop\n        /* \"#utility.yul\":6030:6111   */\n    tag_126:\n        /* \"#utility.yul\":6158:6160   */\n      0x20\n        /* \"#utility.yul\":6150:6156   */\n      dup3\n        /* \"#utility.yul\":6147:6161   */\n      lt\n        /* \"#utility.yul\":6127:6145   */\n      dup2\n        /* \"#utility.yul\":6124:6162   */\n      sub\n        /* \"#utility.yul\":6121:6205   */\n      tag_127\n      jumpi\n        /* \"#utility.yul\":6177:6195   */\n      tag_128\n      tag_46\n      jump\t// in\n    tag_128:\n        /* \"#utility.yul\":6121:6205   */\n    tag_127:\n        /* \"#utility.yul\":5942:6211   */\n      pop\n        /* \"#utility.yul\":5891:6211   */\n      swap2\n      swap1\n      pop\n      jump\t// out\n        /* \"#utility.yul\":6217:6358   */\n    tag_48:\n        /* \"#utility.yul\":6266:6270   */\n      0x00\n        /* \"#utility.yul\":6289:6292   */\n      dup2\n        /* \"#utility.yul\":6281:6292   */\n      swap1\n      pop\n        /* \"#utility.yul\":6312:6315   */\n      dup2\n        /* \"#utility.yul\":6309:6310   */\n      0x00\n        /* \"#utility.yul\":6302:6316   */\n      mstore\n        /* \"#utility.yul\":6346:6350   */\n      0x20\n        /* \"#utility.yul\":6343:6344   */\n      0x00\n        /* \"#utility.yul\":6333:6351   */\n      keccak256\n        /* \"#utility.yul\":6325:6351   */\n      swap1\n      pop\n        /* \"#utility.yul\":6217:6358   */\n      swap2\n      swap1\n      pop\n      jump\t// out\n        /* \"#utility.yul\":6364:6457   */\n    tag_49:\n        /* \"#utility.yul\":6401:6407   */\n      0x00\n        /* \"#utility.yul\":6448:6450   */\n      0x20\n        /* \"#utility.yul\":6443:6445   */\n      0x1f\n        /* \"#utility.yul\":6436:6441   */\n      dup4\n        /* \"#utility.yul\":6432:6446   */\n      add\n        /* \"#utility.yul\":6428:6451   */\n      div\n        /* \"#utility.yul\":6418:6451   */\n      swap1\n      pop\n        /* \"#utility.yul\":6364:6457   */\n      swap2\n      swap1\n      pop\n      jump\t// out\n        /* \"#utility.yul\":6463:6570   */\n    tag_50:\n        /* \"#utility.yul\":6507:6515   */\n      0x00\n        /* \"#utility.yul\":6557:6562   */\n      dup3\n        /* \"#utility.yul\":6551:6555   */\n      dup3\n        /* \"#utility.yul\":6547:6563   */\n      shl\n        /* \"#utility.yul\":6526:6563   */\n      swap1\n      pop\n        /* \"#utility.yul\":6463:6570   */\n      swap3\n      swap2\n      pop\n      pop\n      jump\t// out\n        /* \"#utility.yul\":6576:6969   */\n    tag_51:\n        /* \"#utility.yul\":6645:6651   */\n      0x00\n        /* \"#utility.yul\":6695:6696   */\n      0x08\n        /* \"#utility.yul\":6683:6693   */\n      dup4\n        /* \"#utility.yul\":6679:6697   */\n      mul\n        /* \"#utility.yul\":6718:6815   */\n      tag_133\n        /* \"#utility.yul\":6748:6814   */\n      0xffffffffffffffffffffffffffffffffffffffffffffffffffffffffffffffff\n        /* \"#utility.yul\":6737:6746   */\n      dup3\n        /* \"#utility.yul\":6718:6815   */\n      tag_50\n      jump\t// in\n    tag_133:\n        /* \"#utility.yul\":6836:6875   */\n      tag_134\n        /* \"#utility.yul\":6866:6874   */\n      dup7\n        /* \"#utility.yul\":6855:6864   */\n      dup4\n        /* \"#utility.yul\":6836:6875   */\n      tag_50\n      jump\t// in\n    tag_134:\n        /* \"#utility.yul\":6824:6875   */\n      swap6\n      pop\n        /* \"#utility.yul\":6908:6912   */\n      dup1\n        /* \"#utility.yul\":6904:6913   */\n      not\n        /* \"#utility.yul\":6897:6902   */\n      dup5\n        /* \"#utility.yul\":6893:6914   */\n      and\n        /* \"#utility.yul\":6884:6914   */\n      swap4\n      pop\n        /* \"#utility.yul\":6957:6961   */\n      dup1\n        /* \"#utility.yul\":6947:6955   */\n      dup7\n        /* \"#utility.yul\":6943:6962   */\n      and\n        /* \"#utility.yul\":6936:6941   */\n      dup5\n        /* \"#utility.yul\":6933:6963   */\n      or\n        /* \"#utility.yul\":6923:6963   */\n      swap3\n      pop\n        /* \"#utility.yul\":6652:6969   */\n      pop\n      pop\n        /* \"#utility.yul\":6576:6969   */\n      swap4\n      swap3\n      pop\n      pop\n      pop\n      jump\t// out\n        /* \"#utility.yul\":6975:7035   */\n    tag_52:\n        /* \"#utility.yul\":7003:7006   */\n      0x00\n        /* \"#utility.yul\":7024:7029   */\n      dup2\n        /* \"#utility.yul\":7017:7029   */\n      swap1\n      pop\n        /* \"#utility.yul\":6975:7035   */\n      swap2\n      swap1\n      pop\n      jump\t// out\n        /* \"#utility.yul\":7041:7183   */\n    tag_53:\n        /* \"#utility.yul\":7091:7100   */\n      0x00\n        /* \"#utility.yul\":7124:7177   */\n      tag_137\n        /* \"#utility.yul\":7142:7176   */\n      tag_138\n        /* \"#utility.yul\":7151:7175   */\n      tag_139\n        /* \"#utility.yul\":7169:7174   */\n      dup5\n        /* \"#utility.yul\":7151:7175   */\n      tag_26\n      jump\t// in\n    tag_139:\n        /* \"#utility.yul\":7142:7176   */\n      tag_52\n      jump\t// in\n    tag_138:\n        /* \"#utility.yul\":7124:7177   */\n      tag_26\n      jump\t// in\n    tag_137:\n        /* \"#utility.yul\":7111:7177   */\n      swap1\n      pop\n        /* \"#utility.yul\":7041:7183   */\n      swap2\n      swap1\n      pop\n      jump\t// out\n        /* \"#utility.yul\":7189:7264   */\n    tag_54:\n        /* \"#utility.yul\":7232:7235   */\n      0x00\n        /* \"#utility.yul\":7253:7258   */\n      dup2\n        /* \"#utility.yul\":7246:7258   */\n      swap1\n      pop\n        /* \"#utility.yul\":7189:7264   */\n      swap2\n      swap1\n      pop\n      jump\t// out\n        /* \"#utility.yul\":7270:7539   */\n    tag_55:\n        /* \"#utility.yul\":7380:7419   */\n      tag_142\n        /* \"#utility.yul\":7411:7418   */\n      dup4\n        /* \"#utility.yul\":7380:7419   */\n      tag_53\n      jump\t// in\n    tag_142:\n        /* \"#utility.yul\":7441:7532   */\n      tag_143\n        /* \"#utility.yul\":7490:7531   */\n      tag_144\n        /* \"#utility.yul\":7514:7530   */\n      dup3\n        /* \"#utility.yul\":7490:7531   */\n      tag_54\n      jump\t// in\n    tag_144:\n        /* \"#utility.yul\":7482:7488   */\n      dup5\n        /* \"#utility.yul\":7475:7479   */\n      dup5\n        /* \"#utility.yul\":7469:7480   */\n      sload\n        /* \"#utility.yul\":7441:7532   */\n      tag_51\n      jump\t// in\n    tag_143:\n        /* \"#utility.yul\":7435:7439   */\n      dup3\n        /* \"#utility.yul\":7428:7533   */\n      sstore\n        /* \"#utility.yul\":7346:7539   */\n      pop\n        /* \"#utility.yul\":7270:7539   */\n      pop\n      pop\n      pop\n      jump\t// out\n        /* \"#utility.yul\":7545:7618   */\n    tag_56:\n        /* \"#utility.yul\":7590:7593   */\n      0x00\n        /* \"#utility.yul\":7545:7618   */\n      swap1\n      jump\t// out\n        /* \"#utility.yul\":7624:7813   */\n    tag_57:\n        /* \"#utility.yul\":7701:7733   */\n      tag_147\n      tag_56\n      jump\t// in\n    tag_147:\n        /* \"#utility.yul\":7742:7807   */\n      tag_148\n        /* \"#utility.yul\":7800:7806   */\n      dup2\n        /* \"#utility.yul\":7792:7798   */\n      dup5\n        /* \"#utility.yul\":7786:7790   */\n      dup5\n        /* \"#utility.yul\":7742:7807   */\n      tag_55\n      jump\t// in\n    tag_148:\n        /* \"#utility.yul\":7677:7813   */\n      pop\n        /* \"#utility.yul\":7624:7813   */\n      pop\n      pop\n      jump\t// out\n        /* \"#utility.yul\":7819:8005   */\n    tag_58:\n        /* \"#utility.yul\":7879:7999   */\n    tag_150:\n        /* \"#utility.yul\":7896:7899   */\n      dup2\n        /* \"#utility.yul\":7889:7894   */\n      dup2\n        /* \"#utility.yul\":7886:7900   */\n      lt\n        /* \"#utility.yul\":7879:7999   */\n      iszero\n      tag_152\n      jumpi\n        /* \"#utility.yul\":7950:7989   */\n      tag_153\n        /* \"#utility.yul\":7987:7988   */\n      0x00\n        /* \"#utility.yul\":7980:7985   */\n      dup3\n        /* \"#utility.yul\":7950:7989   */\n      tag_57\n      jump\t// in\n    tag_153:\n        /* \"#utility.yul\":7923:7924   */\n      0x01\n        /* \"#utility.yul\":7916:7921   */\n      dup2\n        /* \"#utility.yul\":7912:7925   */\n      add\n        /* \"#utility.yul\":7903:7925   */\n      swap1\n      pop\n        /* \"#utility.yul\":7879:7999   */\n      jump(tag_150)\n    tag_152:\n        /* \"#utility.yul\":7819:8005   */\n      pop\n      pop\n      jump\t// out\n        /* \"#utility.yul\":8011:8554   */\n    tag_59:\n        /* \"#utility.yul\":8112:8114   */\n      0x1f\n        /* \"#utility.yul\":8107:8110   */\n      dup3\n        /* \"#utility.yul\":8104:8115   */\n      gt\n        /* \"#utility.yul\":8101:8547   */\n      iszero\n      tag_155\n      jumpi\n        /* \"#utility.yul\":8146:8184   */\n      tag_156\n        /* \"#utility.yul\":8178:8183   */\n      dup2\n        /* \"#utility.yul\":8146:8184   */\n      tag_48\n      jump\t// in\n    tag_156:\n        /* \"#utility.yul\":8230:8259   */\n      tag_157\n        /* \"#utility.yul\":8248:8258   */\n      dup5\n        /* \"#utility.yul\":8230:8259   */\n      tag_49\n      jump\t// in\n    tag_157:\n        /* \"#utility.yul\":8220:8228   */\n      dup2\n        /* \"#utility.yul\":8216:8260   */\n      add\n        /* \"#utility.yul\":8413:8415   */\n      0x20\n        /* \"#utility.yul\":8401:8411   */\n      dup6\n        /* \"#utility.yul\":8398:8416   */\n      lt\n        /* \"#utility.yul\":8395:8444   */\n      iszero\n      tag_158\n      jumpi\n        /* \"#utility.yul\":8434:8442   */\n      dup2\n        /* \"#utility.yul\":8419:8442   */\n      swap1\n      pop\n        /* \"#utility.yul\":8395:8444   */\n    tag_158:\n        /* \"#utility.yul\":8457:8537   */\n      tag_159\n        /* \"#utility.yul\":8513:8535   */\n      tag_160\n        /* \"#utility.yul\":8531:8534   */\n      dup6\n        /* \"#utility.yul\":8513:8535   */\n      tag_49\n      jump\t// in\n    tag_160:\n        /* \"#utility.yul\":8503:8511   */\n      dup4\n        /* \"#utility.yul\":8499:8536   */\n      add\n        /* \"#utility.yul\":8486:8497   */\n      dup3\n        /* \"#utility.yul\":8457:8537   */\n      tag_58\n      jump\t// in\n    tag_159:\n        /* \"#utility.yul\":8116:8547   */\n      pop\n      pop\n        /* \"#utility.yul\":8101:8547   */\n    tag_155:\n        /* \"#utility.yul\":8011:8554   */\n      pop\n      pop\n      pop\n      jump\t// out\n        /* \"#utility.yul\":8560:8677   */\n    tag_60:\n        /* \"#utility.yul\":8614:8622   */\n      0x00\n        /* \"#utility.yul\":8664:8669   */\n      dup3\n        /* \"#utility.yul\":8658:8662   */\n      dup3\n        /* \"#utility.yul\":8654:8670   */\n      shr\n        /* \"#utility.yul\":8633:8670   */\n      swap1\n      pop\n        /* \"#utility.yul\":8560:8677   */\n      swap3\n      swap2\n      pop\n      pop\n      jump\t// out\n        /* \"#utility.yul\":8683:8852   */\n    tag_61:\n        /* \"#utility.yul\":8727:8733   */\n      0x00\n        /* \"#utility.yul\":8760:8811   */\n      tag_163\n        /* \"#utility.yul\":8808:8809   */\n      0x00\n        /* \"#utility.yul\":8804:8810   */\n      not\n        /* \"#utility.yul\":8796:8801   */\n      dup5\n        /* \"#utility.yul\":8793:8794   */\n      0x08\n        /* \"#utility.yul\":8789:8802   */\n      mul\n        /* \"#utility.yul\":8760:8811   */\n      tag_60\n      jump\t// in\n    tag_163:\n        /* \"#utility.yul\":8756:8812   */\n      not\n        /* \"#utility.yul\":8841:8845   */\n      dup1\n        /* \"#utility.yul\":8835:8839   */\n      dup4\n        /* \"#utility.yul\":8831:8846   */\n      and\n        /* \"#utility.yul\":8821:8846   */\n      swap2\n      pop\n        /* \"#utility.yul\":8734:8852   */\n      pop\n        /* \"#utility.yul\":8683:8852   */\n      swap3\n      swap2\n      pop\n      pop\n      jump\t// out\n        /* \"#utility.yul\":8857:9152   */\n    tag_62:\n        /* \"#utility.yul\":8933:8937   */\n      0x00\n        /* \"#utility.yul\":9079:9108   */\n      tag_165\n        /* \"#utility.yul\":9104:9107   */\n      dup4\n        /* \"#utility.yul\":9098:9102   */\n      dup4\n        /* \"#utility.yul\":9079:9108   */\n      tag_61\n      jump\t// in\n    tag_165:\n        /* \"#utility.yul\":9071:9108   */\n      swap2\n      pop\n        /* \"#utility.yul\":9141:9144   */\n      dup3\n        /* \"#utility.yul\":9138:9139   */\n      0x02\n        /* \"#utility.yul\":9134:9145   */\n      mul\n        /* \"#utility.yul\":9128:9132   */\n      dup3\n        /* \"#utility.yul\":9125:9146   */\n      or\n        /* \"#utility.yul\":9117:9146   */\n      swap1\n      pop\n        /* \"#utility.yul\":8857:9152   */\n      swap3\n      swap2\n      pop\n      pop\n      jump\t// out\n        /* \"#utility.yul\":9157:10552   */\n    tag_22:\n        /* \"#utility.yul\":9274:9311   */\n      tag_167\n        /* \"#utility.yul\":9307:9310   */\n      dup3\n        /* \"#utility.yul\":9274:9311   */\n      tag_45\n      jump\t// in\n    tag_167:\n        /* \"#utility.yul\":9376:9394   */\n      0xffffffffffffffff\n        /* \"#utility.yul\":9368:9374   */\n      dup2\n        /* \"#utility.yul\":9365:9395   */\n      gt\n        /* \"#utility.yul\":9362:9418   */\n      iszero\n      tag_168\n      jumpi\n        /* \"#utility.yul\":9398:9416   */\n      tag_169\n      tag_34\n      jump\t// in\n    tag_169:\n        /* \"#utility.yul\":9362:9418   */\n    tag_168:\n        /* \"#utility.yul\":9442:9480   */\n      tag_170\n        /* \"#utility.yul\":9474:9478   */\n      dup3\n        /* \"#utility.yul\":9468:9479   */\n      sload\n        /* \"#utility.yul\":9442:9480   */\n      tag_47\n      jump\t// in\n    tag_170:\n        /* \"#utility.yul\":9527:9594   */\n      tag_171\n        /* \"#utility.yul\":9587:9593   */\n      dup3\n        /* \"#utility.yul\":9579:9585   */\n      dup3\n        /* \"#utility.yul\":9573:9577   */\n      dup6\n        /* \"#utility.yul\":9527:9594   */\n      tag_59\n      jump\t// in\n    tag_171:\n        /* \"#utility.yul\":9621:9622   */\n      0x00\n        /* \"#utility.yul\":9645:9649   */\n      0x20\n        /* \"#utility.yul\":9632:9649   */\n      swap1\n      pop\n        /* \"#utility.yul\":9677:9679   */\n      0x1f\n        /* \"#utility.yul\":9669:9675   */\n      dup4\n        /* \"#utility.yul\":9666:9680   */\n      gt\n        /* \"#utility.yul\":9694:9695   */\n      0x01\n        /* \"#utility.yul\":9689:10307   */\n      dup2\n      eq\n      tag_173\n      jumpi\n        /* \"#utility.yul\":10351:10352   */\n      0x00\n        /* \"#utility.yul\":10368:10374   */\n      dup5\n        /* \"#utility.yul\":10365:10442   */\n      iszero\n      tag_174\n      jumpi\n        /* \"#utility.yul\":10417:10426   */\n      dup3\n        /* \"#utility.yul\":10412:10415   */\n      dup8\n        /* \"#utility.yul\":10408:10427   */\n      add\n        /* \"#utility.yul\":10402:10428   */\n      mload\n        /* \"#utility.yul\":10393:10428   */\n      swap1\n      pop\n        /* \"#utility.yul\":10365:10442   */\n    tag_174:\n        /* \"#utility.yul\":10468:10535   */\n      tag_175\n        /* \"#utility.yul\":10528:10534   */\n      dup6\n        /* \"#utility.yul\":10521:10526   */\n      dup3\n        /* \"#utility.yul\":10468:10535   */\n      tag_62\n      jump\t// in\n    tag_175:\n        /* \"#utility.yul\":10462:10466   */\n      dup7\n        /* \"#utility.yul\":10455:10536   */\n      sstore\n        /* \"#utility.yul\":10324:10546   */\n      pop\n        /* \"#utility.yul\":9659:10546   */\n      jump(tag_172)\n        /* \"#utility.yul\":9689:10307   */\n    tag_173:\n        /* \"#utility.yul\":9741:9745   */\n      0x1f\n        /* \"#utility.yul\":9737:9746   */\n      not\n        /* \"#utility.yul\":9729:9735   */\n      dup5\n        /* \"#utility.yul\":9725:9747   */\n      and\n        /* \"#utility.yul\":9775:9812   */\n      tag_176\n        /* \"#utility.yul\":9807:9811   */\n      dup7\n        /* \"#utility.yul\":9775:9812   */\n      tag_48\n      jump\t// in\n    tag_176:\n        /* \"#utility.yul\":9834:9835   */\n      0x00\n        /* \"#utility.yul\":9848:10056   */\n    tag_177:\n        /* \"#utility.yul\":9862:9869   */\n      dup3\n        /* \"#utility.yul\":9859:9860   */\n      dup2\n        /* \"#utility.yul\":9856:9870   */\n      lt\n        /* \"#utility.yul\":9848:10056   */\n      iszero\n      tag_179\n      jumpi\n        /* \"#utility.yul\":9941:9950   */\n      dup5\n        /* \"#utility.yul\":9936:9939   */\n      dup10\n        /* \"#utility.yul\":9932:9951   */\n      add\n        /* \"#utility.yul\":9926:9952   */\n      mload\n        /* \"#utility.yul\":9918:9924   */\n      dup3\n        /* \"#utility.yul\":9911:9953   */\n      sstore\n        /* \"#utility.yul\":9992:9993   */\n      0x01\n        /* \"#utility.yul\":9984:9990   */\n      dup3\n        /* \"#utility.yul\":9980:9994   */\n      add\n        /* \"#utility.yul\":9970:9994   */\n      swap2\n      pop\n        /* \"#utility.yul\":10039:10041   */\n      0x20\n        /* \"#utility.yul\":10028:10037   */\n      dup6\n        /* \"#utility.yul\":10024:10042   */\n      add\n        /* \"#utility.yul\":10011:10042   */\n      swap5\n      pop\n        /* \"#utility.yul\":9885:9889   */\n      0x20\n        /* \"#utility.yul\":9882:9883   */\n      dup2\n        /* \"#utility.yul\":9878:9890   */\n      add\n        /* \"#utility.yul\":9873:9890   */\n      swap1\n      pop\n        /* \"#utility.yul\":9848:10056   */\n      jump(tag_177)\n    tag_179:\n        /* \"#utility.yul\":10084:10090   */\n      dup7\n        /* \"#utility.yul\":10075:10082   */\n      dup4\n        /* \"#utility.yul\":10072:10091   */\n      lt\n        /* \"#utility.yul\":10069:10248   */\n      iszero\n      tag_180\n      jumpi\n        /* \"#utility.yul\":10142:10151   */\n      dup5\n        /* \"#utility.yul\":10137:10140   */\n      dup10\n        /* \"#utility.yul\":10133:10152   */\n      add\n        /* \"#utility.yul\":10127:10153   */\n      mload\n        /* \"#utility.yul\":10185:10233   */\n      tag_181\n        /* \"#utility.yul\":10227:10231   */\n      0x1f\n        /* \"#utility.yul\":10219:10225   */\n      dup10\n        /* \"#utility.yul\":10215:10232   */\n      and\n        /* \"#utility.yul\":10204:10213   */\n      dup3\n        /* \"#utility.yul\":10185:10233   */\n      tag_61\n      jump\t// in\n    tag_181:\n        /* \"#utility.yul\":10177:10183   */\n      dup4\n        /* \"#utility.yul\":10170:10234   */\n      sstore\n        /* \"#utility.yul\":10092:10248   */\n      pop\n        /* \"#utility.yul\":10069:10248   */\n    tag_180:\n        /* \"#utility.yul\":10294:10295   */\n      0x01\n        /* \"#utility.yul\":10290:10291   */\n      0x02\n        /* \"#utility.yul\":10282:10288   */\n      dup9\n        /* \"#utility.yul\":10278:10292   */\n      mul\n        /* \"#utility.yul\":10274:10296   */\n      add\n        /* \"#utility.yul\":10268:10272   */\n      dup9\n        /* \"#utility.yul\":10261:10297   */\n      sstore\n        /* \"#utility.yul\":9696:10307   */\n      pop\n      pop\n      pop\n        /* \"#utility.yul\":9659:10546   */\n    tag_172:\n      pop\n        /* \"#utility.yul\":9249:10552   */\n      pop\n      pop\n      pop\n        /* \"#utility.yul\":9157:10552   */\n      pop\n      pop\n      jump\t// out\n\n    auxdata: 0xa26469706673582212202c9160f9e226465c9c741a5c78dd6c6622a518a20ed53047d284dbcc54d4aebe64736f6c634300080f0033\n}\n",
				"bytecode": {
					"linkReferences": {},
					"object": "608060405234801561001057600080fd5b506106e5806100206000396000f3fe60806040526004361061002d5760003560e01c80630c55699c1461006557806324ccab8f146100905761002e565b5b7fcf34ef537ac33ee1ac626ca1587a0a7e8e51561e5514f8cb36afa1c5102b3bab60405161005b9061014c565b60405180910390a1005b34801561007157600080fd5b5061007a6100c1565b6040516100879190610185565b60405180910390f35b6100aa60048036038101906100a59190610326565b6100c7565b6040516100b892919061039d565b60405180910390f35b60015481565b60008083600090816100d991906105dd565b5082600181905550600180915091509250929050565b600082825260208201905092915050565b7f66616c6c6261636b207761732063616c6c656400000000000000000000000000600082015250565b60006101366013836100ef565b915061014182610100565b602082019050919050565b6000602082019050818103600083015261016581610129565b9050919050565b6000819050919050565b61017f8161016c565b82525050565b600060208201905061019a6000830184610176565b92915050565b6000604051905090565b600080fd5b600080fd5b600080fd5b600080fd5b6000601f19601f8301169050919050565b7f4e487b7100000000000000000000000000000000000000000000000000000000600052604160045260246000fd5b610207826101be565b810181811067ffffffffffffffff82111715610226576102256101cf565b5b80604052505050565b60006102396101a0565b905061024582826101fe565b919050565b600067ffffffffffffffff821115610265576102646101cf565b5b61026e826101be565b9050602081019050919050565b82818337600083830152505050565b600061029d6102988461024a565b61022f565b9050828152602081018484840111156102b9576102b86101b9565b5b6102c484828561027b565b509392505050565b600082601f8301126102e1576102e06101b4565b5b81356102f184826020860161028a565b91505092915050565b6103038161016c565b811461030e57600080fd5b50565b600081359050610320816102fa565b92915050565b6000806040838503121561033d5761033c6101aa565b5b600083013567ffffffffffffffff81111561035b5761035a6101af565b5b610367858286016102cc565b925050602061037885828601610311565b9150509250929050565b60008115159050919050565b61039781610382565b82525050565b60006040820190506103b2600083018561038e565b6103bf6020830184610176565b9392505050565b600081519050919050565b7f4e487b7100000000000000000000000000000000000000000000000000000000600052602260045260246000fd5b6000600282049050600182168061041857607f821691505b60208210810361042b5761042a6103d1565b5b50919050565b60008190508160005260206000209050919050565b60006020601f8301049050919050565b600082821b905092915050565b6000600883026104937fffffffffffffffffffffffffffffffffffffffffffffffffffffffffffffffff82610456565b61049d8683610456565b95508019841693508086168417925050509392505050565b6000819050919050565b60006104da6104d56104d08461016c565b6104b5565b61016c565b9050919050565b6000819050919050565b6104f4836104bf565b610508610500826104e1565b848454610463565b825550505050565b600090565b61051d610510565b6105288184846104eb565b505050565b5b8181101561054c57610541600082610515565b60018101905061052e565b5050565b601f8211156105915761056281610431565b61056b84610446565b8101602085101561057a578190505b61058e61058685610446565b83018261052d565b50505b505050565b600082821c905092915050565b60006105b460001984600802610596565b1980831691505092915050565b60006105cd83836105a3565b9150826002028217905092915050565b6105e6826103c6565b67ffffffffffffffff8111156105ff576105fe6101cf565b5b6106098254610400565b610614828285610550565b600060209050601f8311600181146106475760008415610635578287015190505b61063f85826105c1565b8655506106a7565b601f19841661065586610431565b60005b8281101561067d57848901518255600182019150602085019450602081019050610658565b8683101561069a5784890151610696601f8916826105a3565b8355505b6001600288020188555050505b50505050505056fea26469706673582212202c9160f9e226465c9c741a5c78dd6c6622a518a20ed53047d284dbcc54d4aebe64736f6c634300080f0033",
					"opcodes": "PUSH1 0x80 PUSH1 0x40 MSTORE CALLVALUE DUP1 ISZERO PUSH2 0x10 JUMPI PUSH1 0x0 DUP1 REVERT JUMPDEST POP PUSH2 0x6E5 DUP1 PUSH2 0x20 PUSH1 0x0 CODECOPY PUSH1 0x0 RETURN INVALID PUSH1 0x80 PUSH1 0x40 MSTORE PUSH1 0x4 CALLDATASIZE LT PUSH2 0x2D JUMPI PUSH1 0x0 CALLDATALOAD PUSH1 0xE0 SHR DUP1 PUSH4 0xC55699C EQ PUSH2 0x65 JUMPI DUP1 PUSH4 0x24CCAB8F EQ PUSH2 0x90 JUMPI PUSH2 0x2E JUMP JUMPDEST JUMPDEST PUSH32 0xCF34EF537AC33EE1AC626CA1587A0A7E8E51561E5514F8CB36AFA1C5102B3BAB PUSH1 0x40 MLOAD PUSH2 0x5B SWAP1 PUSH2 0x14C JUMP JUMPDEST PUSH1 0x40 MLOAD DUP1 SWAP2 SUB SWAP1 LOG1 STOP JUMPDEST CALLVALUE DUP1 ISZERO PUSH2 0x71 JUMPI PUSH1 0x0 DUP1 REVERT JUMPDEST POP PUSH2 0x7A PUSH2 0xC1 JUMP JUMPDEST PUSH1 0x40 MLOAD PUSH2 0x87 SWAP2 SWAP1 PUSH2 0x185 JUMP JUMPDEST PUSH1 0x40 MLOAD DUP1 SWAP2 SUB SWAP1 RETURN JUMPDEST PUSH2 0xAA PUSH1 0x4 DUP1 CALLDATASIZE SUB DUP2 ADD SWAP1 PUSH2 0xA5 SWAP2 SWAP1 PUSH2 0x326 JUMP JUMPDEST PUSH2 0xC7 JUMP JUMPDEST PUSH1 0x40 MLOAD PUSH2 0xB8 SWAP3 SWAP2 SWAP1 PUSH2 0x39D JUMP JUMPDEST PUSH1 0x40 MLOAD DUP1 SWAP2 SUB SWAP1 RETURN JUMPDEST PUSH1 0x1 SLOAD DUP2 JUMP JUMPDEST PUSH1 0x0 DUP1 DUP4 PUSH1 0x0 SWAP1 DUP2 PUSH2 0xD9 SWAP2 SWAP1 PUSH2 0x5DD JUMP JUMPDEST POP DUP3 PUSH1 0x1 DUP2 SWAP1 SSTORE POP PUSH1 0x1 DUP1 SWAP2 POP SWAP2 POP SWAP3 POP SWAP3 SWAP1 POP JUMP JUMPDEST PUSH1 0x0 DUP3 DUP3 MSTORE PUSH1 0x20 DUP3 ADD SWAP1 POP SWAP3 SWAP2 POP POP JUMP JUMPDEST PUSH32 0x66616C6C6261636B207761732063616C6C656400000000000000000000000000 PUSH1 0x0 DUP3 ADD MSTORE POP JUMP JUMPDEST PUSH1 0x0 PUSH2 0x136 PUSH1 0x13 DUP4 PUSH2 0xEF JUMP JUMPDEST SWAP2 POP PUSH2 0x141 DUP3 PUSH2 0x100 JUMP JUMPDEST PUSH1 0x20 DUP3 ADD SWAP1 POP SWAP2 SWAP1 POP JUMP JUMPDEST PUSH1 0x0 PUSH1 0x20 DUP3 ADD SWAP1 POP DUP2 DUP2 SUB PUSH1 0x0 DUP4 ADD MSTORE PUSH2 0x165 DUP2 PUSH2 0x129 JUMP JUMPDEST SWAP1 POP SWAP2 SWAP1 POP JUMP JUMPDEST PUSH1 0x0 DUP2 SWAP1 POP SWAP2 SWAP1 POP JUMP JUMPDEST PUSH2 0x17F DUP2 PUSH2 0x16C JUMP JUMPDEST DUP3 MSTORE POP POP JUMP JUMPDEST PUSH1 0x0 PUSH1 0x20 DUP3 ADD SWAP1 POP PUSH2 0x19A PUSH1 0x0 DUP4 ADD DUP5 PUSH2 0x176 JUMP JUMPDEST SWAP3 SWAP2 POP POP JUMP JUMPDEST PUSH1 0x0 PUSH1 0x40 MLOAD SWAP1 POP SWAP1 JUMP JUMPDEST PUSH1 0x0 DUP1 REVERT JUMPDEST PUSH1 0x0 DUP1 REVERT JUMPDEST PUSH1 0x0 DUP1 REVERT JUMPDEST PUSH1 0x0 DUP1 REVERT JUMPDEST PUSH1 0x0 PUSH1 0x1F NOT PUSH1 0x1F DUP4 ADD AND SWAP1 POP SWAP2 SWAP1 POP JUMP JUMPDEST PUSH32 0x4E487B7100000000000000000000000000000000000000000000000000000000 PUSH1 0x0 MSTORE PUSH1 0x41 PUSH1 0x4 MSTORE PUSH1 0x24 PUSH1 0x0 REVERT JUMPDEST PUSH2 0x207 DUP3 PUSH2 0x1BE JUMP JUMPDEST DUP2 ADD DUP2 DUP2 LT PUSH8 0xFFFFFFFFFFFFFFFF DUP3 GT OR ISZERO PUSH2 0x226 JUMPI PUSH2 0x225 PUSH2 0x1CF JUMP JUMPDEST JUMPDEST DUP1 PUSH1 0x40 MSTORE POP POP POP JUMP JUMPDEST PUSH1 0x0 PUSH2 0x239 PUSH2 0x1A0 JUMP JUMPDEST SWAP1 POP PUSH2 0x245 DUP3 DUP3 PUSH2 0x1FE JUMP JUMPDEST SWAP2 SWAP1 POP JUMP JUMPDEST PUSH1 0x0 PUSH8 0xFFFFFFFFFFFFFFFF DUP3 GT ISZERO PUSH2 0x265 JUMPI PUSH2 0x264 PUSH2 0x1CF JUMP JUMPDEST JUMPDEST PUSH2 0x26E DUP3 PUSH2 0x1BE JUMP JUMPDEST SWAP1 POP PUSH1 0x20 DUP2 ADD SWAP1 POP SWAP2 SWAP1 POP JUMP JUMPDEST DUP3 DUP2 DUP4 CALLDATACOPY PUSH1 0x0 DUP4 DUP4 ADD MSTORE POP POP POP JUMP JUMPDEST PUSH1 0x0 PUSH2 0x29D PUSH2 0x298 DUP5 PUSH2 0x24A JUMP JUMPDEST PUSH2 0x22F JUMP JUMPDEST SWAP1 POP DUP3 DUP2 MSTORE PUSH1 0x20 DUP2 ADD DUP5 DUP5 DUP5 ADD GT ISZERO PUSH2 0x2B9 JUMPI PUSH2 0x2B8 PUSH2 0x1B9 JUMP JUMPDEST JUMPDEST PUSH2 0x2C4 DUP5 DUP3 DUP6 PUSH2 0x27B JUMP JUMPDEST POP SWAP4 SWAP3 POP POP POP JUMP JUMPDEST PUSH1 0x0 DUP3 PUSH1 0x1F DUP4 ADD SLT PUSH2 0x2E1 JUMPI PUSH2 0x2E0 PUSH2 0x1B4 JUMP JUMPDEST JUMPDEST DUP2 CALLDATALOAD PUSH2 0x2F1 DUP5 DUP3 PUSH1 0x20 DUP7 ADD PUSH2 0x28A JUMP JUMPDEST SWAP2 POP POP SWAP3 SWAP2 POP POP JUMP JUMPDEST PUSH2 0x303 DUP2 PUSH2 0x16C JUMP JUMPDEST DUP2 EQ PUSH2 0x30E JUMPI PUSH1 0x0 DUP1 REVERT JUMPDEST POP JUMP JUMPDEST PUSH1 0x0 DUP2 CALLDATALOAD SWAP1 POP PUSH2 0x320 DUP2 PUSH2 0x2FA JUMP JUMPDEST SWAP3 SWAP2 POP POP JUMP JUMPDEST PUSH1 0x0 DUP1 PUSH1 0x40 DUP4 DUP6 SUB SLT ISZERO PUSH2 0x33D JUMPI PUSH2 0x33C PUSH2 0x1AA JUMP JUMPDEST JUMPDEST PUSH1 0x0 DUP4 ADD CALLDATALOAD PUSH8 0xFFFFFFFFFFFFFFFF DUP2 GT ISZERO PUSH2 0x35B JUMPI PUSH2 0x35A PUSH2 0x1AF JUMP JUMPDEST JUMPDEST PUSH2 0x367 DUP6 DUP3 DUP7 ADD PUSH2 0x2CC JUMP JUMPDEST SWAP3 POP POP PUSH1 0x20 PUSH2 0x378 DUP6 DUP3 DUP7 ADD PUSH2 0x311 JUMP JUMPDEST SWAP2 POP POP SWAP3 POP SWAP3 SWAP1 POP JUMP JUMPDEST PUSH1 0x0 DUP2 ISZERO ISZERO SWAP1 POP SWAP2 SWAP1 POP JUMP JUMPDEST PUSH2 0x397 DUP2 PUSH2 0x382 JUMP JUMPDEST DUP3 MSTORE POP POP JUMP JUMPDEST PUSH1 0x0 PUSH1 0x40 DUP3 ADD SWAP1 POP PUSH2 0x3B2 PUSH1 0x0 DUP4 ADD DUP6 PUSH2 0x38E JUMP JUMPDEST PUSH2 0x3BF PUSH1 0x20 DUP4 ADD DUP5 PUSH2 0x176 JUMP JUMPDEST SWAP4 SWAP3 POP POP POP JUMP JUMPDEST PUSH1 0x0 DUP2 MLOAD SWAP1 POP SWAP2 SWAP1 POP JUMP JUMPDEST PUSH32 0x4E487B7100000000000000000000000000000000000000000000000000000000 PUSH1 0x0 MSTORE PUSH1 0x22 PUSH1 0x4 MSTORE PUSH1 0x24 PUSH1 0x0 REVERT JUMPDEST PUSH1 0x0 PUSH1 0x2 DUP3 DIV SWAP1 POP PUSH1 0x1 DUP3 AND DUP1 PUSH2 0x418 JUMPI PUSH1 0x7F DUP3 AND SWAP2 POP JUMPDEST PUSH1 0x20 DUP3 LT DUP2 SUB PUSH2 0x42B JUMPI PUSH2 0x42A PUSH2 0x3D1 JUMP JUMPDEST JUMPDEST POP SWAP2 SWAP1 POP JUMP JUMPDEST PUSH1 0x0 DUP2 SWAP1 POP DUP2 PUSH1 0x0 MSTORE PUSH1 0x20 PUSH1 0x0 KECCAK256 SWAP1 POP SWAP2 SWAP1 POP JUMP JUMPDEST PUSH1 0x0 PUSH1 0x20 PUSH1 0x1F DUP4 ADD DIV SWAP1 POP SWAP2 SWAP1 POP JUMP JUMPDEST PUSH1 0x0 DUP3 DUP3 SHL SWAP1 POP SWAP3 SWAP2 POP POP JUMP JUMPDEST PUSH1 0x0 PUSH1 0x8 DUP4 MUL PUSH2 0x493 PUSH32 0xFFFFFFFFFFFFFFFFFFFFFFFFFFFFFFFFFFFFFFFFFFFFFFFFFFFFFFFFFFFFFFFF DUP3 PUSH2 0x456 JUMP JUMPDEST PUSH2 0x49D DUP7 DUP4 PUSH2 0x456 JUMP JUMPDEST SWAP6 POP DUP1 NOT DUP5 AND SWAP4 POP DUP1 DUP7 AND DUP5 OR SWAP3 POP POP POP SWAP4 SWAP3 POP POP POP JUMP JUMPDEST PUSH1 0x0 DUP2 SWAP1 POP SWAP2 SWAP1 POP JUMP JUMPDEST PUSH1 0x0 PUSH2 0x4DA PUSH2 0x4D5 PUSH2 0x4D0 DUP5 PUSH2 0x16C JUMP JUMPDEST PUSH2 0x4B5 JUMP JUMPDEST PUSH2 0x16C JUMP JUMPDEST SWAP1 POP SWAP2 SWAP1 POP JUMP JUMPDEST PUSH1 0x0 DUP2 SWAP1 POP SWAP2 SWAP1 POP JUMP JUMPDEST PUSH2 0x4F4 DUP4 PUSH2 0x4BF JUMP JUMPDEST PUSH2 0x508 PUSH2 0x500 DUP3 PUSH2 0x4E1 JUMP JUMPDEST DUP5 DUP5 SLOAD PUSH2 0x463 JUMP JUMPDEST DUP3 SSTORE POP POP POP POP JUMP JUMPDEST PUSH1 0x0 SWAP1 JUMP JUMPDEST PUSH2 0x51D PUSH2 0x510 JUMP JUMPDEST PUSH2 0x528 DUP2 DUP5 DUP5 PUSH2 0x4EB JUMP JUMPDEST POP POP POP JUMP JUMPDEST JUMPDEST DUP2 DUP2 LT ISZERO PUSH2 0x54C JUMPI PUSH2 0x541 PUSH1 0x0 DUP3 PUSH2 0x515 JUMP JUMPDEST PUSH1 0x1 DUP2 ADD SWAP1 POP PUSH2 0x52E JUMP JUMPDEST POP POP JUMP JUMPDEST PUSH1 0x1F DUP3 GT ISZERO PUSH2 0x591 JUMPI PUSH2 0x562 DUP2 PUSH2 0x431 JUMP JUMPDEST PUSH2 0x56B DUP5 PUSH2 0x446 JUMP JUMPDEST DUP2 ADD PUSH1 0x20 DUP6 LT ISZERO PUSH2 0x57A JUMPI DUP2 SWAP1 POP JUMPDEST PUSH2 0x58E PUSH2 0x586 DUP6 PUSH2 0x446 JUMP JUMPDEST DUP4 ADD DUP3 PUSH2 0x52D JUMP JUMPDEST POP POP JUMPDEST POP POP POP JUMP JUMPDEST PUSH1 0x0 DUP3 DUP3 SHR SWAP1 POP SWAP3 SWAP2 POP POP JUMP JUMPDEST PUSH1 0x0 PUSH2 0x5B4 PUSH1 0x0 NOT DUP5 PUSH1 0x8 MUL PUSH2 0x596 JUMP JUMPDEST NOT DUP1 DUP4 AND SWAP2 POP POP SWAP3 SWAP2 POP POP JUMP JUMPDEST PUSH1 0x0 PUSH2 0x5CD DUP4 DUP4 PUSH2 0x5A3 JUMP JUMPDEST SWAP2 POP DUP3 PUSH1 0x2 MUL DUP3 OR SWAP1 POP SWAP3 SWAP2 POP POP JUMP JUMPDEST PUSH2 0x5E6 DUP3 PUSH2 0x3C6 JUMP JUMPDEST PUSH8 0xFFFFFFFFFFFFFFFF DUP2 GT ISZERO PUSH2 0x5FF JUMPI PUSH2 0x5FE PUSH2 0x1CF JUMP JUMPDEST JUMPDEST PUSH2 0x609 DUP3 SLOAD PUSH2 0x400 JUMP JUMPDEST PUSH2 0x614 DUP3 DUP3 DUP6 PUSH2 0x550 JUMP JUMPDEST PUSH1 0x0 PUSH1 0x20 SWAP1 POP PUSH1 0x1F DUP4 GT PUSH1 0x1 DUP2 EQ PUSH2 0x647 JUMPI PUSH1 0x0 DUP5 ISZERO PUSH2 0x635 JUMPI DUP3 DUP8 ADD MLOAD SWAP1 POP JUMPDEST PUSH2 0x63F DUP6 DUP3 PUSH2 0x5C1 JUMP JUMPDEST DUP7 SSTORE POP PUSH2 0x6A7 JUMP JUMPDEST PUSH1 0x1F NOT DUP5 AND PUSH2 0x655 DUP7 PUSH2 0x431 JUMP JUMPDEST PUSH1 0x0 JUMPDEST DUP3 DUP2 LT ISZERO PUSH2 0x67D JUMPI DUP5 DUP10 ADD MLOAD DUP3 SSTORE PUSH1 0x1 DUP3 ADD SWAP2 POP PUSH1 0x20 DUP6 ADD SWAP5 POP PUSH1 0x20 DUP2 ADD SWAP1 POP PUSH2 0x658 JUMP JUMPDEST DUP7 DUP4 LT ISZERO PUSH2 0x69A JUMPI DUP5 DUP10 ADD MLOAD PUSH2 0x696 PUSH1 0x1F DUP10 AND DUP3 PUSH2 0x5A3 JUMP JUMPDEST DUP4 SSTORE POP JUMPDEST PUSH1 0x1 PUSH1 0x2 DUP9 MUL ADD DUP9 SSTORE POP POP POP JUMPDEST POP POP POP POP POP POP JUMP INVALID LOG2 PUSH5 0x6970667358 0x22 SLT KECCAK256 0x2C SWAP2 PUSH1 0xF9 0xE2 0x26 CHAINID 0x5C SWAP13 PUSH21 0x1A5C78DD6C6622A518A20ED53047D284DBCC54D4AE 0xBE PUSH5 0x736F6C6343 STOP ADDMOD 0xF STOP CALLER "
				},
				"gasEstimates": {
					"creation": {
						"codeDepositCost": "353000",
						"executionCost": "393",
						"totalCost": "353393"
					},
					"external": {
						"": "1909",
						"foo(string,uint256)": "infinite",
						"x()": "2407"
					}
				},
				"methodIdentifiers": {
					"foo(string,uint256)": "24ccab8f",
					"x()": "0c55699c"
				}
			},
			"storageLayout": {
				"storage": [
					{
						"astId": 3,
						"contract": "contracts/TestCall.sol:Callee",
						"label": "message",
						"offset": 0,
						"slot": "0",
						"type": "t_string_storage"
					},
					{
						"astId": 5,
						"contract": "contracts/TestCall.sol:Callee",
						"label": "x",
						"offset": 0,
						"slot": "1",
						"type": "t_uint256"
					}
				],
				"types": {
					"t_string_storage": {
						"encoding": "bytes",
						"label": "string",
						"numberOfBytes": "32"
					},
					"t_uint256": {
						"encoding": "inplace",
						"label": "uint256",
						"numberOfBytes": "32"
					}
				}
			},
			"userdoc": {
				"kind": "user",
				"methods": {},
				"version": 1
			}
		}
	}
}