{
	"contracts/TestCall.sol": {
		"Caller": {
			"abi": [
				{
					"inputs": [
						{
							"internalType": "address",
							"name": "_test",
							"type": "address"
						}
					],
					"name": "callDoesNotExist",
					"outputs": [],
					"stateMutability": "nonpayable",
					"type": "function"
				},
				{
					"inputs": [
						{
							"internalType": "address",
							"name": "_test",
							"type": "address"
						}
					],
					"name": "callFoo",
					"outputs": [],
					"stateMutability": "payable",
					"type": "function"
				},
				{
					"inputs": [],
					"name": "data",
					"outputs": [
						{
							"internalType": "bytes",
							"name": "",
							"type": "bytes"
						}
					],
					"stateMutability": "view",
					"type": "function"
				}
			],
			"devdoc": {
				"kind": "dev",
				"methods": {},
				"version": 1
			},
			"evm": {
				"assembly": "    /* \"contracts/TestCall.sol\":530:1067  contract Caller {... */\n  mstore(0x40, 0x80)\n  callvalue\n  dup1\n  iszero\n  tag_1\n  jumpi\n  0x00\n  dup1\n  revert\ntag_1:\n  pop\n  dataSize(sub_0)\n  dup1\n  dataOffset(sub_0)\n  0x00\n  codecopy\n  0x00\n  return\nstop\n\nsub_0: assembly {\n        /* \"contracts/TestCall.sol\":530:1067  contract Caller {... */\n      mstore(0x40, 0x80)\n      jumpi(tag_1, lt(calldatasize, 0x04))\n      shr(0xe0, calldataload(0x00))\n      dup1\n      0x73d4a13a\n      eq\n      tag_2\n      jumpi\n      dup1\n      0xb0feeff6\n      eq\n      tag_3\n      jumpi\n      dup1\n      0xedcbe76c\n      eq\n      tag_4\n      jumpi\n    tag_1:\n      0x00\n      dup1\n      revert\n        /* \"contracts/TestCall.sol\":552:569  bytes public data */\n    tag_2:\n      callvalue\n      dup1\n      iszero\n      tag_5\n      jumpi\n      0x00\n      dup1\n      revert\n    tag_5:\n      pop\n      tag_6\n      tag_7\n      jump\t// in\n    tag_6:\n      mload(0x40)\n      tag_8\n      swap2\n      swap1\n      tag_9\n      jump\t// in\n    tag_8:\n      mload(0x40)\n      dup1\n      swap2\n      sub\n      swap1\n      return\n        /* \"contracts/TestCall.sol\":879:1065  function callDoesNotExist(address _test) external {... */\n    tag_3:\n      callvalue\n      dup1\n      iszero\n      tag_10\n      jumpi\n      0x00\n      dup1\n      revert\n    tag_10:\n      pop\n      tag_11\n      0x04\n      dup1\n      calldatasize\n      sub\n      dup2\n      add\n      swap1\n      tag_12\n      swap2\n      swap1\n      tag_13\n      jump\t// in\n    tag_12:\n      tag_14\n      jump\t// in\n    tag_11:\n      stop\n        /* \"contracts/TestCall.sol\":576:873  function callFoo(address _test) external payable {... */\n    tag_4:\n      tag_15\n      0x04\n      dup1\n      calldatasize\n      sub\n      dup2\n      add\n      swap1\n      tag_16\n      swap2\n      swap1\n      tag_13\n      jump\t// in\n    tag_16:\n      tag_17\n      jump\t// in\n    tag_15:\n      stop\n        /* \"contracts/TestCall.sol\":552:569  bytes public data */\n    tag_7:\n      0x00\n      dup1\n      sload\n      tag_18\n      swap1\n      tag_19\n      jump\t// in\n    tag_18:\n      dup1\n      0x1f\n      add\n      0x20\n      dup1\n      swap2\n      div\n      mul\n      0x20\n      add\n      mload(0x40)\n      swap1\n      dup2\n      add\n      0x40\n      mstore\n      dup1\n      swap3\n      swap2\n      swap1\n      dup2\n      dup2\n      mstore\n      0x20\n      add\n      dup3\n      dup1\n      sload\n      tag_20\n      swap1\n      tag_19\n      jump\t// in\n    tag_20:\n      dup1\n      iszero\n      tag_21\n      jumpi\n      dup1\n      0x1f\n      lt\n      tag_22\n      jumpi\n      0x0100\n      dup1\n      dup4\n      sload\n      div\n      mul\n      dup4\n      mstore\n      swap2\n      0x20\n      add\n      swap2\n      jump(tag_21)\n    tag_22:\n      dup3\n      add\n      swap2\n      swap1\n      0x00\n      mstore\n      keccak256(0x00, 0x20)\n      swap1\n    tag_23:\n      dup2\n      sload\n      dup2\n      mstore\n      swap1\n      0x01\n      add\n      swap1\n      0x20\n      add\n      dup1\n      dup4\n      gt\n      tag_23\n      jumpi\n      dup3\n      swap1\n      sub\n      0x1f\n      and\n      dup3\n      add\n      swap2\n    tag_21:\n      pop\n      pop\n      pop\n      pop\n      pop\n      dup2\n      jump\t// out\n        /* \"contracts/TestCall.sol\":879:1065  function callDoesNotExist(address _test) external {... */\n    tag_14:\n        /* \"contracts/TestCall.sol\":940:952  bool success */\n      0x00\n        /* \"contracts/TestCall.sol\":958:963  _test */\n      dup2\n        /* \"contracts/TestCall.sol\":958:968  _test.call */\n      0xffffffffffffffffffffffffffffffffffffffff\n      and\n        /* \"contracts/TestCall.sol\":969:1004  abi.encodeWithSignature(\"random()\") */\n      add(0x24, mload(0x40))\n      mload(0x40)\n      0x20\n      dup2\n      dup4\n      sub\n      sub\n      dup2\n      mstore\n      swap1\n      0x40\n      mstore\n      and(not(0xffffffffffffffffffffffffffffffffffffffffffffffffffffffff), 0x5ec01e4d00000000000000000000000000000000000000000000000000000000)\n      0x20\n      dup3\n      add\n      dup1\n      mload\n      0xffffffffffffffffffffffffffffffffffffffffffffffffffffffff\n      dup4\n      dup2\n      dup4\n      and\n      or\n      dup4\n      mstore\n      pop\n      pop\n      pop\n      pop\n        /* \"contracts/TestCall.sol\":958:1005  _test.call(abi.encodeWithSignature(\"random()\")) */\n      mload(0x40)\n      tag_25\n      swap2\n      swap1\n      tag_26\n      jump\t// in\n    tag_25:\n      0x00\n      mload(0x40)\n      dup1\n      dup4\n      sub\n      dup2\n      0x00\n      dup7\n      gas\n      call\n      swap2\n      pop\n      pop\n      returndatasize\n      dup1\n      0x00\n      dup2\n      eq\n      tag_29\n      jumpi\n      mload(0x40)\n      swap2\n      pop\n      and(add(returndatasize, 0x3f), not(0x1f))\n      dup3\n      add\n      0x40\n      mstore\n      returndatasize\n      dup3\n      mstore\n      returndatasize\n      0x00\n      0x20\n      dup5\n      add\n      returndatacopy\n      jump(tag_28)\n    tag_29:\n      0x60\n      swap2\n      pop\n    tag_28:\n      pop\n        /* \"contracts/TestCall.sol\":939:1005  (bool success, ) = _test.call(abi.encodeWithSignature(\"random()\")) */\n      pop\n      swap1\n      pop\n        /* \"contracts/TestCall.sol\":1023:1030  success */\n      dup1\n        /* \"contracts/TestCall.sol\":1015:1058  require(success, \"call to random() failed\") */\n      tag_30\n      jumpi\n      mload(0x40)\n      0x08c379a000000000000000000000000000000000000000000000000000000000\n      dup2\n      mstore\n      0x04\n      add\n      tag_31\n      swap1\n      tag_32\n      jump\t// in\n    tag_31:\n      mload(0x40)\n      dup1\n      swap2\n      sub\n      swap1\n      revert\n    tag_30:\n        /* \"contracts/TestCall.sol\":929:1065  {... */\n      pop\n        /* \"contracts/TestCall.sol\":879:1065  function callDoesNotExist(address _test) external {... */\n      pop\n      jump\t// out\n        /* \"contracts/TestCall.sol\":576:873  function callFoo(address _test) external payable {... */\n    tag_17:\n        /* \"contracts/TestCall.sol\":636:648  bool success */\n      0x00\n        /* \"contracts/TestCall.sol\":650:668  bytes memory _data */\n      dup1\n        /* \"contracts/TestCall.sol\":672:677  _test */\n      dup3\n        /* \"contracts/TestCall.sol\":672:682  _test.call */\n      0xffffffffffffffffffffffffffffffffffffffff\n      and\n        /* \"contracts/TestCall.sol\":690:694  1000 */\n      0x03e8\n        /* \"contracts/TestCall.sol\":701:705  5000 */\n      0x1388\n        /* \"contracts/TestCall.sol\":672:795  _test.call{value: 1000, gas: 5000}(... */\n      swap1\n        /* \"contracts/TestCall.sol\":781:784  123 */\n      0x7b\n        /* \"contracts/TestCall.sol\":720:785  abi.encodeWithSignature(\"foo(string,uint256)\", \"my message\", 123) */\n      add(0x24, mload(0x40))\n      tag_34\n      swap2\n      swap1\n      tag_35\n      jump\t// in\n    tag_34:\n      mload(0x40)\n      0x20\n      dup2\n      dup4\n      sub\n      sub\n      dup2\n      mstore\n      swap1\n      0x40\n      mstore\n      and(not(0xffffffffffffffffffffffffffffffffffffffffffffffffffffffff), 0x24ccab8f00000000000000000000000000000000000000000000000000000000)\n      0x20\n      dup3\n      add\n      dup1\n      mload\n      0xffffffffffffffffffffffffffffffffffffffffffffffffffffffff\n      dup4\n      dup2\n      dup4\n      and\n      or\n      dup4\n      mstore\n      pop\n      pop\n      pop\n      pop\n        /* \"contracts/TestCall.sol\":672:795  _test.call{value: 1000, gas: 5000}(... */\n      mload(0x40)\n      tag_36\n      swap2\n      swap1\n      tag_26\n      jump\t// in\n    tag_36:\n      0x00\n      mload(0x40)\n      dup1\n      dup4\n      sub\n      dup2\n      dup6\n      dup9\n      dup9\n      call\n      swap4\n      pop\n      pop\n      pop\n      pop\n      returndatasize\n      dup1\n      0x00\n      dup2\n      eq\n      tag_39\n      jumpi\n      mload(0x40)\n      swap2\n      pop\n      and(add(returndatasize, 0x3f), not(0x1f))\n      dup3\n      add\n      0x40\n      mstore\n      returndatasize\n      dup3\n      mstore\n      returndatasize\n      0x00\n      0x20\n      dup5\n      add\n      returndatacopy\n      jump(tag_38)\n    tag_39:\n      0x60\n      swap2\n      pop\n    tag_38:\n      pop\n        /* \"contracts/TestCall.sol\":635:795  (bool success, bytes memory _data) = _test.call{value: 1000, gas: 5000}(... */\n      swap2\n      pop\n      swap2\n      pop\n        /* \"contracts/TestCall.sol\":814:821  success */\n      dup2\n        /* \"contracts/TestCall.sol\":806:844  require(success, \"Call to foo failed\") */\n      tag_40\n      jumpi\n      mload(0x40)\n      0x08c379a000000000000000000000000000000000000000000000000000000000\n      dup2\n      mstore\n      0x04\n      add\n      tag_41\n      swap1\n      tag_42\n      jump\t// in\n    tag_41:\n      mload(0x40)\n      dup1\n      swap2\n      sub\n      swap1\n      revert\n    tag_40:\n        /* \"contracts/TestCall.sol\":861:866  _data */\n      dup1\n        /* \"contracts/TestCall.sol\":854:858  data */\n      0x00\n        /* \"contracts/TestCall.sol\":854:866  data = _data */\n      swap1\n      dup2\n      tag_43\n      swap2\n      swap1\n      tag_44\n      jump\t// in\n    tag_43:\n      pop\n        /* \"contracts/TestCall.sol\":625:873  {... */\n      pop\n      pop\n        /* \"contracts/TestCall.sol\":576:873  function callFoo(address _test) external payable {... */\n      pop\n      jump\t// out\n        /* \"#utility.yul\":7:105   */\n    tag_45:\n        /* \"#utility.yul\":58:64   */\n      0x00\n        /* \"#utility.yul\":92:97   */\n      dup2\n        /* \"#utility.yul\":86:98   */\n      mload\n        /* \"#utility.yul\":76:98   */\n      swap1\n      pop\n        /* \"#utility.yul\":7:105   */\n      swap2\n      swap1\n      pop\n      jump\t// out\n        /* \"#utility.yul\":111:279   */\n    tag_46:\n        /* \"#utility.yul\":194:205   */\n      0x00\n        /* \"#utility.yul\":228:234   */\n      dup3\n        /* \"#utility.yul\":223:226   */\n      dup3\n        /* \"#utility.yul\":216:235   */\n      mstore\n        /* \"#utility.yul\":268:272   */\n      0x20\n        /* \"#utility.yul\":263:266   */\n      dup3\n        /* \"#utility.yul\":259:273   */\n      add\n        /* \"#utility.yul\":244:273   */\n      swap1\n      pop\n        /* \"#utility.yul\":111:279   */\n      swap3\n      swap2\n      pop\n      pop\n      jump\t// out\n        /* \"#utility.yul\":285:592   */\n    tag_47:\n        /* \"#utility.yul\":353:354   */\n      0x00\n        /* \"#utility.yul\":363:476   */\n    tag_92:\n        /* \"#utility.yul\":377:383   */\n      dup4\n        /* \"#utility.yul\":374:375   */\n      dup2\n        /* \"#utility.yul\":371:384   */\n      lt\n        /* \"#utility.yul\":363:476   */\n      iszero\n      tag_94\n      jumpi\n        /* \"#utility.yul\":462:463   */\n      dup1\n        /* \"#utility.yul\":457:460   */\n      dup3\n        /* \"#utility.yul\":453:464   */\n      add\n        /* \"#utility.yul\":447:465   */\n      mload\n        /* \"#utility.yul\":443:444   */\n      dup2\n        /* \"#utility.yul\":438:441   */\n      dup5\n        /* \"#utility.yul\":434:445   */\n      add\n        /* \"#utility.yul\":427:466   */\n      mstore\n        /* \"#utility.yul\":399:401   */\n      0x20\n        /* \"#utility.yul\":396:397   */\n      dup2\n        /* \"#utility.yul\":392:402   */\n      add\n        /* \"#utility.yul\":387:402   */\n      swap1\n      pop\n        /* \"#utility.yul\":363:476   */\n      jump(tag_92)\n    tag_94:\n        /* \"#utility.yul\":494:500   */\n      dup4\n        /* \"#utility.yul\":491:492   */\n      dup2\n        /* \"#utility.yul\":488:501   */\n      gt\n        /* \"#utility.yul\":485:586   */\n      iszero\n      tag_95\n      jumpi\n        /* \"#utility.yul\":574:575   */\n      0x00\n        /* \"#utility.yul\":565:571   */\n      dup5\n        /* \"#utility.yul\":560:563   */\n      dup5\n        /* \"#utility.yul\":556:572   */\n      add\n        /* \"#utility.yul\":549:576   */\n      mstore\n        /* \"#utility.yul\":485:586   */\n    tag_95:\n        /* \"#utility.yul\":334:592   */\n      pop\n        /* \"#utility.yul\":285:592   */\n      pop\n      pop\n      pop\n      jump\t// out\n        /* \"#utility.yul\":598:700   */\n    tag_48:\n        /* \"#utility.yul\":639:645   */\n      0x00\n        /* \"#utility.yul\":690:692   */\n      0x1f\n        /* \"#utility.yul\":686:693   */\n      not\n        /* \"#utility.yul\":681:683   */\n      0x1f\n        /* \"#utility.yul\":674:679   */\n      dup4\n        /* \"#utility.yul\":670:684   */\n      add\n        /* \"#utility.yul\":666:694   */\n      and\n        /* \"#utility.yul\":656:694   */\n      swap1\n      pop\n        /* \"#utility.yul\":598:700   */\n      swap2\n      swap1\n      pop\n      jump\t// out\n        /* \"#utility.yul\":706:1066   */\n    tag_49:\n        /* \"#utility.yul\":792:795   */\n      0x00\n        /* \"#utility.yul\":820:858   */\n      tag_98\n        /* \"#utility.yul\":852:857   */\n      dup3\n        /* \"#utility.yul\":820:858   */\n      tag_45\n      jump\t// in\n    tag_98:\n        /* \"#utility.yul\":874:944   */\n      tag_99\n        /* \"#utility.yul\":937:943   */\n      dup2\n        /* \"#utility.yul\":932:935   */\n      dup6\n        /* \"#utility.yul\":874:944   */\n      tag_46\n      jump\t// in\n    tag_99:\n        /* \"#utility.yul\":867:944   */\n      swap4\n      pop\n        /* \"#utility.yul\":953:1005   */\n      tag_100\n        /* \"#utility.yul\":998:1004   */\n      dup2\n        /* \"#utility.yul\":993:996   */\n      dup6\n        /* \"#utility.yul\":986:990   */\n      0x20\n        /* \"#utility.yul\":979:984   */\n      dup7\n        /* \"#utility.yul\":975:991   */\n      add\n        /* \"#utility.yul\":953:1005   */\n      tag_47\n      jump\t// in\n    tag_100:\n        /* \"#utility.yul\":1030:1059   */\n      tag_101\n        /* \"#utility.yul\":1052:1058   */\n      dup2\n        /* \"#utility.yul\":1030:1059   */\n      tag_48\n      jump\t// in\n    tag_101:\n        /* \"#utility.yul\":1025:1028   */\n      dup5\n        /* \"#utility.yul\":1021:1060   */\n      add\n        /* \"#utility.yul\":1014:1060   */\n      swap2\n      pop\n        /* \"#utility.yul\":796:1066   */\n      pop\n        /* \"#utility.yul\":706:1066   */\n      swap3\n      swap2\n      pop\n      pop\n      jump\t// out\n        /* \"#utility.yul\":1072:1381   */\n    tag_9:\n        /* \"#utility.yul\":1183:1187   */\n      0x00\n        /* \"#utility.yul\":1221:1223   */\n      0x20\n        /* \"#utility.yul\":1210:1219   */\n      dup3\n        /* \"#utility.yul\":1206:1224   */\n      add\n        /* \"#utility.yul\":1198:1224   */\n      swap1\n      pop\n        /* \"#utility.yul\":1270:1279   */\n      dup2\n        /* \"#utility.yul\":1264:1268   */\n      dup2\n        /* \"#utility.yul\":1260:1280   */\n      sub\n        /* \"#utility.yul\":1256:1257   */\n      0x00\n        /* \"#utility.yul\":1245:1254   */\n      dup4\n        /* \"#utility.yul\":1241:1258   */\n      add\n        /* \"#utility.yul\":1234:1281   */\n      mstore\n        /* \"#utility.yul\":1298:1374   */\n      tag_103\n        /* \"#utility.yul\":1369:1373   */\n      dup2\n        /* \"#utility.yul\":1360:1366   */\n      dup5\n        /* \"#utility.yul\":1298:1374   */\n      tag_49\n      jump\t// in\n    tag_103:\n        /* \"#utility.yul\":1290:1374   */\n      swap1\n      pop\n        /* \"#utility.yul\":1072:1381   */\n      swap3\n      swap2\n      pop\n      pop\n      jump\t// out\n        /* \"#utility.yul\":1468:1585   */\n    tag_51:\n        /* \"#utility.yul\":1577:1578   */\n      0x00\n        /* \"#utility.yul\":1574:1575   */\n      dup1\n        /* \"#utility.yul\":1567:1579   */\n      revert\n        /* \"#utility.yul\":1714:1840   */\n    tag_53:\n        /* \"#utility.yul\":1751:1758   */\n      0x00\n        /* \"#utility.yul\":1791:1833   */\n      0xffffffffffffffffffffffffffffffffffffffff\n        /* \"#utility.yul\":1784:1789   */\n      dup3\n        /* \"#utility.yul\":1780:1834   */\n      and\n        /* \"#utility.yul\":1769:1834   */\n      swap1\n      pop\n        /* \"#utility.yul\":1714:1840   */\n      swap2\n      swap1\n      pop\n      jump\t// out\n        /* \"#utility.yul\":1846:1942   */\n    tag_54:\n        /* \"#utility.yul\":1883:1890   */\n      0x00\n        /* \"#utility.yul\":1912:1936   */\n      tag_109\n        /* \"#utility.yul\":1930:1935   */\n      dup3\n        /* \"#utility.yul\":1912:1936   */\n      tag_53\n      jump\t// in\n    tag_109:\n        /* \"#utility.yul\":1901:1936   */\n      swap1\n      pop\n        /* \"#utility.yul\":1846:1942   */\n      swap2\n      swap1\n      pop\n      jump\t// out\n        /* \"#utility.yul\":1948:2070   */\n    tag_55:\n        /* \"#utility.yul\":2021:2045   */\n      tag_111\n        /* \"#utility.yul\":2039:2044   */\n      dup2\n        /* \"#utility.yul\":2021:2045   */\n      tag_54\n      jump\t// in\n    tag_111:\n        /* \"#utility.yul\":2014:2019   */\n      dup2\n        /* \"#utility.yul\":2011:2046   */\n      eq\n        /* \"#utility.yul\":2001:2064   */\n      tag_112\n      jumpi\n        /* \"#utility.yul\":2060:2061   */\n      0x00\n        /* \"#utility.yul\":2057:2058   */\n      dup1\n        /* \"#utility.yul\":2050:2062   */\n      revert\n        /* \"#utility.yul\":2001:2064   */\n    tag_112:\n        /* \"#utility.yul\":1948:2070   */\n      pop\n      jump\t// out\n        /* \"#utility.yul\":2076:2215   */\n    tag_56:\n        /* \"#utility.yul\":2122:2127   */\n      0x00\n        /* \"#utility.yul\":2160:2166   */\n      dup2\n        /* \"#utility.yul\":2147:2167   */\n      calldataload\n        /* \"#utility.yul\":2138:2167   */\n      swap1\n      pop\n        /* \"#utility.yul\":2176:2209   */\n      tag_114\n        /* \"#utility.yul\":2203:2208   */\n      dup2\n        /* \"#utility.yul\":2176:2209   */\n      tag_55\n      jump\t// in\n    tag_114:\n        /* \"#utility.yul\":2076:2215   */\n      swap3\n      swap2\n      pop\n      pop\n      jump\t// out\n        /* \"#utility.yul\":2221:2550   */\n    tag_13:\n        /* \"#utility.yul\":2280:2286   */\n      0x00\n        /* \"#utility.yul\":2329:2331   */\n      0x20\n        /* \"#utility.yul\":2317:2326   */\n      dup3\n        /* \"#utility.yul\":2308:2315   */\n      dup5\n        /* \"#utility.yul\":2304:2327   */\n      sub\n        /* \"#utility.yul\":2300:2332   */\n      slt\n        /* \"#utility.yul\":2297:2416   */\n      iszero\n      tag_116\n      jumpi\n        /* \"#utility.yul\":2335:2414   */\n      tag_117\n      tag_51\n      jump\t// in\n    tag_117:\n        /* \"#utility.yul\":2297:2416   */\n    tag_116:\n        /* \"#utility.yul\":2455:2456   */\n      0x00\n        /* \"#utility.yul\":2480:2533   */\n      tag_118\n        /* \"#utility.yul\":2525:2532   */\n      dup5\n        /* \"#utility.yul\":2516:2522   */\n      dup3\n        /* \"#utility.yul\":2505:2514   */\n      dup6\n        /* \"#utility.yul\":2501:2523   */\n      add\n        /* \"#utility.yul\":2480:2533   */\n      tag_56\n      jump\t// in\n    tag_118:\n        /* \"#utility.yul\":2470:2533   */\n      swap2\n      pop\n        /* \"#utility.yul\":2426:2543   */\n      pop\n        /* \"#utility.yul\":2221:2550   */\n      swap3\n      swap2\n      pop\n      pop\n      jump\t// out\n        /* \"#utility.yul\":2556:2736   */\n    tag_57:\n        /* \"#utility.yul\":2604:2681   */\n      0x4e487b7100000000000000000000000000000000000000000000000000000000\n        /* \"#utility.yul\":2601:2602   */\n      0x00\n        /* \"#utility.yul\":2594:2682   */\n      mstore\n        /* \"#utility.yul\":2701:2705   */\n      0x22\n        /* \"#utility.yul\":2698:2699   */\n      0x04\n        /* \"#utility.yul\":2691:2706   */\n      mstore\n        /* \"#utility.yul\":2725:2729   */\n      0x24\n        /* \"#utility.yul\":2722:2723   */\n      0x00\n        /* \"#utility.yul\":2715:2730   */\n      revert\n        /* \"#utility.yul\":2742:3062   */\n    tag_19:\n        /* \"#utility.yul\":2786:2792   */\n      0x00\n        /* \"#utility.yul\":2823:2824   */\n      0x02\n        /* \"#utility.yul\":2817:2821   */\n      dup3\n        /* \"#utility.yul\":2813:2825   */\n      div\n        /* \"#utility.yul\":2803:2825   */\n      swap1\n      pop\n        /* \"#utility.yul\":2870:2871   */\n      0x01\n        /* \"#utility.yul\":2864:2868   */\n      dup3\n        /* \"#utility.yul\":2860:2872   */\n      and\n        /* \"#utility.yul\":2891:2909   */\n      dup1\n        /* \"#utility.yul\":2881:2962   */\n      tag_121\n      jumpi\n        /* \"#utility.yul\":2947:2951   */\n      0x7f\n        /* \"#utility.yul\":2939:2945   */\n      dup3\n        /* \"#utility.yul\":2935:2952   */\n      and\n        /* \"#utility.yul\":2925:2952   */\n      swap2\n      pop\n        /* \"#utility.yul\":2881:2962   */\n    tag_121:\n        /* \"#utility.yul\":3009:3011   */\n      0x20\n        /* \"#utility.yul\":3001:3007   */\n      dup3\n        /* \"#utility.yul\":2998:3012   */\n      lt\n        /* \"#utility.yul\":2978:2996   */\n      dup2\n        /* \"#utility.yul\":2975:3013   */\n      sub\n        /* \"#utility.yul\":2972:3056   */\n      tag_122\n      jumpi\n        /* \"#utility.yul\":3028:3046   */\n      tag_123\n      tag_57\n      jump\t// in\n    tag_123:\n        /* \"#utility.yul\":2972:3056   */\n    tag_122:\n        /* \"#utility.yul\":2793:3062   */\n      pop\n        /* \"#utility.yul\":2742:3062   */\n      swap2\n      swap1\n      pop\n      jump\t// out\n        /* \"#utility.yul\":3068:3215   */\n    tag_58:\n        /* \"#utility.yul\":3169:3180   */\n      0x00\n        /* \"#utility.yul\":3206:3209   */\n      dup2\n        /* \"#utility.yul\":3191:3209   */\n      swap1\n      pop\n        /* \"#utility.yul\":3068:3215   */\n      swap3\n      swap2\n      pop\n      pop\n      jump\t// out\n        /* \"#utility.yul\":3221:3594   */\n    tag_59:\n        /* \"#utility.yul\":3325:3328   */\n      0x00\n        /* \"#utility.yul\":3353:3391   */\n      tag_126\n        /* \"#utility.yul\":3385:3390   */\n      dup3\n        /* \"#utility.yul\":3353:3391   */\n      tag_45\n      jump\t// in\n    tag_126:\n        /* \"#utility.yul\":3407:3495   */\n      tag_127\n        /* \"#utility.yul\":3488:3494   */\n      dup2\n        /* \"#utility.yul\":3483:3486   */\n      dup6\n        /* \"#utility.yul\":3407:3495   */\n      tag_58\n      jump\t// in\n    tag_127:\n        /* \"#utility.yul\":3400:3495   */\n      swap4\n      pop\n        /* \"#utility.yul\":3504:3556   */\n      tag_128\n        /* \"#utility.yul\":3549:3555   */\n      dup2\n        /* \"#utility.yul\":3544:3547   */\n      dup6\n        /* \"#utility.yul\":3537:3541   */\n      0x20\n        /* \"#utility.yul\":3530:3535   */\n      dup7\n        /* \"#utility.yul\":3526:3542   */\n      add\n        /* \"#utility.yul\":3504:3556   */\n      tag_47\n      jump\t// in\n    tag_128:\n        /* \"#utility.yul\":3581:3587   */\n      dup1\n        /* \"#utility.yul\":3576:3579   */\n      dup5\n        /* \"#utility.yul\":3572:3588   */\n      add\n        /* \"#utility.yul\":3565:3588   */\n      swap2\n      pop\n        /* \"#utility.yul\":3329:3594   */\n      pop\n        /* \"#utility.yul\":3221:3594   */\n      swap3\n      swap2\n      pop\n      pop\n      jump\t// out\n        /* \"#utility.yul\":3600:3871   */\n    tag_26:\n        /* \"#utility.yul\":3730:3733   */\n      0x00\n        /* \"#utility.yul\":3752:3845   */\n      tag_130\n        /* \"#utility.yul\":3841:3844   */\n      dup3\n        /* \"#utility.yul\":3832:3838   */\n      dup5\n        /* \"#utility.yul\":3752:3845   */\n      tag_59\n      jump\t// in\n    tag_130:\n        /* \"#utility.yul\":3745:3845   */\n      swap2\n      pop\n        /* \"#utility.yul\":3862:3865   */\n      dup2\n        /* \"#utility.yul\":3855:3865   */\n      swap1\n      pop\n        /* \"#utility.yul\":3600:3871   */\n      swap3\n      swap2\n      pop\n      pop\n      jump\t// out\n        /* \"#utility.yul\":3877:4046   */\n    tag_60:\n        /* \"#utility.yul\":3961:3972   */\n      0x00\n        /* \"#utility.yul\":3995:4001   */\n      dup3\n        /* \"#utility.yul\":3990:3993   */\n      dup3\n        /* \"#utility.yul\":3983:4002   */\n      mstore\n        /* \"#utility.yul\":4035:4039   */\n      0x20\n        /* \"#utility.yul\":4030:4033   */\n      dup3\n        /* \"#utility.yul\":4026:4040   */\n      add\n        /* \"#utility.yul\":4011:4040   */\n      swap1\n      pop\n        /* \"#utility.yul\":3877:4046   */\n      swap3\n      swap2\n      pop\n      pop\n      jump\t// out\n        /* \"#utility.yul\":4052:4225   */\n    tag_61:\n        /* \"#utility.yul\":4192:4217   */\n      0x63616c6c20746f2072616e646f6d2829206661696c6564000000000000000000\n        /* \"#utility.yul\":4188:4189   */\n      0x00\n        /* \"#utility.yul\":4180:4186   */\n      dup3\n        /* \"#utility.yul\":4176:4190   */\n      add\n        /* \"#utility.yul\":4169:4218   */\n      mstore\n        /* \"#utility.yul\":4052:4225   */\n      pop\n      jump\t// out\n        /* \"#utility.yul\":4231:4597   */\n    tag_62:\n        /* \"#utility.yul\":4373:4376   */\n      0x00\n        /* \"#utility.yul\":4394:4461   */\n      tag_134\n        /* \"#utility.yul\":4458:4460   */\n      0x17\n        /* \"#utility.yul\":4453:4456   */\n      dup4\n        /* \"#utility.yul\":4394:4461   */\n      tag_60\n      jump\t// in\n    tag_134:\n        /* \"#utility.yul\":4387:4461   */\n      swap2\n      pop\n        /* \"#utility.yul\":4470:4563   */\n      tag_135\n        /* \"#utility.yul\":4559:4562   */\n      dup3\n        /* \"#utility.yul\":4470:4563   */\n      tag_61\n      jump\t// in\n    tag_135:\n        /* \"#utility.yul\":4588:4590   */\n      0x20\n        /* \"#utility.yul\":4583:4586   */\n      dup3\n        /* \"#utility.yul\":4579:4591   */\n      add\n        /* \"#utility.yul\":4572:4591   */\n      swap1\n      pop\n        /* \"#utility.yul\":4231:4597   */\n      swap2\n      swap1\n      pop\n      jump\t// out\n        /* \"#utility.yul\":4603:5022   */\n    tag_32:\n        /* \"#utility.yul\":4769:4773   */\n      0x00\n        /* \"#utility.yul\":4807:4809   */\n      0x20\n        /* \"#utility.yul\":4796:4805   */\n      dup3\n        /* \"#utility.yul\":4792:4810   */\n      add\n        /* \"#utility.yul\":4784:4810   */\n      swap1\n      pop\n        /* \"#utility.yul\":4856:4865   */\n      dup2\n        /* \"#utility.yul\":4850:4854   */\n      dup2\n        /* \"#utility.yul\":4846:4866   */\n      sub\n        /* \"#utility.yul\":4842:4843   */\n      0x00\n        /* \"#utility.yul\":4831:4840   */\n      dup4\n        /* \"#utility.yul\":4827:4844   */\n      add\n        /* \"#utility.yul\":4820:4867   */\n      mstore\n        /* \"#utility.yul\":4884:5015   */\n      tag_137\n        /* \"#utility.yul\":5010:5014   */\n      dup2\n        /* \"#utility.yul\":4884:5015   */\n      tag_62\n      jump\t// in\n    tag_137:\n        /* \"#utility.yul\":4876:5015   */\n      swap1\n      pop\n        /* \"#utility.yul\":4603:5022   */\n      swap2\n      swap1\n      pop\n      jump\t// out\n        /* \"#utility.yul\":5028:5188   */\n    tag_63:\n        /* \"#utility.yul\":5168:5180   */\n      0x6d79206d65737361676500000000000000000000000000000000000000000000\n        /* \"#utility.yul\":5164:5165   */\n      0x00\n        /* \"#utility.yul\":5156:5162   */\n      dup3\n        /* \"#utility.yul\":5152:5166   */\n      add\n        /* \"#utility.yul\":5145:5181   */\n      mstore\n        /* \"#utility.yul\":5028:5188   */\n      pop\n      jump\t// out\n        /* \"#utility.yul\":5194:5560   */\n    tag_64:\n        /* \"#utility.yul\":5336:5339   */\n      0x00\n        /* \"#utility.yul\":5357:5424   */\n      tag_140\n        /* \"#utility.yul\":5421:5423   */\n      0x0a\n        /* \"#utility.yul\":5416:5419   */\n      dup4\n        /* \"#utility.yul\":5357:5424   */\n      tag_60\n      jump\t// in\n    tag_140:\n        /* \"#utility.yul\":5350:5424   */\n      swap2\n      pop\n        /* \"#utility.yul\":5433:5526   */\n      tag_141\n        /* \"#utility.yul\":5522:5525   */\n      dup3\n        /* \"#utility.yul\":5433:5526   */\n      tag_63\n      jump\t// in\n    tag_141:\n        /* \"#utility.yul\":5551:5553   */\n      0x20\n        /* \"#utility.yul\":5546:5549   */\n      dup3\n        /* \"#utility.yul\":5542:5554   */\n      add\n        /* \"#utility.yul\":5535:5554   */\n      swap1\n      pop\n        /* \"#utility.yul\":5194:5560   */\n      swap2\n      swap1\n      pop\n      jump\t// out\n        /* \"#utility.yul\":5566:5653   */\n    tag_65:\n        /* \"#utility.yul\":5613:5620   */\n      0x00\n        /* \"#utility.yul\":5642:5647   */\n      dup2\n        /* \"#utility.yul\":5631:5647   */\n      swap1\n      pop\n        /* \"#utility.yul\":5566:5653   */\n      swap2\n      swap1\n      pop\n      jump\t// out\n        /* \"#utility.yul\":5659:5745   */\n    tag_66:\n        /* \"#utility.yul\":5694:5701   */\n      0x00\n        /* \"#utility.yul\":5734:5738   */\n      0xff\n        /* \"#utility.yul\":5727:5732   */\n      dup3\n        /* \"#utility.yul\":5723:5739   */\n      and\n        /* \"#utility.yul\":5712:5739   */\n      swap1\n      pop\n        /* \"#utility.yul\":5659:5745   */\n      swap2\n      swap1\n      pop\n      jump\t// out\n        /* \"#utility.yul\":5751:5811   */\n    tag_67:\n        /* \"#utility.yul\":5779:5782   */\n      0x00\n        /* \"#utility.yul\":5800:5805   */\n      dup2\n        /* \"#utility.yul\":5793:5805   */\n      swap1\n      pop\n        /* \"#utility.yul\":5751:5811   */\n      swap2\n      swap1\n      pop\n      jump\t// out\n        /* \"#utility.yul\":5817:5975   */\n    tag_68:\n        /* \"#utility.yul\":5875:5884   */\n      0x00\n        /* \"#utility.yul\":5908:5969   */\n      tag_146\n        /* \"#utility.yul\":5924:5968   */\n      tag_147\n        /* \"#utility.yul\":5933:5967   */\n      tag_148\n        /* \"#utility.yul\":5961:5966   */\n      dup5\n        /* \"#utility.yul\":5933:5967   */\n      tag_65\n      jump\t// in\n    tag_148:\n        /* \"#utility.yul\":5924:5968   */\n      tag_67\n      jump\t// in\n    tag_147:\n        /* \"#utility.yul\":5908:5969   */\n      tag_66\n      jump\t// in\n    tag_146:\n        /* \"#utility.yul\":5895:5969   */\n      swap1\n      pop\n        /* \"#utility.yul\":5817:5975   */\n      swap2\n      swap1\n      pop\n      jump\t// out\n        /* \"#utility.yul\":5981:6128   */\n    tag_69:\n        /* \"#utility.yul\":6076:6121   */\n      tag_150\n        /* \"#utility.yul\":6115:6120   */\n      dup2\n        /* \"#utility.yul\":6076:6121   */\n      tag_68\n      jump\t// in\n    tag_150:\n        /* \"#utility.yul\":6071:6074   */\n      dup3\n        /* \"#utility.yul\":6064:6122   */\n      mstore\n        /* \"#utility.yul\":5981:6128   */\n      pop\n      pop\n      jump\t// out\n        /* \"#utility.yul\":6134:6679   */\n    tag_35:\n        /* \"#utility.yul\":6336:6340   */\n      0x00\n        /* \"#utility.yul\":6374:6376   */\n      0x40\n        /* \"#utility.yul\":6363:6372   */\n      dup3\n        /* \"#utility.yul\":6359:6377   */\n      add\n        /* \"#utility.yul\":6351:6377   */\n      swap1\n      pop\n        /* \"#utility.yul\":6423:6432   */\n      dup2\n        /* \"#utility.yul\":6417:6421   */\n      dup2\n        /* \"#utility.yul\":6413:6433   */\n      sub\n        /* \"#utility.yul\":6409:6410   */\n      0x00\n        /* \"#utility.yul\":6398:6407   */\n      dup4\n        /* \"#utility.yul\":6394:6411   */\n      add\n        /* \"#utility.yul\":6387:6434   */\n      mstore\n        /* \"#utility.yul\":6451:6582   */\n      tag_152\n        /* \"#utility.yul\":6577:6581   */\n      dup2\n        /* \"#utility.yul\":6451:6582   */\n      tag_64\n      jump\t// in\n    tag_152:\n        /* \"#utility.yul\":6443:6582   */\n      swap1\n      pop\n        /* \"#utility.yul\":6592:6672   */\n      tag_153\n        /* \"#utility.yul\":6668:6670   */\n      0x20\n        /* \"#utility.yul\":6657:6666   */\n      dup4\n        /* \"#utility.yul\":6653:6671   */\n      add\n        /* \"#utility.yul\":6644:6650   */\n      dup5\n        /* \"#utility.yul\":6592:6672   */\n      tag_69\n      jump\t// in\n    tag_153:\n        /* \"#utility.yul\":6134:6679   */\n      swap3\n      swap2\n      pop\n      pop\n      jump\t// out\n        /* \"#utility.yul\":6685:6853   */\n    tag_70:\n        /* \"#utility.yul\":6825:6845   */\n      0x43616c6c20746f20666f6f206661696c65640000000000000000000000000000\n        /* \"#utility.yul\":6821:6822   */\n      0x00\n        /* \"#utility.yul\":6813:6819   */\n      dup3\n        /* \"#utility.yul\":6809:6823   */\n      add\n        /* \"#utility.yul\":6802:6846   */\n      mstore\n        /* \"#utility.yul\":6685:6853   */\n      pop\n      jump\t// out\n        /* \"#utility.yul\":6859:7225   */\n    tag_71:\n        /* \"#utility.yul\":7001:7004   */\n      0x00\n        /* \"#utility.yul\":7022:7089   */\n      tag_156\n        /* \"#utility.yul\":7086:7088   */\n      0x12\n        /* \"#utility.yul\":7081:7084   */\n      dup4\n        /* \"#utility.yul\":7022:7089   */\n      tag_60\n      jump\t// in\n    tag_156:\n        /* \"#utility.yul\":7015:7089   */\n      swap2\n      pop\n        /* \"#utility.yul\":7098:7191   */\n      tag_157\n        /* \"#utility.yul\":7187:7190   */\n      dup3\n        /* \"#utility.yul\":7098:7191   */\n      tag_70\n      jump\t// in\n    tag_157:\n        /* \"#utility.yul\":7216:7218   */\n      0x20\n        /* \"#utility.yul\":7211:7214   */\n      dup3\n        /* \"#utility.yul\":7207:7219   */\n      add\n        /* \"#utility.yul\":7200:7219   */\n      swap1\n      pop\n        /* \"#utility.yul\":6859:7225   */\n      swap2\n      swap1\n      pop\n      jump\t// out\n        /* \"#utility.yul\":7231:7650   */\n    tag_42:\n        /* \"#utility.yul\":7397:7401   */\n      0x00\n        /* \"#utility.yul\":7435:7437   */\n      0x20\n        /* \"#utility.yul\":7424:7433   */\n      dup3\n        /* \"#utility.yul\":7420:7438   */\n      add\n        /* \"#utility.yul\":7412:7438   */\n      swap1\n      pop\n        /* \"#utility.yul\":7484:7493   */\n      dup2\n        /* \"#utility.yul\":7478:7482   */\n      dup2\n        /* \"#utility.yul\":7474:7494   */\n      sub\n        /* \"#utility.yul\":7470:7471   */\n      0x00\n        /* \"#utility.yul\":7459:7468   */\n      dup4\n        /* \"#utility.yul\":7455:7472   */\n      add\n        /* \"#utility.yul\":7448:7495   */\n      mstore\n        /* \"#utility.yul\":7512:7643   */\n      tag_159\n        /* \"#utility.yul\":7638:7642   */\n      dup2\n        /* \"#utility.yul\":7512:7643   */\n      tag_71\n      jump\t// in\n    tag_159:\n        /* \"#utility.yul\":7504:7643   */\n      swap1\n      pop\n        /* \"#utility.yul\":7231:7650   */\n      swap2\n      swap1\n      pop\n      jump\t// out\n        /* \"#utility.yul\":7656:7836   */\n    tag_72:\n        /* \"#utility.yul\":7704:7781   */\n      0x4e487b7100000000000000000000000000000000000000000000000000000000\n        /* \"#utility.yul\":7701:7702   */\n      0x00\n        /* \"#utility.yul\":7694:7782   */\n      mstore\n        /* \"#utility.yul\":7801:7805   */\n      0x41\n        /* \"#utility.yul\":7798:7799   */\n      0x04\n        /* \"#utility.yul\":7791:7806   */\n      mstore\n        /* \"#utility.yul\":7825:7829   */\n      0x24\n        /* \"#utility.yul\":7822:7823   */\n      0x00\n        /* \"#utility.yul\":7815:7830   */\n      revert\n        /* \"#utility.yul\":7842:7982   */\n    tag_73:\n        /* \"#utility.yul\":7890:7894   */\n      0x00\n        /* \"#utility.yul\":7913:7916   */\n      dup2\n        /* \"#utility.yul\":7905:7916   */\n      swap1\n      pop\n        /* \"#utility.yul\":7936:7939   */\n      dup2\n        /* \"#utility.yul\":7933:7934   */\n      0x00\n        /* \"#utility.yul\":7926:7940   */\n      mstore\n        /* \"#utility.yul\":7970:7974   */\n      0x20\n        /* \"#utility.yul\":7967:7968   */\n      0x00\n        /* \"#utility.yul\":7957:7975   */\n      keccak256\n        /* \"#utility.yul\":7949:7975   */\n      swap1\n      pop\n        /* \"#utility.yul\":7842:7982   */\n      swap2\n      swap1\n      pop\n      jump\t// out\n        /* \"#utility.yul\":7988:8081   */\n    tag_74:\n        /* \"#utility.yul\":8025:8031   */\n      0x00\n        /* \"#utility.yul\":8072:8074   */\n      0x20\n        /* \"#utility.yul\":8067:8069   */\n      0x1f\n        /* \"#utility.yul\":8060:8065   */\n      dup4\n        /* \"#utility.yul\":8056:8070   */\n      add\n        /* \"#utility.yul\":8052:8075   */\n      div\n        /* \"#utility.yul\":8042:8075   */\n      swap1\n      pop\n        /* \"#utility.yul\":7988:8081   */\n      swap2\n      swap1\n      pop\n      jump\t// out\n        /* \"#utility.yul\":8087:8194   */\n    tag_75:\n        /* \"#utility.yul\":8131:8139   */\n      0x00\n        /* \"#utility.yul\":8181:8186   */\n      dup3\n        /* \"#utility.yul\":8175:8179   */\n      dup3\n        /* \"#utility.yul\":8171:8187   */\n      shl\n        /* \"#utility.yul\":8150:8187   */\n      swap1\n      pop\n        /* \"#utility.yul\":8087:8194   */\n      swap3\n      swap2\n      pop\n      pop\n      jump\t// out\n        /* \"#utility.yul\":8200:8593   */\n    tag_76:\n        /* \"#utility.yul\":8269:8275   */\n      0x00\n        /* \"#utility.yul\":8319:8320   */\n      0x08\n        /* \"#utility.yul\":8307:8317   */\n      dup4\n        /* \"#utility.yul\":8303:8321   */\n      mul\n        /* \"#utility.yul\":8342:8439   */\n      tag_165\n        /* \"#utility.yul\":8372:8438   */\n      0xffffffffffffffffffffffffffffffffffffffffffffffffffffffffffffffff\n        /* \"#utility.yul\":8361:8370   */\n      dup3\n        /* \"#utility.yul\":8342:8439   */\n      tag_75\n      jump\t// in\n    tag_165:\n        /* \"#utility.yul\":8460:8499   */\n      tag_166\n        /* \"#utility.yul\":8490:8498   */\n      dup7\n        /* \"#utility.yul\":8479:8488   */\n      dup4\n        /* \"#utility.yul\":8460:8499   */\n      tag_75\n      jump\t// in\n    tag_166:\n        /* \"#utility.yul\":8448:8499   */\n      swap6\n      pop\n        /* \"#utility.yul\":8532:8536   */\n      dup1\n        /* \"#utility.yul\":8528:8537   */\n      not\n        /* \"#utility.yul\":8521:8526   */\n      dup5\n        /* \"#utility.yul\":8517:8538   */\n      and\n        /* \"#utility.yul\":8508:8538   */\n      swap4\n      pop\n        /* \"#utility.yul\":8581:8585   */\n      dup1\n        /* \"#utility.yul\":8571:8579   */\n      dup7\n        /* \"#utility.yul\":8567:8586   */\n      and\n        /* \"#utility.yul\":8560:8565   */\n      dup5\n        /* \"#utility.yul\":8557:8587   */\n      or\n        /* \"#utility.yul\":8547:8587   */\n      swap3\n      pop\n        /* \"#utility.yul\":8276:8593   */\n      pop\n      pop\n        /* \"#utility.yul\":8200:8593   */\n      swap4\n      swap3\n      pop\n      pop\n      pop\n      jump\t// out\n        /* \"#utility.yul\":8599:8676   */\n    tag_77:\n        /* \"#utility.yul\":8636:8643   */\n      0x00\n        /* \"#utility.yul\":8665:8670   */\n      dup2\n        /* \"#utility.yul\":8654:8670   */\n      swap1\n      pop\n        /* \"#utility.yul\":8599:8676   */\n      swap2\n      swap1\n      pop\n      jump\t// out\n        /* \"#utility.yul\":8682:8824   */\n    tag_78:\n        /* \"#utility.yul\":8732:8741   */\n      0x00\n        /* \"#utility.yul\":8765:8818   */\n      tag_169\n        /* \"#utility.yul\":8783:8817   */\n      tag_170\n        /* \"#utility.yul\":8792:8816   */\n      tag_171\n        /* \"#utility.yul\":8810:8815   */\n      dup5\n        /* \"#utility.yul\":8792:8816   */\n      tag_77\n      jump\t// in\n    tag_171:\n        /* \"#utility.yul\":8783:8817   */\n      tag_67\n      jump\t// in\n    tag_170:\n        /* \"#utility.yul\":8765:8818   */\n      tag_77\n      jump\t// in\n    tag_169:\n        /* \"#utility.yul\":8752:8818   */\n      swap1\n      pop\n        /* \"#utility.yul\":8682:8824   */\n      swap2\n      swap1\n      pop\n      jump\t// out\n        /* \"#utility.yul\":8830:8905   */\n    tag_79:\n        /* \"#utility.yul\":8873:8876   */\n      0x00\n        /* \"#utility.yul\":8894:8899   */\n      dup2\n        /* \"#utility.yul\":8887:8899   */\n      swap1\n      pop\n        /* \"#utility.yul\":8830:8905   */\n      swap2\n      swap1\n      pop\n      jump\t// out\n        /* \"#utility.yul\":8911:9180   */\n    tag_80:\n        /* \"#utility.yul\":9021:9060   */\n      tag_174\n        /* \"#utility.yul\":9052:9059   */\n      dup4\n        /* \"#utility.yul\":9021:9060   */\n      tag_78\n      jump\t// in\n    tag_174:\n        /* \"#utility.yul\":9082:9173   */\n      tag_175\n        /* \"#utility.yul\":9131:9172   */\n      tag_176\n        /* \"#utility.yul\":9155:9171   */\n      dup3\n        /* \"#utility.yul\":9131:9172   */\n      tag_79\n      jump\t// in\n    tag_176:\n        /* \"#utility.yul\":9123:9129   */\n      dup5\n        /* \"#utility.yul\":9116:9120   */\n      dup5\n        /* \"#utility.yul\":9110:9121   */\n      sload\n        /* \"#utility.yul\":9082:9173   */\n      tag_76\n      jump\t// in\n    tag_175:\n        /* \"#utility.yul\":9076:9080   */\n      dup3\n        /* \"#utility.yul\":9069:9174   */\n      sstore\n        /* \"#utility.yul\":8987:9180   */\n      pop\n        /* \"#utility.yul\":8911:9180   */\n      pop\n      pop\n      pop\n      jump\t// out\n        /* \"#utility.yul\":9186:9259   */\n    tag_81:\n        /* \"#utility.yul\":9231:9234   */\n      0x00\n        /* \"#utility.yul\":9186:9259   */\n      swap1\n      jump\t// out\n        /* \"#utility.yul\":9265:9454   */\n    tag_82:\n        /* \"#utility.yul\":9342:9374   */\n      tag_179\n      tag_81\n      jump\t// in\n    tag_179:\n        /* \"#utility.yul\":9383:9448   */\n      tag_180\n        /* \"#utility.yul\":9441:9447   */\n      dup2\n        /* \"#utility.yul\":9433:9439   */\n      dup5\n        /* \"#utility.yul\":9427:9431   */\n      dup5\n        /* \"#utility.yul\":9383:9448   */\n      tag_80\n      jump\t// in\n    tag_180:\n        /* \"#utility.yul\":9318:9454   */\n      pop\n        /* \"#utility.yul\":9265:9454   */\n      pop\n      pop\n      jump\t// out\n        /* \"#utility.yul\":9460:9646   */\n    tag_83:\n        /* \"#utility.yul\":9520:9640   */\n    tag_182:\n        /* \"#utility.yul\":9537:9540   */\n      dup2\n        /* \"#utility.yul\":9530:9535   */\n      dup2\n        /* \"#utility.yul\":9527:9541   */\n      lt\n        /* \"#utility.yul\":9520:9640   */\n      iszero\n      tag_184\n      jumpi\n        /* \"#utility.yul\":9591:9630   */\n      tag_185\n        /* \"#utility.yul\":9628:9629   */\n      0x00\n        /* \"#utility.yul\":9621:9626   */\n      dup3\n        /* \"#utility.yul\":9591:9630   */\n      tag_82\n      jump\t// in\n    tag_185:\n        /* \"#utility.yul\":9564:9565   */\n      0x01\n        /* \"#utility.yul\":9557:9562   */\n      dup2\n        /* \"#utility.yul\":9553:9566   */\n      add\n        /* \"#utility.yul\":9544:9566   */\n      swap1\n      pop\n        /* \"#utility.yul\":9520:9640   */\n      jump(tag_182)\n    tag_184:\n        /* \"#utility.yul\":9460:9646   */\n      pop\n      pop\n      jump\t// out\n        /* \"#utility.yul\":9652:10193   */\n    tag_84:\n        /* \"#utility.yul\":9752:9754   */\n      0x1f\n        /* \"#utility.yul\":9747:9750   */\n      dup3\n        /* \"#utility.yul\":9744:9755   */\n      gt\n        /* \"#utility.yul\":9741:10186   */\n      iszero\n      tag_187\n      jumpi\n        /* \"#utility.yul\":9786:9823   */\n      tag_188\n        /* \"#utility.yul\":9817:9822   */\n      dup2\n        /* \"#utility.yul\":9786:9823   */\n      tag_73\n      jump\t// in\n    tag_188:\n        /* \"#utility.yul\":9869:9898   */\n      tag_189\n        /* \"#utility.yul\":9887:9897   */\n      dup5\n        /* \"#utility.yul\":9869:9898   */\n      tag_74\n      jump\t// in\n    tag_189:\n        /* \"#utility.yul\":9859:9867   */\n      dup2\n        /* \"#utility.yul\":9855:9899   */\n      add\n        /* \"#utility.yul\":10052:10054   */\n      0x20\n        /* \"#utility.yul\":10040:10050   */\n      dup6\n        /* \"#utility.yul\":10037:10055   */\n      lt\n        /* \"#utility.yul\":10034:10083   */\n      iszero\n      tag_190\n      jumpi\n        /* \"#utility.yul\":10073:10081   */\n      dup2\n        /* \"#utility.yul\":10058:10081   */\n      swap1\n      pop\n        /* \"#utility.yul\":10034:10083   */\n    tag_190:\n        /* \"#utility.yul\":10096:10176   */\n      tag_191\n        /* \"#utility.yul\":10152:10174   */\n      tag_192\n        /* \"#utility.yul\":10170:10173   */\n      dup6\n        /* \"#utility.yul\":10152:10174   */\n      tag_74\n      jump\t// in\n    tag_192:\n        /* \"#utility.yul\":10142:10150   */\n      dup4\n        /* \"#utility.yul\":10138:10175   */\n      add\n        /* \"#utility.yul\":10125:10136   */\n      dup3\n        /* \"#utility.yul\":10096:10176   */\n      tag_83\n      jump\t// in\n    tag_191:\n        /* \"#utility.yul\":9756:10186   */\n      pop\n      pop\n        /* \"#utility.yul\":9741:10186   */\n    tag_187:\n        /* \"#utility.yul\":9652:10193   */\n      pop\n      pop\n      pop\n      jump\t// out\n        /* \"#utility.yul\":10199:10316   */\n    tag_85:\n        /* \"#utility.yul\":10253:10261   */\n      0x00\n        /* \"#utility.yul\":10303:10308   */\n      dup3\n        /* \"#utility.yul\":10297:10301   */\n      dup3\n        /* \"#utility.yul\":10293:10309   */\n      shr\n        /* \"#utility.yul\":10272:10309   */\n      swap1\n      pop\n        /* \"#utility.yul\":10199:10316   */\n      swap3\n      swap2\n      pop\n      pop\n      jump\t// out\n        /* \"#utility.yul\":10322:10491   */\n    tag_86:\n        /* \"#utility.yul\":10366:10372   */\n      0x00\n        /* \"#utility.yul\":10399:10450   */\n      tag_195\n        /* \"#utility.yul\":10447:10448   */\n      0x00\n        /* \"#utility.yul\":10443:10449   */\n      not\n        /* \"#utility.yul\":10435:10440   */\n      dup5\n        /* \"#utility.yul\":10432:10433   */\n      0x08\n        /* \"#utility.yul\":10428:10441   */\n      mul\n        /* \"#utility.yul\":10399:10450   */\n      tag_85\n      jump\t// in\n    tag_195:\n        /* \"#utility.yul\":10395:10451   */\n      not\n        /* \"#utility.yul\":10480:10484   */\n      dup1\n        /* \"#utility.yul\":10474:10478   */\n      dup4\n        /* \"#utility.yul\":10470:10485   */\n      and\n        /* \"#utility.yul\":10460:10485   */\n      swap2\n      pop\n        /* \"#utility.yul\":10373:10491   */\n      pop\n        /* \"#utility.yul\":10322:10491   */\n      swap3\n      swap2\n      pop\n      pop\n      jump\t// out\n        /* \"#utility.yul\":10496:10791   */\n    tag_87:\n        /* \"#utility.yul\":10572:10576   */\n      0x00\n        /* \"#utility.yul\":10718:10747   */\n      tag_197\n        /* \"#utility.yul\":10743:10746   */\n      dup4\n        /* \"#utility.yul\":10737:10741   */\n      dup4\n        /* \"#utility.yul\":10718:10747   */\n      tag_86\n      jump\t// in\n    tag_197:\n        /* \"#utility.yul\":10710:10747   */\n      swap2\n      pop\n        /* \"#utility.yul\":10780:10783   */\n      dup3\n        /* \"#utility.yul\":10777:10778   */\n      0x02\n        /* \"#utility.yul\":10773:10784   */\n      mul\n        /* \"#utility.yul\":10767:10771   */\n      dup3\n        /* \"#utility.yul\":10764:10785   */\n      or\n        /* \"#utility.yul\":10756:10785   */\n      swap1\n      pop\n        /* \"#utility.yul\":10496:10791   */\n      swap3\n      swap2\n      pop\n      pop\n      jump\t// out\n        /* \"#utility.yul\":10796:12186   */\n    tag_44:\n        /* \"#utility.yul\":10911:10947   */\n      tag_199\n        /* \"#utility.yul\":10943:10946   */\n      dup3\n        /* \"#utility.yul\":10911:10947   */\n      tag_45\n      jump\t// in\n    tag_199:\n        /* \"#utility.yul\":11012:11030   */\n      0xffffffffffffffff\n        /* \"#utility.yul\":11004:11010   */\n      dup2\n        /* \"#utility.yul\":11001:11031   */\n      gt\n        /* \"#utility.yul\":10998:11054   */\n      iszero\n      tag_200\n      jumpi\n        /* \"#utility.yul\":11034:11052   */\n      tag_201\n      tag_72\n      jump\t// in\n    tag_201:\n        /* \"#utility.yul\":10998:11054   */\n    tag_200:\n        /* \"#utility.yul\":11078:11116   */\n      tag_202\n        /* \"#utility.yul\":11110:11114   */\n      dup3\n        /* \"#utility.yul\":11104:11115   */\n      sload\n        /* \"#utility.yul\":11078:11116   */\n      tag_19\n      jump\t// in\n    tag_202:\n        /* \"#utility.yul\":11163:11229   */\n      tag_203\n        /* \"#utility.yul\":11222:11228   */\n      dup3\n        /* \"#utility.yul\":11214:11220   */\n      dup3\n        /* \"#utility.yul\":11208:11212   */\n      dup6\n        /* \"#utility.yul\":11163:11229   */\n      tag_84\n      jump\t// in\n    tag_203:\n        /* \"#utility.yul\":11256:11257   */\n      0x00\n        /* \"#utility.yul\":11280:11284   */\n      0x20\n        /* \"#utility.yul\":11267:11284   */\n      swap1\n      pop\n        /* \"#utility.yul\":11312:11314   */\n      0x1f\n        /* \"#utility.yul\":11304:11310   */\n      dup4\n        /* \"#utility.yul\":11301:11315   */\n      gt\n        /* \"#utility.yul\":11329:11330   */\n      0x01\n        /* \"#utility.yul\":11324:11941   */\n      dup2\n      eq\n      tag_205\n      jumpi\n        /* \"#utility.yul\":11985:11986   */\n      0x00\n        /* \"#utility.yul\":12002:12008   */\n      dup5\n        /* \"#utility.yul\":11999:12076   */\n      iszero\n      tag_206\n      jumpi\n        /* \"#utility.yul\":12051:12060   */\n      dup3\n        /* \"#utility.yul\":12046:12049   */\n      dup8\n        /* \"#utility.yul\":12042:12061   */\n      add\n        /* \"#utility.yul\":12036:12062   */\n      mload\n        /* \"#utility.yul\":12027:12062   */\n      swap1\n      pop\n        /* \"#utility.yul\":11999:12076   */\n    tag_206:\n        /* \"#utility.yul\":12102:12169   */\n      tag_207\n        /* \"#utility.yul\":12162:12168   */\n      dup6\n        /* \"#utility.yul\":12155:12160   */\n      dup3\n        /* \"#utility.yul\":12102:12169   */\n      tag_87\n      jump\t// in\n    tag_207:\n        /* \"#utility.yul\":12096:12100   */\n      dup7\n        /* \"#utility.yul\":12089:12170   */\n      sstore\n        /* \"#utility.yul\":11958:12180   */\n      pop\n        /* \"#utility.yul\":11294:12180   */\n      jump(tag_204)\n        /* \"#utility.yul\":11324:11941   */\n    tag_205:\n        /* \"#utility.yul\":11376:11380   */\n      0x1f\n        /* \"#utility.yul\":11372:11381   */\n      not\n        /* \"#utility.yul\":11364:11370   */\n      dup5\n        /* \"#utility.yul\":11360:11382   */\n      and\n        /* \"#utility.yul\":11410:11446   */\n      tag_208\n        /* \"#utility.yul\":11441:11445   */\n      dup7\n        /* \"#utility.yul\":11410:11446   */\n      tag_73\n      jump\t// in\n    tag_208:\n        /* \"#utility.yul\":11468:11469   */\n      0x00\n        /* \"#utility.yul\":11482:11690   */\n    tag_209:\n        /* \"#utility.yul\":11496:11503   */\n      dup3\n        /* \"#utility.yul\":11493:11494   */\n      dup2\n        /* \"#utility.yul\":11490:11504   */\n      lt\n        /* \"#utility.yul\":11482:11690   */\n      iszero\n      tag_211\n      jumpi\n        /* \"#utility.yul\":11575:11584   */\n      dup5\n        /* \"#utility.yul\":11570:11573   */\n      dup10\n        /* \"#utility.yul\":11566:11585   */\n      add\n        /* \"#utility.yul\":11560:11586   */\n      mload\n        /* \"#utility.yul\":11552:11558   */\n      dup3\n        /* \"#utility.yul\":11545:11587   */\n      sstore\n        /* \"#utility.yul\":11626:11627   */\n      0x01\n        /* \"#utility.yul\":11618:11624   */\n      dup3\n        /* \"#utility.yul\":11614:11628   */\n      add\n        /* \"#utility.yul\":11604:11628   */\n      swap2\n      pop\n        /* \"#utility.yul\":11673:11675   */\n      0x20\n        /* \"#utility.yul\":11662:11671   */\n      dup6\n        /* \"#utility.yul\":11658:11676   */\n      add\n        /* \"#utility.yul\":11645:11676   */\n      swap5\n      pop\n        /* \"#utility.yul\":11519:11523   */\n      0x20\n        /* \"#utility.yul\":11516:11517   */\n      dup2\n        /* \"#utility.yul\":11512:11524   */\n      add\n        /* \"#utility.yul\":11507:11524   */\n      swap1\n      pop\n        /* \"#utility.yul\":11482:11690   */\n      jump(tag_209)\n    tag_211:\n        /* \"#utility.yul\":11718:11724   */\n      dup7\n        /* \"#utility.yul\":11709:11716   */\n      dup4\n        /* \"#utility.yul\":11706:11725   */\n      lt\n        /* \"#utility.yul\":11703:11882   */\n      iszero\n      tag_212\n      jumpi\n        /* \"#utility.yul\":11776:11785   */\n      dup5\n        /* \"#utility.yul\":11771:11774   */\n      dup10\n        /* \"#utility.yul\":11767:11786   */\n      add\n        /* \"#utility.yul\":11761:11787   */\n      mload\n        /* \"#utility.yul\":11819:11867   */\n      tag_213\n        /* \"#utility.yul\":11861:11865   */\n      0x1f\n        /* \"#utility.yul\":11853:11859   */\n      dup10\n        /* \"#utility.yul\":11849:11866   */\n      and\n        /* \"#utility.yul\":11838:11847   */\n      dup3\n        /* \"#utility.yul\":11819:11867   */\n      tag_86\n      jump\t// in\n    tag_213:\n        /* \"#utility.yul\":11811:11817   */\n      dup4\n        /* \"#utility.yul\":11804:11868   */\n      sstore\n        /* \"#utility.yul\":11726:11882   */\n      pop\n        /* \"#utility.yul\":11703:11882   */\n    tag_212:\n        /* \"#utility.yul\":11928:11929   */\n      0x01\n        /* \"#utility.yul\":11924:11925   */\n      0x02\n        /* \"#utility.yul\":11916:11922   */\n      dup9\n        /* \"#utility.yul\":11912:11926   */\n      mul\n        /* \"#utility.yul\":11908:11930   */\n      add\n        /* \"#utility.yul\":11902:11906   */\n      dup9\n        /* \"#utility.yul\":11895:11931   */\n      sstore\n        /* \"#utility.yul\":11331:11941   */\n      pop\n      pop\n      pop\n        /* \"#utility.yul\":11294:12180   */\n    tag_204:\n      pop\n        /* \"#utility.yul\":10886:12186   */\n      pop\n      pop\n      pop\n        /* \"#utility.yul\":10796:12186   */\n      pop\n      pop\n      jump\t// out\n\n    auxdata: 0xa2646970667358221220695497fd85fbf910d28d4387541fb2f5035ba164ddc7a507743006bb676d57e964736f6c634300080f0033\n}\n",
				"bytecode": {
					"linkReferences": {},
					"object": "608060405234801561001057600080fd5b50610a5a806100206000396000f3fe6080604052600436106100345760003560e01c806373d4a13a14610039578063b0feeff614610064578063edcbe76c1461008d575b600080fd5b34801561004557600080fd5b5061004e6100a9565b60405161005b919061045d565b60405180910390f35b34801561007057600080fd5b5061008b600480360381019061008691906104e2565b610137565b005b6100a760048036038101906100a291906104e2565b61026a565b005b600080546100b69061053e565b80601f01602080910402602001604051908101604052809291908181526020018280546100e29061053e565b801561012f5780601f106101045761010080835404028352916020019161012f565b820191906000526020600020905b81548152906001019060200180831161011257829003601f168201915b505050505081565b60008173ffffffffffffffffffffffffffffffffffffffff166040516024016040516020818303038152906040527f5ec01e4d000000000000000000000000000000000000000000000000000000007bffffffffffffffffffffffffffffffffffffffffffffffffffffffff19166020820180517bffffffffffffffffffffffffffffffffffffffffffffffffffffffff83818316178352505050506040516101e091906105ab565b6000604051808303816000865af19150503d806000811461021d576040519150601f19603f3d011682016040523d82523d6000602084013e610222565b606091505b5050905080610266576040517f08c379a000000000000000000000000000000000000000000000000000000000815260040161025d9061061f565b60405180910390fd5b5050565b6000808273ffffffffffffffffffffffffffffffffffffffff166103e861138890607b60405160240161029d91906106dd565b6040516020818303038152906040527f24ccab8f000000000000000000000000000000000000000000000000000000007bffffffffffffffffffffffffffffffffffffffffffffffffffffffff19166020820180517bffffffffffffffffffffffffffffffffffffffffffffffffffffffff838183161783525050505060405161032791906105ab565b600060405180830381858888f193505050503d8060008114610365576040519150601f19603f3d011682016040523d82523d6000602084013e61036a565b606091505b5091509150816103af576040517f08c379a00000000000000000000000000000000000000000000000000000000081526004016103a690610757565b60405180910390fd5b80600090816103be9190610952565b50505050565b600081519050919050565b600082825260208201905092915050565b60005b838110156103fe5780820151818401526020810190506103e3565b8381111561040d576000848401525b50505050565b6000601f19601f8301169050919050565b600061042f826103c4565b61043981856103cf565b93506104498185602086016103e0565b61045281610413565b840191505092915050565b600060208201905081810360008301526104778184610424565b905092915050565b600080fd5b600073ffffffffffffffffffffffffffffffffffffffff82169050919050565b60006104af82610484565b9050919050565b6104bf816104a4565b81146104ca57600080fd5b50565b6000813590506104dc816104b6565b92915050565b6000602082840312156104f8576104f761047f565b5b6000610506848285016104cd565b91505092915050565b7f4e487b7100000000000000000000000000000000000000000000000000000000600052602260045260246000fd5b6000600282049050600182168061055657607f821691505b6020821081036105695761056861050f565b5b50919050565b600081905092915050565b6000610585826103c4565b61058f818561056f565b935061059f8185602086016103e0565b80840191505092915050565b60006105b7828461057a565b915081905092915050565b600082825260208201905092915050565b7f63616c6c20746f2072616e646f6d2829206661696c6564000000000000000000600082015250565b60006106096017836105c2565b9150610614826105d3565b602082019050919050565b60006020820190508181036000830152610638816105fc565b9050919050565b7f6d79206d65737361676500000000000000000000000000000000000000000000600082015250565b6000610675600a836105c2565b91506106808261063f565b602082019050919050565b6000819050919050565b600060ff82169050919050565b6000819050919050565b60006106c76106c26106bd8461068b565b6106a2565b610695565b9050919050565b6106d7816106ac565b82525050565b600060408201905081810360008301526106f681610668565b905061070560208301846106ce565b92915050565b7f43616c6c20746f20666f6f206661696c65640000000000000000000000000000600082015250565b60006107416012836105c2565b915061074c8261070b565b602082019050919050565b6000602082019050818103600083015261077081610734565b9050919050565b7f4e487b7100000000000000000000000000000000000000000000000000000000600052604160045260246000fd5b60008190508160005260206000209050919050565b60006020601f8301049050919050565b600082821b905092915050565b6000600883026108087fffffffffffffffffffffffffffffffffffffffffffffffffffffffffffffffff826107cb565b61081286836107cb565b95508019841693508086168417925050509392505050565b6000819050919050565b600061084f61084a6108458461082a565b6106a2565b61082a565b9050919050565b6000819050919050565b61086983610834565b61087d61087582610856565b8484546107d8565b825550505050565b600090565b610892610885565b61089d818484610860565b505050565b5b818110156108c1576108b660008261088a565b6001810190506108a3565b5050565b601f821115610906576108d7816107a6565b6108e0846107bb565b810160208510156108ef578190505b6109036108fb856107bb565b8301826108a2565b50505b505050565b600082821c905092915050565b60006109296000198460080261090b565b1980831691505092915050565b60006109428383610918565b9150826002028217905092915050565b61095b826103c4565b67ffffffffffffffff81111561097457610973610777565b5b61097e825461053e565b6109898282856108c5565b600060209050601f8311600181146109bc57600084156109aa578287015190505b6109b48582610936565b865550610a1c565b601f1984166109ca866107a6565b60005b828110156109f2578489015182556001820191506020850194506020810190506109cd565b86831015610a0f5784890151610a0b601f891682610918565b8355505b6001600288020188555050505b50505050505056fea2646970667358221220695497fd85fbf910d28d4387541fb2f5035ba164ddc7a507743006bb676d57e964736f6c634300080f0033",
					"opcodes": "PUSH1 0x80 PUSH1 0x40 MSTORE CALLVALUE DUP1 ISZERO PUSH2 0x10 JUMPI PUSH1 0x0 DUP1 REVERT JUMPDEST POP PUSH2 0xA5A DUP1 PUSH2 0x20 PUSH1 0x0 CODECOPY PUSH1 0x0 RETURN INVALID PUSH1 0x80 PUSH1 0x40 MSTORE PUSH1 0x4 CALLDATASIZE LT PUSH2 0x34 JUMPI PUSH1 0x0 CALLDATALOAD PUSH1 0xE0 SHR DUP1 PUSH4 0x73D4A13A EQ PUSH2 0x39 JUMPI DUP1 PUSH4 0xB0FEEFF6 EQ PUSH2 0x64 JUMPI DUP1 PUSH4 0xEDCBE76C EQ PUSH2 0x8D JUMPI JUMPDEST PUSH1 0x0 DUP1 REVERT JUMPDEST CALLVALUE DUP1 ISZERO PUSH2 0x45 JUMPI PUSH1 0x0 DUP1 REVERT JUMPDEST POP PUSH2 0x4E PUSH2 0xA9 JUMP JUMPDEST PUSH1 0x40 MLOAD PUSH2 0x5B SWAP2 SWAP1 PUSH2 0x45D JUMP JUMPDEST PUSH1 0x40 MLOAD DUP1 SWAP2 SUB SWAP1 RETURN JUMPDEST CALLVALUE DUP1 ISZERO PUSH2 0x70 JUMPI PUSH1 0x0 DUP1 REVERT JUMPDEST POP PUSH2 0x8B PUSH1 0x4 DUP1 CALLDATASIZE SUB DUP2 ADD SWAP1 PUSH2 0x86 SWAP2 SWAP1 PUSH2 0x4E2 JUMP JUMPDEST PUSH2 0x137 JUMP JUMPDEST STOP JUMPDEST PUSH2 0xA7 PUSH1 0x4 DUP1 CALLDATASIZE SUB DUP2 ADD SWAP1 PUSH2 0xA2 SWAP2 SWAP1 PUSH2 0x4E2 JUMP JUMPDEST PUSH2 0x26A JUMP JUMPDEST STOP JUMPDEST PUSH1 0x0 DUP1 SLOAD PUSH2 0xB6 SWAP1 PUSH2 0x53E JUMP JUMPDEST DUP1 PUSH1 0x1F ADD PUSH1 0x20 DUP1 SWAP2 DIV MUL PUSH1 0x20 ADD PUSH1 0x40 MLOAD SWAP1 DUP2 ADD PUSH1 0x40 MSTORE DUP1 SWAP3 SWAP2 SWAP1 DUP2 DUP2 MSTORE PUSH1 0x20 ADD DUP3 DUP1 SLOAD PUSH2 0xE2 SWAP1 PUSH2 0x53E JUMP JUMPDEST DUP1 ISZERO PUSH2 0x12F JUMPI DUP1 PUSH1 0x1F LT PUSH2 0x104 JUMPI PUSH2 0x100 DUP1 DUP4 SLOAD DIV MUL DUP4 MSTORE SWAP2 PUSH1 0x20 ADD SWAP2 PUSH2 0x12F JUMP JUMPDEST DUP3 ADD SWAP2 SWAP1 PUSH1 0x0 MSTORE PUSH1 0x20 PUSH1 0x0 KECCAK256 SWAP1 JUMPDEST DUP2 SLOAD DUP2 MSTORE SWAP1 PUSH1 0x1 ADD SWAP1 PUSH1 0x20 ADD DUP1 DUP4 GT PUSH2 0x112 JUMPI DUP3 SWAP1 SUB PUSH1 0x1F AND DUP3 ADD SWAP2 JUMPDEST POP POP POP POP POP DUP2 JUMP JUMPDEST PUSH1 0x0 DUP2 PUSH20 0xFFFFFFFFFFFFFFFFFFFFFFFFFFFFFFFFFFFFFFFF AND PUSH1 0x40 MLOAD PUSH1 0x24 ADD PUSH1 0x40 MLOAD PUSH1 0x20 DUP2 DUP4 SUB SUB DUP2 MSTORE SWAP1 PUSH1 0x40 MSTORE PUSH32 0x5EC01E4D00000000000000000000000000000000000000000000000000000000 PUSH28 0xFFFFFFFFFFFFFFFFFFFFFFFFFFFFFFFFFFFFFFFFFFFFFFFFFFFFFFFF NOT AND PUSH1 0x20 DUP3 ADD DUP1 MLOAD PUSH28 0xFFFFFFFFFFFFFFFFFFFFFFFFFFFFFFFFFFFFFFFFFFFFFFFFFFFFFFFF DUP4 DUP2 DUP4 AND OR DUP4 MSTORE POP POP POP POP PUSH1 0x40 MLOAD PUSH2 0x1E0 SWAP2 SWAP1 PUSH2 0x5AB JUMP JUMPDEST PUSH1 0x0 PUSH1 0x40 MLOAD DUP1 DUP4 SUB DUP2 PUSH1 0x0 DUP7 GAS CALL SWAP2 POP POP RETURNDATASIZE DUP1 PUSH1 0x0 DUP2 EQ PUSH2 0x21D JUMPI PUSH1 0x40 MLOAD SWAP2 POP PUSH1 0x1F NOT PUSH1 0x3F RETURNDATASIZE ADD AND DUP3 ADD PUSH1 0x40 MSTORE RETURNDATASIZE DUP3 MSTORE RETURNDATASIZE PUSH1 0x0 PUSH1 0x20 DUP5 ADD RETURNDATACOPY PUSH2 0x222 JUMP JUMPDEST PUSH1 0x60 SWAP2 POP JUMPDEST POP POP SWAP1 POP DUP1 PUSH2 0x266 JUMPI PUSH1 0x40 MLOAD PUSH32 0x8C379A000000000000000000000000000000000000000000000000000000000 DUP2 MSTORE PUSH1 0x4 ADD PUSH2 0x25D SWAP1 PUSH2 0x61F JUMP JUMPDEST PUSH1 0x40 MLOAD DUP1 SWAP2 SUB SWAP1 REVERT JUMPDEST POP POP JUMP JUMPDEST PUSH1 0x0 DUP1 DUP3 PUSH20 0xFFFFFFFFFFFFFFFFFFFFFFFFFFFFFFFFFFFFFFFF AND PUSH2 0x3E8 PUSH2 0x1388 SWAP1 PUSH1 0x7B PUSH1 0x40 MLOAD PUSH1 0x24 ADD PUSH2 0x29D SWAP2 SWAP1 PUSH2 0x6DD JUMP JUMPDEST PUSH1 0x40 MLOAD PUSH1 0x20 DUP2 DUP4 SUB SUB DUP2 MSTORE SWAP1 PUSH1 0x40 MSTORE PUSH32 0x24CCAB8F00000000000000000000000000000000000000000000000000000000 PUSH28 0xFFFFFFFFFFFFFFFFFFFFFFFFFFFFFFFFFFFFFFFFFFFFFFFFFFFFFFFF NOT AND PUSH1 0x20 DUP3 ADD DUP1 MLOAD PUSH28 0xFFFFFFFFFFFFFFFFFFFFFFFFFFFFFFFFFFFFFFFFFFFFFFFFFFFFFFFF DUP4 DUP2 DUP4 AND OR DUP4 MSTORE POP POP POP POP PUSH1 0x40 MLOAD PUSH2 0x327 SWAP2 SWAP1 PUSH2 0x5AB JUMP JUMPDEST PUSH1 0x0 PUSH1 0x40 MLOAD DUP1 DUP4 SUB DUP2 DUP6 DUP9 DUP9 CALL SWAP4 POP POP POP POP RETURNDATASIZE DUP1 PUSH1 0x0 DUP2 EQ PUSH2 0x365 JUMPI PUSH1 0x40 MLOAD SWAP2 POP PUSH1 0x1F NOT PUSH1 0x3F RETURNDATASIZE ADD AND DUP3 ADD PUSH1 0x40 MSTORE RETURNDATASIZE DUP3 MSTORE RETURNDATASIZE PUSH1 0x0 PUSH1 0x20 DUP5 ADD RETURNDATACOPY PUSH2 0x36A JUMP JUMPDEST PUSH1 0x60 SWAP2 POP JUMPDEST POP SWAP2 POP SWAP2 POP DUP2 PUSH2 0x3AF JUMPI PUSH1 0x40 MLOAD PUSH32 0x8C379A000000000000000000000000000000000000000000000000000000000 DUP2 MSTORE PUSH1 0x4 ADD PUSH2 0x3A6 SWAP1 PUSH2 0x757 JUMP JUMPDEST PUSH1 0x40 MLOAD DUP1 SWAP2 SUB SWAP1 REVERT JUMPDEST DUP1 PUSH1 0x0 SWAP1 DUP2 PUSH2 0x3BE SWAP2 SWAP1 PUSH2 0x952 JUMP JUMPDEST POP POP POP POP JUMP JUMPDEST PUSH1 0x0 DUP2 MLOAD SWAP1 POP SWAP2 SWAP1 POP JUMP JUMPDEST PUSH1 0x0 DUP3 DUP3 MSTORE PUSH1 0x20 DUP3 ADD SWAP1 POP SWAP3 SWAP2 POP POP JUMP JUMPDEST PUSH1 0x0 JUMPDEST DUP4 DUP2 LT ISZERO PUSH2 0x3FE JUMPI DUP1 DUP3 ADD MLOAD DUP2 DUP5 ADD MSTORE PUSH1 0x20 DUP2 ADD SWAP1 POP PUSH2 0x3E3 JUMP JUMPDEST DUP4 DUP2 GT ISZERO PUSH2 0x40D JUMPI PUSH1 0x0 DUP5 DUP5 ADD MSTORE JUMPDEST POP POP POP POP JUMP JUMPDEST PUSH1 0x0 PUSH1 0x1F NOT PUSH1 0x1F DUP4 ADD AND SWAP1 POP SWAP2 SWAP1 POP JUMP JUMPDEST PUSH1 0x0 PUSH2 0x42F DUP3 PUSH2 0x3C4 JUMP JUMPDEST PUSH2 0x439 DUP2 DUP6 PUSH2 0x3CF JUMP JUMPDEST SWAP4 POP PUSH2 0x449 DUP2 DUP6 PUSH1 0x20 DUP7 ADD PUSH2 0x3E0 JUMP JUMPDEST PUSH2 0x452 DUP2 PUSH2 0x413 JUMP JUMPDEST DUP5 ADD SWAP2 POP POP SWAP3 SWAP2 POP POP JUMP JUMPDEST PUSH1 0x0 PUSH1 0x20 DUP3 ADD SWAP1 POP DUP2 DUP2 SUB PUSH1 0x0 DUP4 ADD MSTORE PUSH2 0x477 DUP2 DUP5 PUSH2 0x424 JUMP JUMPDEST SWAP1 POP SWAP3 SWAP2 POP POP JUMP JUMPDEST PUSH1 0x0 DUP1 REVERT JUMPDEST PUSH1 0x0 PUSH20 0xFFFFFFFFFFFFFFFFFFFFFFFFFFFFFFFFFFFFFFFF DUP3 AND SWAP1 POP SWAP2 SWAP1 POP JUMP JUMPDEST PUSH1 0x0 PUSH2 0x4AF DUP3 PUSH2 0x484 JUMP JUMPDEST SWAP1 POP SWAP2 SWAP1 POP JUMP JUMPDEST PUSH2 0x4BF DUP2 PUSH2 0x4A4 JUMP JUMPDEST DUP2 EQ PUSH2 0x4CA JUMPI PUSH1 0x0 DUP1 REVERT JUMPDEST POP JUMP JUMPDEST PUSH1 0x0 DUP2 CALLDATALOAD SWAP1 POP PUSH2 0x4DC DUP2 PUSH2 0x4B6 JUMP JUMPDEST SWAP3 SWAP2 POP POP JUMP JUMPDEST PUSH1 0x0 PUSH1 0x20 DUP3 DUP5 SUB SLT ISZERO PUSH2 0x4F8 JUMPI PUSH2 0x4F7 PUSH2 0x47F JUMP JUMPDEST JUMPDEST PUSH1 0x0 PUSH2 0x506 DUP5 DUP3 DUP6 ADD PUSH2 0x4CD JUMP JUMPDEST SWAP2 POP POP SWAP3 SWAP2 POP POP JUMP JUMPDEST PUSH32 0x4E487B7100000000000000000000000000000000000000000000000000000000 PUSH1 0x0 MSTORE PUSH1 0x22 PUSH1 0x4 MSTORE PUSH1 0x24 PUSH1 0x0 REVERT JUMPDEST PUSH1 0x0 PUSH1 0x2 DUP3 DIV SWAP1 POP PUSH1 0x1 DUP3 AND DUP1 PUSH2 0x556 JUMPI PUSH1 0x7F DUP3 AND SWAP2 POP JUMPDEST PUSH1 0x20 DUP3 LT DUP2 SUB PUSH2 0x569 JUMPI PUSH2 0x568 PUSH2 0x50F JUMP JUMPDEST JUMPDEST POP SWAP2 SWAP1 POP JUMP JUMPDEST PUSH1 0x0 DUP2 SWAP1 POP SWAP3 SWAP2 POP POP JUMP JUMPDEST PUSH1 0x0 PUSH2 0x585 DUP3 PUSH2 0x3C4 JUMP JUMPDEST PUSH2 0x58F DUP2 DUP6 PUSH2 0x56F JUMP JUMPDEST SWAP4 POP PUSH2 0x59F DUP2 DUP6 PUSH1 0x20 DUP7 ADD PUSH2 0x3E0 JUMP JUMPDEST DUP1 DUP5 ADD SWAP2 POP POP SWAP3 SWAP2 POP POP JUMP JUMPDEST PUSH1 0x0 PUSH2 0x5B7 DUP3 DUP5 PUSH2 0x57A JUMP JUMPDEST SWAP2 POP DUP2 SWAP1 POP SWAP3 SWAP2 POP POP JUMP JUMPDEST PUSH1 0x0 DUP3 DUP3 MSTORE PUSH1 0x20 DUP3 ADD SWAP1 POP SWAP3 SWAP2 POP POP JUMP JUMPDEST PUSH32 0x63616C6C20746F2072616E646F6D2829206661696C6564000000000000000000 PUSH1 0x0 DUP3 ADD MSTORE POP JUMP JUMPDEST PUSH1 0x0 PUSH2 0x609 PUSH1 0x17 DUP4 PUSH2 0x5C2 JUMP JUMPDEST SWAP2 POP PUSH2 0x614 DUP3 PUSH2 0x5D3 JUMP JUMPDEST PUSH1 0x20 DUP3 ADD SWAP1 POP SWAP2 SWAP1 POP JUMP JUMPDEST PUSH1 0x0 PUSH1 0x20 DUP3 ADD SWAP1 POP DUP2 DUP2 SUB PUSH1 0x0 DUP4 ADD MSTORE PUSH2 0x638 DUP2 PUSH2 0x5FC JUMP JUMPDEST SWAP1 POP SWAP2 SWAP1 POP JUMP JUMPDEST PUSH32 0x6D79206D65737361676500000000000000000000000000000000000000000000 PUSH1 0x0 DUP3 ADD MSTORE POP JUMP JUMPDEST PUSH1 0x0 PUSH2 0x675 PUSH1 0xA DUP4 PUSH2 0x5C2 JUMP JUMPDEST SWAP2 POP PUSH2 0x680 DUP3 PUSH2 0x63F JUMP JUMPDEST PUSH1 0x20 DUP3 ADD SWAP1 POP SWAP2 SWAP1 POP JUMP JUMPDEST PUSH1 0x0 DUP2 SWAP1 POP SWAP2 SWAP1 POP JUMP JUMPDEST PUSH1 0x0 PUSH1 0xFF DUP3 AND SWAP1 POP SWAP2 SWAP1 POP JUMP JUMPDEST PUSH1 0x0 DUP2 SWAP1 POP SWAP2 SWAP1 POP JUMP JUMPDEST PUSH1 0x0 PUSH2 0x6C7 PUSH2 0x6C2 PUSH2 0x6BD DUP5 PUSH2 0x68B JUMP JUMPDEST PUSH2 0x6A2 JUMP JUMPDEST PUSH2 0x695 JUMP JUMPDEST SWAP1 POP SWAP2 SWAP1 POP JUMP JUMPDEST PUSH2 0x6D7 DUP2 PUSH2 0x6AC JUMP JUMPDEST DUP3 MSTORE POP POP JUMP JUMPDEST PUSH1 0x0 PUSH1 0x40 DUP3 ADD SWAP1 POP DUP2 DUP2 SUB PUSH1 0x0 DUP4 ADD MSTORE PUSH2 0x6F6 DUP2 PUSH2 0x668 JUMP JUMPDEST SWAP1 POP PUSH2 0x705 PUSH1 0x20 DUP4 ADD DUP5 PUSH2 0x6CE JUMP JUMPDEST SWAP3 SWAP2 POP POP JUMP JUMPDEST PUSH32 0x43616C6C20746F20666F6F206661696C65640000000000000000000000000000 PUSH1 0x0 DUP3 ADD MSTORE POP JUMP JUMPDEST PUSH1 0x0 PUSH2 0x741 PUSH1 0x12 DUP4 PUSH2 0x5C2 JUMP JUMPDEST SWAP2 POP PUSH2 0x74C DUP3 PUSH2 0x70B JUMP JUMPDEST PUSH1 0x20 DUP3 ADD SWAP1 POP SWAP2 SWAP1 POP JUMP JUMPDEST PUSH1 0x0 PUSH1 0x20 DUP3 ADD SWAP1 POP DUP2 DUP2 SUB PUSH1 0x0 DUP4 ADD MSTORE PUSH2 0x770 DUP2 PUSH2 0x734 JUMP JUMPDEST SWAP1 POP SWAP2 SWAP1 POP JUMP JUMPDEST PUSH32 0x4E487B7100000000000000000000000000000000000000000000000000000000 PUSH1 0x0 MSTORE PUSH1 0x41 PUSH1 0x4 MSTORE PUSH1 0x24 PUSH1 0x0 REVERT JUMPDEST PUSH1 0x0 DUP2 SWAP1 POP DUP2 PUSH1 0x0 MSTORE PUSH1 0x20 PUSH1 0x0 KECCAK256 SWAP1 POP SWAP2 SWAP1 POP JUMP JUMPDEST PUSH1 0x0 PUSH1 0x20 PUSH1 0x1F DUP4 ADD DIV SWAP1 POP SWAP2 SWAP1 POP JUMP JUMPDEST PUSH1 0x0 DUP3 DUP3 SHL SWAP1 POP SWAP3 SWAP2 POP POP JUMP JUMPDEST PUSH1 0x0 PUSH1 0x8 DUP4 MUL PUSH2 0x808 PUSH32 0xFFFFFFFFFFFFFFFFFFFFFFFFFFFFFFFFFFFFFFFFFFFFFFFFFFFFFFFFFFFFFFFF DUP3 PUSH2 0x7CB JUMP JUMPDEST PUSH2 0x812 DUP7 DUP4 PUSH2 0x7CB JUMP JUMPDEST SWAP6 POP DUP1 NOT DUP5 AND SWAP4 POP DUP1 DUP7 AND DUP5 OR SWAP3 POP POP POP SWAP4 SWAP3 POP POP POP JUMP JUMPDEST PUSH1 0x0 DUP2 SWAP1 POP SWAP2 SWAP1 POP JUMP JUMPDEST PUSH1 0x0 PUSH2 0x84F PUSH2 0x84A PUSH2 0x845 DUP5 PUSH2 0x82A JUMP JUMPDEST PUSH2 0x6A2 JUMP JUMPDEST PUSH2 0x82A JUMP JUMPDEST SWAP1 POP SWAP2 SWAP1 POP JUMP JUMPDEST PUSH1 0x0 DUP2 SWAP1 POP SWAP2 SWAP1 POP JUMP JUMPDEST PUSH2 0x869 DUP4 PUSH2 0x834 JUMP JUMPDEST PUSH2 0x87D PUSH2 0x875 DUP3 PUSH2 0x856 JUMP JUMPDEST DUP5 DUP5 SLOAD PUSH2 0x7D8 JUMP JUMPDEST DUP3 SSTORE POP POP POP POP JUMP JUMPDEST PUSH1 0x0 SWAP1 JUMP JUMPDEST PUSH2 0x892 PUSH2 0x885 JUMP JUMPDEST PUSH2 0x89D DUP2 DUP5 DUP5 PUSH2 0x860 JUMP JUMPDEST POP POP POP JUMP JUMPDEST JUMPDEST DUP2 DUP2 LT ISZERO PUSH2 0x8C1 JUMPI PUSH2 0x8B6 PUSH1 0x0 DUP3 PUSH2 0x88A JUMP JUMPDEST PUSH1 0x1 DUP2 ADD SWAP1 POP PUSH2 0x8A3 JUMP JUMPDEST POP POP JUMP JUMPDEST PUSH1 0x1F DUP3 GT ISZERO PUSH2 0x906 JUMPI PUSH2 0x8D7 DUP2 PUSH2 0x7A6 JUMP JUMPDEST PUSH2 0x8E0 DUP5 PUSH2 0x7BB JUMP JUMPDEST DUP2 ADD PUSH1 0x20 DUP6 LT ISZERO PUSH2 0x8EF JUMPI DUP2 SWAP1 POP JUMPDEST PUSH2 0x903 PUSH2 0x8FB DUP6 PUSH2 0x7BB JUMP JUMPDEST DUP4 ADD DUP3 PUSH2 0x8A2 JUMP JUMPDEST POP POP JUMPDEST POP POP POP JUMP JUMPDEST PUSH1 0x0 DUP3 DUP3 SHR SWAP1 POP SWAP3 SWAP2 POP POP JUMP JUMPDEST PUSH1 0x0 PUSH2 0x929 PUSH1 0x0 NOT DUP5 PUSH1 0x8 MUL PUSH2 0x90B JUMP JUMPDEST NOT DUP1 DUP4 AND SWAP2 POP POP SWAP3 SWAP2 POP POP JUMP JUMPDEST PUSH1 0x0 PUSH2 0x942 DUP4 DUP4 PUSH2 0x918 JUMP JUMPDEST SWAP2 POP DUP3 PUSH1 0x2 MUL DUP3 OR SWAP1 POP SWAP3 SWAP2 POP POP JUMP JUMPDEST PUSH2 0x95B DUP3 PUSH2 0x3C4 JUMP JUMPDEST PUSH8 0xFFFFFFFFFFFFFFFF DUP2 GT ISZERO PUSH2 0x974 JUMPI PUSH2 0x973 PUSH2 0x777 JUMP JUMPDEST JUMPDEST PUSH2 0x97E DUP3 SLOAD PUSH2 0x53E JUMP JUMPDEST PUSH2 0x989 DUP3 DUP3 DUP6 PUSH2 0x8C5 JUMP JUMPDEST PUSH1 0x0 PUSH1 0x20 SWAP1 POP PUSH1 0x1F DUP4 GT PUSH1 0x1 DUP2 EQ PUSH2 0x9BC JUMPI PUSH1 0x0 DUP5 ISZERO PUSH2 0x9AA JUMPI DUP3 DUP8 ADD MLOAD SWAP1 POP JUMPDEST PUSH2 0x9B4 DUP6 DUP3 PUSH2 0x936 JUMP JUMPDEST DUP7 SSTORE POP PUSH2 0xA1C JUMP JUMPDEST PUSH1 0x1F NOT DUP5 AND PUSH2 0x9CA DUP7 PUSH2 0x7A6 JUMP JUMPDEST PUSH1 0x0 JUMPDEST DUP3 DUP2 LT ISZERO PUSH2 0x9F2 JUMPI DUP5 DUP10 ADD MLOAD DUP3 SSTORE PUSH1 0x1 DUP3 ADD SWAP2 POP PUSH1 0x20 DUP6 ADD SWAP5 POP PUSH1 0x20 DUP2 ADD SWAP1 POP PUSH2 0x9CD JUMP JUMPDEST DUP7 DUP4 LT ISZERO PUSH2 0xA0F JUMPI DUP5 DUP10 ADD MLOAD PUSH2 0xA0B PUSH1 0x1F DUP10 AND DUP3 PUSH2 0x918 JUMP JUMPDEST DUP4 SSTORE POP JUMPDEST PUSH1 0x1 PUSH1 0x2 DUP9 MUL ADD DUP9 SSTORE POP POP POP JUMPDEST POP POP POP POP POP POP JUMP INVALID LOG2 PUSH5 0x6970667358 0x22 SLT KECCAK256 PUSH10 0x5497FD85FBF910D28D43 DUP8 SLOAD 0x1F 0xB2 CREATE2 SUB JUMPDEST LOG1 PUSH5 0xDDC7A50774 ADDRESS MOD 0xBB PUSH8 0x6D57E964736F6C63 NUMBER STOP ADDMOD 0xF STOP CALLER "
				},
				"gasEstimates": {
					"creation": {
						"codeDepositCost": "530000",
						"executionCost": "562",
						"totalCost": "530562"
					},
					"external": {
						"callDoesNotExist(address)": "infinite",
						"callFoo(address)": "infinite",
						"data()": "infinite"
					}
				},
				"methodIdentifiers": {
					"callDoesNotExist(address)": "b0feeff6",
					"callFoo(address)": "edcbe76c",
					"data()": "73d4a13a"
				}
			},
			"storageLayout": {
				"storage": [
					{
						"astId": 52,
						"contract": "contracts/TestCall.sol:Caller",
						"label": "data",
						"offset": 0,
						"slot": "0",
						"type": "t_bytes_storage"
					}
				],
				"types": {
					"t_bytes_storage": {
						"encoding": "bytes",
						"label": "bytes",
						"numberOfBytes": "32"
					}
				}
			},
			"userdoc": {
				"kind": "user",
				"methods": {},
				"version": 1
			}
		}
	}
}